{
  "_format": "hh-sol-artifact-1",
  "contractName": "TrustToken",
  "sourceName": "contracts/experiments/TrustToken.sol",
  "abi": [
    {
      "inputs": [
        {
          "internalType": "contract CitizenAlpha",
          "name": "citizenAlpha_",
          "type": "address"
        },
        {
          "internalType": "string",
          "name": "name",
          "type": "string"
        },
        {
          "internalType": "string",
          "name": "symbol",
          "type": "string"
        }
      ],
      "stateMutability": "nonpayable",
      "type": "constructor"
    },
    {
      "anonymous": false,
      "inputs": [
        {
          "indexed": true,
          "internalType": "address",
          "name": "owner",
          "type": "address"
        },
        {
          "indexed": true,
          "internalType": "address",
          "name": "spender",
          "type": "address"
        },
        {
          "indexed": false,
          "internalType": "uint256",
          "name": "value",
          "type": "uint256"
        }
      ],
      "name": "Approval",
      "type": "event"
    },
    {
      "anonymous": false,
      "inputs": [
        {
          "indexed": true,
          "internalType": "address",
          "name": "delegator",
          "type": "address"
        },
        {
          "indexed": true,
          "internalType": "address",
          "name": "delegate",
          "type": "address"
        }
      ],
      "name": "Delegated",
      "type": "event"
    },
    {
      "anonymous": false,
      "inputs": [
        {
          "components": [
            {
              "internalType": "uint224",
              "name": "amount",
              "type": "uint224"
            },
            {
              "internalType": "uint32",
              "name": "timestamp",
              "type": "uint32"
            }
          ],
          "indexed": false,
          "internalType": "struct ObservationLib.Observation",
          "name": "newTotalSupplyTwab",
          "type": "tuple"
        }
      ],
      "name": "NewTotalSupplyTwab",
      "type": "event"
    },
    {
      "anonymous": false,
      "inputs": [
        {
          "indexed": true,
          "internalType": "address",
          "name": "delegate",
          "type": "address"
        },
        {
          "components": [
            {
              "internalType": "uint224",
              "name": "amount",
              "type": "uint224"
            },
            {
              "internalType": "uint32",
              "name": "timestamp",
              "type": "uint32"
            }
          ],
          "indexed": false,
          "internalType": "struct ObservationLib.Observation",
          "name": "newTwab",
          "type": "tuple"
        }
      ],
      "name": "NewUserTwab",
      "type": "event"
    },
    {
      "anonymous": false,
      "inputs": [
        {
          "indexed": true,
          "internalType": "address",
          "name": "from",
          "type": "address"
        },
        {
          "indexed": true,
          "internalType": "address",
          "name": "to",
          "type": "address"
        },
        {
          "indexed": false,
          "internalType": "uint256",
          "name": "value",
          "type": "uint256"
        }
      ],
      "name": "Transfer",
      "type": "event"
    },
    {
      "inputs": [],
      "name": "DOMAIN_SEPARATOR",
      "outputs": [
        {
          "internalType": "bytes32",
          "name": "",
          "type": "bytes32"
        }
      ],
      "stateMutability": "view",
      "type": "function"
    },
    {
      "inputs": [
        {
          "internalType": "address",
          "name": "owner",
          "type": "address"
        },
        {
          "internalType": "address",
          "name": "spender",
          "type": "address"
        }
      ],
      "name": "allowance",
      "outputs": [
        {
          "internalType": "uint256",
          "name": "",
          "type": "uint256"
        }
      ],
      "stateMutability": "view",
      "type": "function"
    },
    {
      "inputs": [
        {
          "internalType": "address",
          "name": "spender",
          "type": "address"
        },
        {
          "internalType": "uint256",
          "name": "amount",
          "type": "uint256"
        }
      ],
      "name": "approve",
      "outputs": [
        {
          "internalType": "bool",
          "name": "",
          "type": "bool"
        }
      ],
      "stateMutability": "nonpayable",
      "type": "function"
    },
    {
      "inputs": [
        {
          "internalType": "address",
          "name": "account",
          "type": "address"
        }
      ],
      "name": "balanceOf",
      "outputs": [
        {
          "internalType": "uint256",
          "name": "",
          "type": "uint256"
        }
      ],
      "stateMutability": "view",
      "type": "function"
    },
    {
      "inputs": [],
      "name": "claim",
      "outputs": [],
      "stateMutability": "nonpayable",
      "type": "function"
    },
    {
      "inputs": [],
      "name": "decimals",
      "outputs": [
        {
          "internalType": "uint8",
          "name": "",
          "type": "uint8"
        }
      ],
      "stateMutability": "view",
      "type": "function"
    },
    {
      "inputs": [
        {
          "internalType": "address",
          "name": "spender",
          "type": "address"
        },
        {
          "internalType": "uint256",
          "name": "subtractedValue",
          "type": "uint256"
        }
      ],
      "name": "decreaseAllowance",
      "outputs": [
        {
          "internalType": "bool",
          "name": "",
          "type": "bool"
        }
      ],
      "stateMutability": "nonpayable",
      "type": "function"
    },
    {
      "inputs": [
        {
          "internalType": "address",
          "name": "_to",
          "type": "address"
        }
      ],
      "name": "delegate",
      "outputs": [],
      "stateMutability": "nonpayable",
      "type": "function"
    },
    {
      "inputs": [
        {
          "internalType": "address",
          "name": "_user",
          "type": "address"
        }
      ],
      "name": "delegateOf",
      "outputs": [
        {
          "internalType": "address",
          "name": "",
          "type": "address"
        }
      ],
      "stateMutability": "view",
      "type": "function"
    },
    {
      "inputs": [
        {
          "internalType": "address",
          "name": "_user",
          "type": "address"
        },
        {
          "internalType": "address",
          "name": "_newDelegate",
          "type": "address"
        },
        {
          "internalType": "uint256",
          "name": "_deadline",
          "type": "uint256"
        },
        {
          "internalType": "uint8",
          "name": "_v",
          "type": "uint8"
        },
        {
          "internalType": "bytes32",
          "name": "_r",
          "type": "bytes32"
        },
        {
          "internalType": "bytes32",
          "name": "_s",
          "type": "bytes32"
        }
      ],
      "name": "delegateWithSignature",
      "outputs": [],
      "stateMutability": "nonpayable",
      "type": "function"
    },
    {
      "inputs": [
        {
          "internalType": "address",
          "name": "_user",
          "type": "address"
        }
      ],
      "name": "getAccountDetails",
      "outputs": [
        {
          "components": [
            {
              "internalType": "uint208",
              "name": "balance",
              "type": "uint208"
            },
            {
              "internalType": "uint24",
              "name": "nextTwabIndex",
              "type": "uint24"
            },
            {
              "internalType": "uint24",
              "name": "cardinality",
              "type": "uint24"
            }
          ],
          "internalType": "struct TwabLib.AccountDetails",
          "name": "",
          "type": "tuple"
        }
      ],
      "stateMutability": "view",
      "type": "function"
    },
    {
      "inputs": [
        {
          "internalType": "address",
          "name": "_user",
          "type": "address"
        },
        {
          "internalType": "uint64",
          "name": "_startTime",
          "type": "uint64"
        },
        {
          "internalType": "uint64",
          "name": "_endTime",
          "type": "uint64"
        }
      ],
      "name": "getAverageBalanceBetween",
      "outputs": [
        {
          "internalType": "uint256",
          "name": "",
          "type": "uint256"
        }
      ],
      "stateMutability": "view",
      "type": "function"
    },
    {
      "inputs": [
        {
          "internalType": "address",
          "name": "_user",
          "type": "address"
        },
        {
          "internalType": "uint64[]",
          "name": "_startTimes",
          "type": "uint64[]"
        },
        {
          "internalType": "uint64[]",
          "name": "_endTimes",
          "type": "uint64[]"
        }
      ],
      "name": "getAverageBalancesBetween",
      "outputs": [
        {
          "internalType": "uint256[]",
          "name": "",
          "type": "uint256[]"
        }
      ],
      "stateMutability": "view",
      "type": "function"
    },
    {
      "inputs": [
        {
          "internalType": "uint64[]",
          "name": "_startTimes",
          "type": "uint64[]"
        },
        {
          "internalType": "uint64[]",
          "name": "_endTimes",
          "type": "uint64[]"
        }
      ],
      "name": "getAverageTotalSuppliesBetween",
      "outputs": [
        {
          "internalType": "uint256[]",
          "name": "",
          "type": "uint256[]"
        }
      ],
      "stateMutability": "view",
      "type": "function"
    },
    {
      "inputs": [
        {
          "internalType": "address",
          "name": "_user",
          "type": "address"
        },
        {
          "internalType": "uint64",
          "name": "_target",
          "type": "uint64"
        }
      ],
      "name": "getBalanceAt",
      "outputs": [
        {
          "internalType": "uint256",
          "name": "",
          "type": "uint256"
        }
      ],
      "stateMutability": "view",
      "type": "function"
    },
    {
      "inputs": [
        {
          "internalType": "address",
          "name": "_user",
          "type": "address"
        },
        {
          "internalType": "uint64[]",
          "name": "_targets",
          "type": "uint64[]"
        }
      ],
      "name": "getBalancesAt",
      "outputs": [
        {
          "internalType": "uint256[]",
          "name": "",
          "type": "uint256[]"
        }
      ],
      "stateMutability": "view",
      "type": "function"
    },
    {
      "inputs": [
        {
          "internalType": "uint64[]",
          "name": "_targets",
          "type": "uint64[]"
        }
      ],
      "name": "getTotalSuppliesAt",
      "outputs": [
        {
          "internalType": "uint256[]",
          "name": "",
          "type": "uint256[]"
        }
      ],
      "stateMutability": "view",
      "type": "function"
    },
    {
      "inputs": [
        {
          "internalType": "uint64",
          "name": "_target",
          "type": "uint64"
        }
      ],
      "name": "getTotalSupplyAt",
      "outputs": [
        {
          "internalType": "uint256",
          "name": "",
          "type": "uint256"
        }
      ],
      "stateMutability": "view",
      "type": "function"
    },
    {
      "inputs": [
        {
          "internalType": "address",
          "name": "_user",
          "type": "address"
        },
        {
          "internalType": "uint16",
          "name": "_index",
          "type": "uint16"
        }
      ],
      "name": "getTwab",
      "outputs": [
        {
          "components": [
            {
              "internalType": "uint224",
              "name": "amount",
              "type": "uint224"
            },
            {
              "internalType": "uint32",
              "name": "timestamp",
              "type": "uint32"
            }
          ],
          "internalType": "struct ObservationLib.Observation",
          "name": "",
          "type": "tuple"
        }
      ],
      "stateMutability": "view",
      "type": "function"
    },
    {
      "inputs": [
        {
          "internalType": "address",
          "name": "spender",
          "type": "address"
        },
        {
          "internalType": "uint256",
          "name": "addedValue",
          "type": "uint256"
        }
      ],
      "name": "increaseAllowance",
      "outputs": [
        {
          "internalType": "bool",
          "name": "",
          "type": "bool"
        }
      ],
      "stateMutability": "nonpayable",
      "type": "function"
    },
    {
      "inputs": [],
      "name": "name",
      "outputs": [
        {
          "internalType": "string",
          "name": "",
          "type": "string"
        }
      ],
      "stateMutability": "view",
      "type": "function"
    },
    {
      "inputs": [
        {
          "internalType": "address",
          "name": "owner",
          "type": "address"
        }
      ],
      "name": "nonces",
      "outputs": [
        {
          "internalType": "uint256",
          "name": "",
          "type": "uint256"
        }
      ],
      "stateMutability": "view",
      "type": "function"
    },
    {
      "inputs": [
        {
          "internalType": "address",
          "name": "owner",
          "type": "address"
        },
        {
          "internalType": "address",
          "name": "spender",
          "type": "address"
        },
        {
          "internalType": "uint256",
          "name": "value",
          "type": "uint256"
        },
        {
          "internalType": "uint256",
          "name": "deadline",
          "type": "uint256"
        },
        {
          "internalType": "uint8",
          "name": "v",
          "type": "uint8"
        },
        {
          "internalType": "bytes32",
          "name": "r",
          "type": "bytes32"
        },
        {
          "internalType": "bytes32",
          "name": "s",
          "type": "bytes32"
        }
      ],
      "name": "permit",
      "outputs": [],
      "stateMutability": "nonpayable",
      "type": "function"
    },
    {
      "inputs": [],
      "name": "symbol",
      "outputs": [
        {
          "internalType": "string",
          "name": "",
          "type": "string"
        }
      ],
      "stateMutability": "view",
      "type": "function"
    },
    {
      "inputs": [],
      "name": "totalSupply",
      "outputs": [
        {
          "internalType": "uint256",
          "name": "",
          "type": "uint256"
        }
      ],
      "stateMutability": "view",
      "type": "function"
    },
    {
      "inputs": [
        {
          "internalType": "address",
          "name": "to",
          "type": "address"
        },
        {
          "internalType": "uint256",
          "name": "amount",
          "type": "uint256"
        }
      ],
      "name": "transfer",
      "outputs": [
        {
          "internalType": "bool",
          "name": "",
          "type": "bool"
        }
      ],
      "stateMutability": "nonpayable",
      "type": "function"
    },
    {
      "inputs": [
        {
          "internalType": "address",
          "name": "from",
          "type": "address"
        },
        {
          "internalType": "address",
          "name": "to",
          "type": "address"
        },
        {
          "internalType": "uint256",
          "name": "amount",
          "type": "uint256"
        }
      ],
      "name": "transferFrom",
      "outputs": [
        {
          "internalType": "bool",
          "name": "",
          "type": "bool"
        }
      ],
      "stateMutability": "nonpayable",
      "type": "function"
    }
  ],
  "bytecode": "0x61016060405269021e19e0c9bab24000006008557f94019368dc6b2ee4ac32010c9d0081ec29874325b541829d001d22c296b5246c610140523480156200004557600080fd5b50604051620035ec380380620035ec833981016040819052620000689162000267565b6040518060400160405280601681526020017f57656233436974697a656e205472757374546f6b656e0000000000000000000081525080604051806040016040528060018152602001603160f81b81525084848160039081620000cc919062000380565b506004620000db828262000380565b5050825160208085019190912083518483012060e08290526101008190524660a0818152604080517f8b73c3c69bb8fe3d512ecc4cf759cc79239f7b179b0ffacaa9a75d522b39400f81880181905281830187905260608201869052608082019490945230818401528151808203909301835260c0019052805194019390932091935091906080523060c052610120525050600780546001600160a01b0319166001600160a01b039790971696909617909555506200044c9350505050565b634e487b7160e01b600052604160045260246000fd5b600082601f830112620001c257600080fd5b81516001600160401b0380821115620001df57620001df6200019a565b604051601f8301601f19908116603f011681019082821181831017156200020a576200020a6200019a565b816040528381526020925086838588010111156200022757600080fd5b600091505b838210156200024b57858201830151818301840152908201906200022c565b838211156200025d5760008385830101525b9695505050505050565b6000806000606084860312156200027d57600080fd5b83516001600160a01b03811681146200029557600080fd5b60208501519093506001600160401b0380821115620002b357600080fd5b620002c187838801620001b0565b93506040860151915080821115620002d857600080fd5b50620002e786828701620001b0565b9150509250925092565b600181811c908216806200030657607f821691505b6020821081036200032757634e487b7160e01b600052602260045260246000fd5b50919050565b601f8211156200037b57600081815260208120601f850160051c81016020861015620003565750805b601f850160051c820191505b81811015620003775782815560010162000362565b5050505b505050565b81516001600160401b038111156200039c576200039c6200019a565b620003b481620003ad8454620002f1565b846200032d565b602080601f831160018114620003ec5760008415620003d35750858301515b600019600386901b1c1916600185901b17855562000377565b600085815260208120601f198616915b828110156200041d57888601518255948401946001909101908401620003fc565b50858210156200043c5787850151600019600388901b60f8161c191681555b5050505050600190811b01905550565b60805160a05160c05160e051610100516101205161014051613145620004a76000396000610a84015260006112cb0152600061131a015260006112f50152600061124e01526000611278015260006112a201526131456000f3fe608060405234801561001057600080fd5b50600436106101a95760003560e01c806368c7fd57116100f957806395d89b4111610097578063a457c2d711610071578063a457c2d71461045c578063a9059cbb1461046f578063d505accf14610482578063dd62ed3e1461049557600080fd5b806395d89b411461042e57806398b16f36146104365780639ecb03701461044957600080fd5b806385beb5f1116100d357806385beb5f1146103ae5780638d22ea2a146103c15780638e6d536a14610408578063919974dc1461041b57600080fd5b806368c7fd571461035f57806370a08231146103725780637ecebe001461039b57600080fd5b8063313ce567116101665780633950935111610140578063395093511461030f5780634e71d92d146103225780635c19a95c1461032c578063613ed6bd1461033f57600080fd5b8063313ce567146102d85780633644e515146102e757806336bb2a38146102ef57600080fd5b806306fdde03146101ae578063095ea7b3146101cc57806318160ddd146101ef57806323b872dd146102015780632aceb534146102145780632d0dd686146102c5575b600080fd5b6101b66104a8565b6040516101c3919061297c565b60405180910390f35b6101df6101da3660046129ed565b61053a565b60405190151581526020016101c3565b6002545b6040519081526020016101c3565b6101df61020f366004612a17565b610554565b61028d610222366004612a53565b6040805160608082018352600080835260208084018290529284018190526001600160a01b03949094168452600a82529282902082519384018352546001600160d01b038116845262ffffff600160d01b8204811692850192909252600160e81b9004169082015290565b6040805182516001600160d01b0316815260208084015162ffffff9081169183019190915292820151909216908201526060016101c3565b6101f36102d3366004612a86565b61057a565b604051601281526020016101c3565b6101f36105c6565b6103026102fd366004612aa1565b6105d5565b6040516101c39190612adf565b6101df61031d3660046129ed565b61064d565b61032a61066f565b005b61032a61033a366004612a53565b6107b9565b61035261034d366004612b4a565b6107c6565b6040516101c39190612b9d565b61035261036d366004612be1565b6108e2565b6101f3610380366004612a53565b6001600160a01b031660009081526020819052604090205490565b6101f36103a9366004612a53565b610914565b6103526103bc366004612c62565b610932565b6103f06103cf366004612a53565b6001600160a01b039081166000908152630100000b60205260409020541690565b6040516001600160a01b0390911681526020016101c3565b610352610416366004612ca4565b610a15565b61032a610429366004612d21565b610a30565b6101b6610b94565b6101f3610444366004612d80565b610ba3565b6101f3610457366004612dc3565b610c14565b6101df61046a3660046129ed565b610c7b565b6101df61047d3660046129ed565b610d01565b61032a610490366004612df6565b610d0f565b6101f36104a3366004612e60565b610e73565b6060600380546104b790612e8a565b80601f01602080910402602001604051908101604052809291908181526020018280546104e390612e8a565b80156105305780601f1061050557610100808354040283529160200191610530565b820191906000526020600020905b81548152906001019060200180831161051357829003601f168201915b5050505050905090565b600033610548818585610e9e565b60019150505b92915050565b600033610562858285610fc2565b61056d85858561103c565b60019150505b9392505050565b60408051606081018252600b546001600160d01b038116825262ffffff600160d01b820481166020840152600160e81b909104169181019190915260009061054e90600c908442611215565b60006105d0611241565b905090565b60408051808201909152600080825260208201526001600160a01b0383166000908152600a6020526040902060010161ffff831662ffffff811061061b5761061b612ebe565b604080518082019091529101546001600160e01b0381168252600160e01b900463ffffffff1660208201529392505050565b6000336105488185856106608383610e73565b61066a9190612eea565b610e9e565b60075460405163f3caad0360e01b81523360048201526001600160a01b039091169063f3caad0390602401602060405180830381865afa1580156106b7573d6000803e3d6000fd5b505050506040513d601f19601f820116820180604052508101906106db9190612f02565b6107255760405162461bcd60e51b8152602060048201526016602482015275151c9d5cdd151bdad95b8e9b9bdd0b5d1c9d5cdd195960521b60448201526064015b60405180910390fd5b3360009081526009602052604090205460ff16156107905760405162461bcd60e51b815260206004820152602260248201527f5472757374546f6b656e3a74727573742d70726576696f75736c792d69737375604482015261195960f21b606482015260840161071c565b336000818152600960205260409020805460ff191660011790556008546107b79190611368565b565b6107c33382611453565b50565b60608160008167ffffffffffffffff8111156107e4576107e4612f24565b60405190808252806020026020018201604052801561080d578160200160208202803683370190505b506001600160a01b0387166000908152600a60209081526040808320815160608101835281546001600160d01b038116825262ffffff600160d01b8204811695830195909552600160e81b900490931691830191909152929350905b848110156108d5576108a683600101838a8a8581811061088b5761088b612ebe565b90506020020160208101906108a09190612a86565b42611215565b8482815181106108b8576108b8612ebe565b6020908102919091010152806108cd81612f3a565b915050610869565b5091979650505050505050565b6001600160a01b0385166000908152600a6020526040902060609061090a9086868686611510565b9695505050505050565b6001600160a01b03811660009081526005602052604081205461054e565b60608160008167ffffffffffffffff81111561095057610950612f24565b604051908082528060200260200182016040528015610979578160200160208202803683370190505b5060408051606081018252600b546001600160d01b038116825262ffffff600160d01b820481166020840152600160e81b909104169181019190915290915060005b83811015610a0a576109db600c8389898581811061088b5761088b612ebe565b8382815181106109ed576109ed612ebe565b602090810291909101015280610a0281612f3a565b9150506109bb565b509095945050505050565b6060610a25600b86868686611510565b90505b949350505050565b83421115610a805760405162461bcd60e51b815260206004820181905260248201527f5469636b65742f64656c65676174652d657870697265642d646561646c696e65604482015260640161071c565b60007f00000000000000000000000000000000000000000000000000000000000000008787610aae8a611695565b6040805160208101959095526001600160a01b039384169085015291166060830152608082015260a0810186905260c0016040516020818303038152906040528051906020012090506000610b02826116bd565b90506000610b128287878761170b565b9050886001600160a01b0316816001600160a01b031614610b7f5760405162461bcd60e51b815260206004820152602160248201527f5469636b65742f64656c65676174652d696e76616c69642d7369676e617475726044820152606560f81b606482015260840161071c565b610b898989611453565b505050505050505050565b6060600480546104b790612e8a565b6001600160a01b0383166000908152600a60209081526040808320815160608101835281546001600160d01b038116825262ffffff600160d01b8204811695830195909552600160e81b90049093169183019190915290610c0b906001830190868642611733565b95945050505050565b6001600160a01b0382166000908152600a60209081526040808320815160608101835281546001600160d01b038116825262ffffff600160d01b8204811695830195909552600160e81b90049093169183019190915290610a289060018301908542611215565b60003381610c898286610e73565b905083811015610ce95760405162461bcd60e51b815260206004820152602560248201527f45524332303a2064656372656173656420616c6c6f77616e63652062656c6f77604482015264207a65726f60d81b606482015260840161071c565b610cf68286868403610e9e565b506001949350505050565b60003361054881858561103c565b83421115610d5f5760405162461bcd60e51b815260206004820152601d60248201527f45524332305065726d69743a206578706972656420646561646c696e65000000604482015260640161071c565b60007f6e71edae12b1b97f4d1f60370fef10105fa2faae0126114a169c64845d6126c9888888610d8e8c611695565b6040805160208101969096526001600160a01b0394851690860152929091166060840152608083015260a082015260c0810186905260e0016040516020818303038152906040528051906020012090506000610de9826116bd565b90506000610df98287878761170b565b9050896001600160a01b0316816001600160a01b031614610e5c5760405162461bcd60e51b815260206004820152601e60248201527f45524332305065726d69743a20696e76616c6964207369676e61747572650000604482015260640161071c565b610e678a8a8a610e9e565b50505050505050505050565b6001600160a01b03918216600090815260016020908152604080832093909416825291909152205490565b6001600160a01b038316610f005760405162461bcd60e51b8152602060048201526024808201527f45524332303a20617070726f76652066726f6d20746865207a65726f206164646044820152637265737360e01b606482015260840161071c565b6001600160a01b038216610f615760405162461bcd60e51b815260206004820152602260248201527f45524332303a20617070726f766520746f20746865207a65726f206164647265604482015261737360f01b606482015260840161071c565b6001600160a01b0383811660008181526001602090815260408083209487168084529482529182902085905590518481527f8c5be1e5ebec7d5bd14f71427d1e84f3dd0314c0f7b2291e5b200ac8c7c3b925910160405180910390a3505050565b6000610fce8484610e73565b9050600019811461103657818110156110295760405162461bcd60e51b815260206004820152601d60248201527f45524332303a20696e73756666696369656e7420616c6c6f77616e6365000000604482015260640161071c565b6110368484848403610e9e565b50505050565b6001600160a01b0383166110a05760405162461bcd60e51b815260206004820152602560248201527f45524332303a207472616e736665722066726f6d20746865207a65726f206164604482015264647265737360d81b606482015260840161071c565b6001600160a01b0382166111025760405162461bcd60e51b815260206004820152602360248201527f45524332303a207472616e7366657220746f20746865207a65726f206164647260448201526265737360e81b606482015260840161071c565b61110d83838361176b565b6001600160a01b038316600090815260208190526040902054818110156111855760405162461bcd60e51b815260206004820152602660248201527f45524332303a207472616e7366657220616d6f756e7420657863656564732062604482015265616c616e636560d01b606482015260840161071c565b6001600160a01b038085166000908152602081905260408082208585039055918516815290812080548492906111bc908490612eea565b92505081905550826001600160a01b0316846001600160a01b03167fddf252ad1be2c89b69c2b068fc378daa952ba7f163c4a11628f55a4df523b3ef8460405161120891815260200190565b60405180910390a3611036565b6000808263ffffffff168463ffffffff16116112315783611233565b825b905061090a86868386611802565b6000306001600160a01b037f00000000000000000000000000000000000000000000000000000000000000001614801561129a57507f000000000000000000000000000000000000000000000000000000000000000046145b156112c457507f000000000000000000000000000000000000000000000000000000000000000090565b50604080517f00000000000000000000000000000000000000000000000000000000000000006020808301919091527f0000000000000000000000000000000000000000000000000000000000000000828401527f000000000000000000000000000000000000000000000000000000000000000060608301524660808301523060a0808401919091528351808403909101815260c0909201909252805191012090565b6001600160a01b0382166113be5760405162461bcd60e51b815260206004820152601f60248201527f45524332303a206d696e7420746f20746865207a65726f206164647265737300604482015260640161071c565b6113ca6000838361176b565b80600260008282546113dc9190612eea565b90915550506001600160a01b03821660009081526020819052604081208054839290611409908490612eea565b90915550506040518181526001600160a01b038316906000907fddf252ad1be2c89b69c2b068fc378daa952ba7f163c4a11628f55a4df523b3ef9060200160405180910390a35050565b6001600160a01b0382811660009081526020818152604080832054630100000b909252909120549091908116908316810361148e5750505050565b6001600160a01b038481166000908152630100000b6020526040902080546001600160a01b0319169185169190911790556114ca81848461191f565b826001600160a01b0316846001600160a01b03167f4bc154dd35d6a5cb9206482ecb473cdbf2473006d6bce728b9cc0741bcc59ea260405160405180910390a350505050565b60608382811461156e5760405162461bcd60e51b815260206004820152602360248201527f5469636b65742f73746172742d656e642d74696d65732d6c656e6774682d6d616044820152620e8c6d60eb1b606482015260840161071c565b6040805160608101825288546001600160d01b038116825262ffffff600160d01b820481166020840152600160e81b909104169181019190915260008267ffffffffffffffff8111156115c3576115c3612f24565b6040519080825280602002602001820160405280156115ec578160200160208202803683370190505b5090504260005b84811015611686576116578b600101858c8c8581811061161557611615612ebe565b905060200201602081019061162a9190612a86565b8b8b8681811061163c5761163c612ebe565b90506020020160208101906116519190612a86565b86611733565b83828151811061166957611669612ebe565b60209081029190910101528061167e81612f3a565b9150506115f3565b50909998505050505050505050565b6001600160a01b03811660009081526005602052604090208054600181018255905b50919050565b600061054e6116ca611241565b8360405161190160f01b6020820152602281018390526042810182905260009060620160405160208183030381529060405280519060200120905092915050565b600080600061171c8787878761197f565b9150915061172981611a6c565b5095945050505050565b6000808263ffffffff168463ffffffff161161174f5783611751565b825b90506117608787878487611c22565b979650505050505050565b816001600160a01b0316836001600160a01b03160361178957505050565b60006001600160a01b038416156117ba57506001600160a01b038084166000908152630100000b6020526040902054165b60006001600160a01b038416156117eb57506001600160a01b038084166000908152630100000b6020526040902054165b6117f682828561191f565b5050505050565b505050565b60008061181f604080518082019091526000808252602082015290565b604080518082019091526000808252602082015261183d8888611cbe565b6020810151919450915061185e9063ffffffff9081169088908890611d4316565b1561187957505084516001600160d01b03169150610a289050565b60006118858989611e14565b60208101519093509091506118a69063ffffffff808a1691908990611e9916565b156118b8576000945050505050610a28565b6118ca8985838a8c604001518b611f68565b80945081935050506118e58360200151836020015188612139565b63ffffffff16826000015184600001516118ff9190612f53565b6119099190612f91565b6001600160e01b03169998505050505050505050565b6001600160a01b0383161561194f576119388382612203565b6001600160a01b03821661194f5761194f81612317565b6001600160a01b038216156117fd5761196882826123f0565b6001600160a01b0383166117fd576117fd8161242a565b6000807f7fffffffffffffffffffffffffffffff5d576e7357a4501ddfe92f46681b20a08311156119b65750600090506003611a63565b8460ff16601b141580156119ce57508460ff16601c14155b156119df5750600090506004611a63565b6040805160008082526020820180845289905260ff881692820192909252606081018690526080810185905260019060a0016020604051602081039080840390855afa158015611a33573d6000803e3d6000fd5b5050604051601f1901519150506001600160a01b038116611a5c57600060019250925050611a63565b9150600090505b94509492505050565b6000816004811115611a8057611a80612fb7565b03611a885750565b6001816004811115611a9c57611a9c612fb7565b03611ae95760405162461bcd60e51b815260206004820152601860248201527f45434453413a20696e76616c6964207369676e61747572650000000000000000604482015260640161071c565b6002816004811115611afd57611afd612fb7565b03611b4a5760405162461bcd60e51b815260206004820152601f60248201527f45434453413a20696e76616c6964207369676e6174757265206c656e67746800604482015260640161071c565b6003816004811115611b5e57611b5e612fb7565b03611bb65760405162461bcd60e51b815260206004820152602260248201527f45434453413a20696e76616c6964207369676e6174757265202773272076616c604482015261756560f01b606482015260840161071c565b6004816004811115611bca57611bca612fb7565b036107c35760405162461bcd60e51b815260206004820152602260248201527f45434453413a20696e76616c6964207369676e6174757265202776272076616c604482015261756560f01b606482015260840161071c565b6000806000611c318888611e14565b91509150600080611c428a8a611cbe565b915091506000611c588b8b8487878a8f8e612448565b90506000611c6c8c8c8588888b8f8f612448565b9050611c81816020015183602001518a612139565b63ffffffff1682600001518260000151611c9b9190612f53565b611ca59190612f91565b6001600160e01b03169c9b505050505050505050505050565b6000611cda604080518082019091526000808252602082015290565b611cf2836020015162ffffff1662ffffff8016612590565b9150838262ffffff1662ffffff8110611d0d57611d0d612ebe565b604080518082019091529101546001600160e01b0381168252600160e01b900463ffffffff166020820152919491935090915050565b60008163ffffffff168463ffffffff1611158015611d6d57508163ffffffff168363ffffffff1611155b15611d89578263ffffffff168463ffffffff1611159050610573565b60008263ffffffff168563ffffffff1611611db857611db363ffffffff8616640100000000612fcd565b611dc0565b8463ffffffff165b64ffffffffff16905060008363ffffffff168563ffffffff1611611df857611df363ffffffff8616640100000000612fcd565b611e00565b8463ffffffff165b64ffffffffff169091111595945050505050565b6000611e30604080518082019091526000808252602082015290565b82602001519150838262ffffff1662ffffff8110611e5057611e50612ebe565b604080518082019091529101546001600160e01b0381168252600160e01b900463ffffffff1660208201819052909150600003611e9257600091508382611d0d565b9250929050565b60008163ffffffff168463ffffffff1611158015611ec357508163ffffffff168363ffffffff1611155b15611ede578263ffffffff168463ffffffff16109050610573565b60008263ffffffff168563ffffffff1611611f0d57611f0863ffffffff8616640100000000612fcd565b611f15565b8463ffffffff165b64ffffffffff16905060008363ffffffff168563ffffffff1611611f4d57611f4863ffffffff8616640100000000612fcd565b611f55565b8463ffffffff165b64ffffffffff1690911095945050505050565b6040805180820190915260008082526020820152604080518082019091526000808252602082015260008662ffffff1690506000818962ffffff1610611fb3578862ffffff16611fce565b6001611fc462ffffff881684612eea565b611fce9190612ff6565b905060005b6002611fdf8385612eea565b611fe9919061300d565b90508a611ffb828962ffffff166125bd565b62ffffff1662ffffff811061201257612012612ebe565b604080518082019091529101546001600160e01b0381168252600160e01b900463ffffffff1660208201819052909550600081900361205e57612056826001612eea565b935050611fd3565b8b61206e838a62ffffff166125c9565b62ffffff1662ffffff811061208557612085612ebe565b604080518082019091529101546001600160e01b038116825263ffffffff600160e01b909104811660208301529095506000906120ca90838116908c908b90611d4316565b90508080156120f357506120f38660200151898c63ffffffff16611d439092919063ffffffff16565b156120ff57505061212b565b806121165761210f600184612ff6565b9350612124565b612121836001612eea565b94505b5050611fd3565b505050965096945050505050565b60008163ffffffff168463ffffffff161115801561216357508163ffffffff168363ffffffff1611155b15612179576121728385613021565b9050610573565b60008263ffffffff168563ffffffff16116121a8576121a363ffffffff8616640100000000612fcd565b6121b0565b8463ffffffff165b64ffffffffff16905060008363ffffffff168563ffffffff16116121e8576121e363ffffffff8616640100000000612fcd565b6121f0565b8463ffffffff165b64ffffffffff16905061090a8183612ff6565b8060000361220f575050565b6001600160a01b0382166000908152600a6020526040812090808061227384612237876125d9565b6040518060400160405280601b81526020017f5469636b65742f747761622d6275726e2d6c742d62616c616e6365000000000081525042612646565b82518754602085015160408601516001600160d01b039093166001600160e81b031990921691909117600160d01b62ffffff92831602176001600160e81b0316600160e81b919092160217875591945092509050801561230f57856001600160a01b03167fdd3e7cd3a260a292b0b3306b2ca62f30a7349619a9d09c58109318774c6b627d836040516123069190612adf565b60405180910390a25b505050505050565b806000036123225750565b6000806000612354600b612335866125d9565b6040518060600160405280602c81526020016130e4602c913942612646565b8251600b8054602086015160408701516001600160d01b039094166001600160e81b031990921691909117600160d01b62ffffff92831602176001600160e81b0316600160e81b9190931602919091179055919450925090508015611036577f3375b905d617084fa6b7531688cc8046feb1f1a0b8ba2273de03c59d8d84416c826040516123e29190612adf565b60405180910390a150505050565b806000036123fc575050565b6001600160a01b0382166000908152600a6020526040812090808061227384612424876125d9565b4261270a565b806000036124355750565b6000806000612354600b612424866125d9565b604080518082019091526000808252602082015261247b8383896020015163ffffffff16611e999092919063ffffffff16565b1561249f576124988789600001516001600160d01b0316856127b3565b9050612584565b8263ffffffff16876020015163ffffffff16036124bd575085612584565b8263ffffffff16866020015163ffffffff16036124db575084612584565b6124fa8660200151838563ffffffff16611e999092919063ffffffff16565b1561251f5750604080518082019091526000815263ffffffff83166020820152612584565b6000806125348b8888888e6040015189611f68565b91509150600061254d8260200151846020015187612139565b63ffffffff16836000015183600001516125679190612f53565b6125719190612f91565b905061257e8382886127b3565b93505050505b98975050505050505050565b6000816000036125a25750600061054e565b61057360016125b18486612eea565b6125bb9190612ff6565b835b6000610573828461303e565b60006105736125bb846001612eea565b60006001600160d01b038211156126425760405162461bcd60e51b815260206004820152602760248201527f53616665436173743a2076616c756520646f65736e27742066697420696e20326044820152663038206269747360c81b606482015260840161071c565b5090565b604080516060810182526000808252602082018190529181019190915260408051808201909152600080825260208201526040805160608101825287546001600160d01b0380821680845262ffffff600160d01b840481166020860152600160e81b90930490921693830193909352600092879190891611156126dc5760405162461bcd60e51b815260040161071c919061297c565b506126eb88600101828761282e565b8251999099036001600160d01b03168252909990985095505050505050565b604080516060810182526000808252602082018190529181019190915260408051808201909152600080825260208201526040805160608101825286546001600160d01b038116825262ffffff600160d01b820481166020840152600160e81b909104169181019190915260009061278660018801828761282e565b8351929650909450925061279b908790613052565b6001600160d01b031684525091959094509092509050565b604080518082019091526000808252602082015260405180604001604052806127f18660200151858663ffffffff166121399092919063ffffffff16565b6128019063ffffffff1686613074565b865161280d91906130a3565b6001600160e01b031681526020018363ffffffff1681525090509392505050565b6040805160608101825260008082526020820181905291810191909152604080518082019091526000808252602082015260008061286c8787611cbe565b9150508463ffffffff16816020015163ffffffff16036128945785935091506000905061290b565b60006128ae8288600001516001600160d01b0316886127b3565b90508088886020015162ffffff1662ffffff81106128ce576128ce612ebe565b825160209093015163ffffffff16600160e01b026001600160e01b039093169290921791015560006128ff88612914565b95509093506001925050505b93509350939050565b604080516060810182526000808252602080830182905292820152908201516129449062ffffff908116906125c9565b62ffffff90811660208401526040830151811610156126425760018260400181815161297091906130c5565b62ffffff169052505090565b600060208083528351808285015260005b818110156129a95785810183015185820160400152820161298d565b818111156129bb576000604083870101525b50601f01601f1916929092016040019392505050565b80356001600160a01b03811681146129e857600080fd5b919050565b60008060408385031215612a0057600080fd5b612a09836129d1565b946020939093013593505050565b600080600060608486031215612a2c57600080fd5b612a35846129d1565b9250612a43602085016129d1565b9150604084013590509250925092565b600060208284031215612a6557600080fd5b610573826129d1565b803567ffffffffffffffff811681146129e857600080fd5b600060208284031215612a9857600080fd5b61057382612a6e565b60008060408385031215612ab457600080fd5b612abd836129d1565b9150602083013561ffff81168114612ad457600080fd5b809150509250929050565b81516001600160e01b0316815260209182015163ffffffff169181019190915260400190565b60008083601f840112612b1757600080fd5b50813567ffffffffffffffff811115612b2f57600080fd5b6020830191508360208260051b8501011115611e9257600080fd5b600080600060408486031215612b5f57600080fd5b612b68846129d1565b9250602084013567ffffffffffffffff811115612b8457600080fd5b612b9086828701612b05565b9497909650939450505050565b6020808252825182820181905260009190848201906040850190845b81811015612bd557835183529284019291840191600101612bb9565b50909695505050505050565b600080600080600060608688031215612bf957600080fd5b612c02866129d1565b9450602086013567ffffffffffffffff80821115612c1f57600080fd5b612c2b89838a01612b05565b90965094506040880135915080821115612c4457600080fd5b50612c5188828901612b05565b969995985093965092949392505050565b60008060208385031215612c7557600080fd5b823567ffffffffffffffff811115612c8c57600080fd5b612c9885828601612b05565b90969095509350505050565b60008060008060408587031215612cba57600080fd5b843567ffffffffffffffff80821115612cd257600080fd5b612cde88838901612b05565b90965094506020870135915080821115612cf757600080fd5b50612d0487828801612b05565b95989497509550505050565b803560ff811681146129e857600080fd5b60008060008060008060c08789031215612d3a57600080fd5b612d43876129d1565b9550612d51602088016129d1565b945060408701359350612d6660608801612d10565b92506080870135915060a087013590509295509295509295565b600080600060608486031215612d9557600080fd5b612d9e846129d1565b9250612dac60208501612a6e565b9150612dba60408501612a6e565b90509250925092565b60008060408385031215612dd657600080fd5b612ddf836129d1565b9150612ded60208401612a6e565b90509250929050565b600080600080600080600060e0888a031215612e1157600080fd5b612e1a886129d1565b9650612e28602089016129d1565b95506040880135945060608801359350612e4460808901612d10565b925060a0880135915060c0880135905092959891949750929550565b60008060408385031215612e7357600080fd5b612e7c836129d1565b9150612ded602084016129d1565b600181811c90821680612e9e57607f821691505b6020821081036116b757634e487b7160e01b600052602260045260246000fd5b634e487b7160e01b600052603260045260246000fd5b634e487b7160e01b600052601160045260246000fd5b60008219821115612efd57612efd612ed4565b500190565b600060208284031215612f1457600080fd5b8151801515811461057357600080fd5b634e487b7160e01b600052604160045260246000fd5b600060018201612f4c57612f4c612ed4565b5060010190565b60006001600160e01b0383811690831681811015612f7357612f73612ed4565b039392505050565b634e487b7160e01b600052601260045260246000fd5b60006001600160e01b0383811680612fab57612fab612f7b565b92169190910492915050565b634e487b7160e01b600052602160045260246000fd5b600064ffffffffff808316818516808303821115612fed57612fed612ed4565b01949350505050565b60008282101561300857613008612ed4565b500390565b60008261301c5761301c612f7b565b500490565b600063ffffffff83811690831681811015612f7357612f73612ed4565b60008261304d5761304d612f7b565b500690565b60006001600160d01b03828116848216808303821115612fed57612fed612ed4565b60006001600160e01b038281168482168115158284048211161561309a5761309a612ed4565b02949350505050565b60006001600160e01b03828116848216808303821115612fed57612fed612ed4565b600062ffffff808316818516808303821115612fed57612fed612ed456fe5469636b65742f6275726e2d616d6f756e742d657863656564732d746f74616c2d737570706c792d74776162a264697066735822122045431772ea9aacf7d0267b5670fe37c485eac139074322f4aa6097c4dc75f73464736f6c634300080f0033",
  "linkReferences": {},
  "deployedLinkReferences": {}
}