{
  "_format": "hh-sol-artifact-1",
  "contractName": "TrustResolver",
  "sourceName": "contracts/Trust/TrustResolver.sol",
  "abi": [
    {
      "inputs": [
        {
          "internalType": "address",
          "name": "_citizenAlpha_",
          "type": "address"
        },
        {
          "internalType": "address",
          "name": "_metadata_",
          "type": "address"
        },
        {
          "internalType": "address",
          "name": "_notary_",
          "type": "address"
        }
      ],
      "stateMutability": "nonpayable",
      "type": "constructor"
    },
    {
      "anonymous": false,
      "inputs": [
        {
          "indexed": true,
          "internalType": "address",
          "name": "previousOwner",
          "type": "address"
        },
        {
          "indexed": true,
          "internalType": "address",
          "name": "newOwner",
          "type": "address"
        }
      ],
      "name": "OwnershipTransferred",
      "type": "event"
    },
    {
      "inputs": [
        {
          "internalType": "address",
          "name": "user",
          "type": "address"
        }
      ],
      "name": "getCitizen",
      "outputs": [
        {
          "components": [
            {
              "internalType": "string",
              "name": "name",
              "type": "string"
            },
            {
              "internalType": "string",
              "name": "description",
              "type": "string"
            },
            {
              "internalType": "string",
              "name": "avatar",
              "type": "string"
            },
            {
              "internalType": "string",
              "name": "did",
              "type": "string"
            }
          ],
          "internalType": "struct TrustResolver.CitizenObject",
          "name": "member",
          "type": "tuple"
        }
      ],
      "stateMutability": "view",
      "type": "function"
    },
    {
      "inputs": [
        {
          "internalType": "address",
          "name": "user",
          "type": "address"
        },
        {
          "internalType": "address",
          "name": "guild",
          "type": "address"
        }
      ],
      "name": "getMember",
      "outputs": [
        {
          "internalType": "address",
          "name": "member",
          "type": "address"
        }
      ],
      "stateMutability": "view",
      "type": "function"
    },
    {
      "inputs": [
        {
          "internalType": "address",
          "name": "guild",
          "type": "address"
        }
      ],
      "name": "getMembers",
      "outputs": [
        {
          "internalType": "address[]",
          "name": "members",
          "type": "address[]"
        }
      ],
      "stateMutability": "view",
      "type": "function"
    },
    {
      "inputs": [
        {
          "internalType": "address",
          "name": "user",
          "type": "address"
        }
      ],
      "name": "getMetadata",
      "outputs": [
        {
          "components": [
            {
              "internalType": "string",
              "name": "ensAlias",
              "type": "string"
            },
            {
              "internalType": "string",
              "name": "ensNode",
              "type": "string"
            },
            {
              "internalType": "string",
              "name": "ensResolver",
              "type": "string"
            }
          ],
          "internalType": "struct TrustResolver.CitizenMetadata",
          "name": "member",
          "type": "tuple"
        }
      ],
      "stateMutability": "view",
      "type": "function"
    },
    {
      "inputs": [
        {
          "internalType": "address",
          "name": "user",
          "type": "address"
        },
        {
          "internalType": "address",
          "name": "guild",
          "type": "address"
        }
      ],
      "name": "isMember",
      "outputs": [
        {
          "internalType": "address",
          "name": "member",
          "type": "address"
        }
      ],
      "stateMutability": "view",
      "type": "function"
    },
    {
      "inputs": [],
      "name": "owner",
      "outputs": [
        {
          "internalType": "address",
          "name": "",
          "type": "address"
        }
      ],
      "stateMutability": "view",
      "type": "function"
    },
    {
      "inputs": [],
      "name": "renounceOwnership",
      "outputs": [],
      "stateMutability": "nonpayable",
      "type": "function"
    },
    {
      "inputs": [
        {
          "internalType": "uint256",
          "name": "tokenId",
          "type": "uint256"
        }
      ],
      "name": "tokenURI",
      "outputs": [
        {
          "internalType": "string",
          "name": "tokenURI",
          "type": "string"
        }
      ],
      "stateMutability": "view",
      "type": "function"
    },
    {
      "inputs": [
        {
          "internalType": "address",
          "name": "newOwner",
          "type": "address"
        }
      ],
      "name": "transferOwnership",
      "outputs": [],
      "stateMutability": "nonpayable",
      "type": "function"
    }
  ],
  "bytecode": "0x60e060405234801561001057600080fd5b50604051610b1f380380610b1f83398101604081905261002f916100c0565b61003833610054565b6001600160a01b0391821660a052811660c05216608052610103565b600080546001600160a01b038381166001600160a01b0319831681178455604051919092169283917f8be0079c531659141344cd1fd0a4f28419497f9722a3daafe3b4186f6b6457e09190a35050565b80516001600160a01b03811681146100bb57600080fd5b919050565b6000806000606084860312156100d557600080fd5b6100de846100a4565b92506100ec602085016100a4565b91506100fa604085016100a4565b90509250925092565b60805160a05160c0516109e961013660003960005050600081816101c701526102cf0152600061039001526109e96000f3fe608060405234801561001057600080fd5b50600436106100935760003560e01c8063785446291161006657806378544629146100f25780638da5cb5b14610112578063c2411dab14610123578063c87b56dd14610143578063f2fde38b1461016357600080fd5b80630a55fbfe146100985780632a50c146146100c857806339ac7a0814610098578063715018a6146100e8575b600080fd5b6100ab6100a636600461054b565b610176565b6040516001600160a01b0390911681526020015b60405180910390f35b6100db6100d636600461057e565b610181565b6040516100bf91906105f5565b6100f0610264565b005b61010561010036600461057e565b610278565b6040516100bf9190610656565b6000546001600160a01b03166100ab565b61013661013136600461057e565b610282565b6040516100bf91906106a3565b610156610151366004610718565b610377565b6040516100bf9190610731565b6100f061017136600461057e565b610407565b6000805b9392505050565b6101a560405180606001604052806060815260200160608152602001606081525090565b60405163152860a360e11b81526001600160a01b0383811660048301526000917f000000000000000000000000000000000000000000000000000000000000000090911690632a50c14690602401600060405180830381865afa158015610210573d6000803e3d6000fd5b505050506040513d6000823e601f3d908101601f19168201604052610238919081019061080c565b604080516060810182526080830151815260a0830151602082015260c090920151908201529392505050565b61026c610485565b61027660006104df565b565b6060805b92915050565b6102ad6040518060800160405280606081526020016060815260200160608152602001606081525090565b60405163152860a360e11b81526001600160a01b0383811660048301526000917f000000000000000000000000000000000000000000000000000000000000000090911690632a50c14690602401600060405180830381865afa158015610318573d6000803e3d6000fd5b505050506040513d6000823e601f3d908101601f19168201604052610340919081019061080c565b6040805160808101825282518152602080840151908201528183015191810191909152606091820151918101919091529392505050565b60405163c87b56dd60e01b8152600481018290526060907f00000000000000000000000000000000000000000000000000000000000000006001600160a01b03169063c87b56dd90602401600060405180830381865afa1580156103df573d6000803e3d6000fd5b505050506040513d6000823e601f3d908101601f1916820160405261027c9190810190610976565b61040f610485565b6001600160a01b0381166104795760405162461bcd60e51b815260206004820152602660248201527f4f776e61626c653a206e6577206f776e657220697320746865207a65726f206160448201526564647265737360d01b60648201526084015b60405180910390fd5b610482816104df565b50565b6000546001600160a01b031633146102765760405162461bcd60e51b815260206004820181905260248201527f4f776e61626c653a2063616c6c6572206973206e6f7420746865206f776e65726044820152606401610470565b600080546001600160a01b038381166001600160a01b0319831681178455604051919092169283917f8be0079c531659141344cd1fd0a4f28419497f9722a3daafe3b4186f6b6457e09190a35050565b80356001600160a01b038116811461054657600080fd5b919050565b6000806040838503121561055e57600080fd5b6105678361052f565b91506105756020840161052f565b90509250929050565b60006020828403121561059057600080fd5b61017a8261052f565b60005b838110156105b457818101518382015260200161059c565b838111156105c3576000848401525b50505050565b600081518084526105e1816020860160208601610599565b601f01601f19169290920160200192915050565b60208152600082516060602084015261061160808401826105c9565b90506020840151601f198085840301604086015261062f83836105c9565b925060408601519150808584030160608601525061064d82826105c9565b95945050505050565b6020808252825182820181905260009190848201906040850190845b818110156106975783516001600160a01b031683529284019291840191600101610672565b50909695505050505050565b6020815260008251608060208401526106bf60a08401826105c9565b90506020840151601f19808584030160408601526106dd83836105c9565b925060408601519150808584030160608601526106fa83836105c9565b925060608601519150808584030160808601525061064d82826105c9565b60006020828403121561072a57600080fd5b5035919050565b60208152600061017a60208301846105c9565b634e487b7160e01b600052604160045260246000fd5b604051610100810167ffffffffffffffff8111828210171561077e5761077e610744565b60405290565b600082601f83011261079557600080fd5b815167ffffffffffffffff808211156107b0576107b0610744565b604051601f8301601f19908116603f011681019082821181831017156107d8576107d8610744565b816040528381528660208588010111156107f157600080fd5b610802846020830160208901610599565b9695505050505050565b60006020828403121561081e57600080fd5b815167ffffffffffffffff8082111561083657600080fd5b90830190610100828603121561084b57600080fd5b61085361075a565b82518281111561086257600080fd5b61086e87828601610784565b82525060208301518281111561088357600080fd5b61088f87828601610784565b6020830152506040830151828111156108a757600080fd5b6108b387828601610784565b6040830152506060830151828111156108cb57600080fd5b6108d787828601610784565b6060830152506080830151828111156108ef57600080fd5b6108fb87828601610784565b60808301525060a08301518281111561091357600080fd5b61091f87828601610784565b60a08301525060c08301518281111561093757600080fd5b61094387828601610784565b60c08301525060e08301518281111561095b57600080fd5b61096787828601610784565b60e08301525095945050505050565b60006020828403121561098857600080fd5b815167ffffffffffffffff81111561099f57600080fd5b6109ab84828501610784565b94935050505056fea2646970667358221220c68494767339b087527cbe8dc01abd41f8702b71309e7f5b9edf5aaae7b09a0964736f6c634300080f0033",
  "linkReferences": {},
  "deployedLinkReferences": {}
}