{
  "_format": "hh-sol-artifact-1",
  "contractName": "Notary",
  "sourceName": "contracts/Notary/Notary.sol",
  "abi": [
    {
      "inputs": [
        {
          "internalType": "address",
          "name": "_citizenAlpha_",
          "type": "address"
        },
        {
          "internalType": "address[]",
          "name": "_notaries",
          "type": "address[]"
        }
      ],
      "stateMutability": "nonpayable",
      "type": "constructor"
    },
    {
      "anonymous": false,
      "inputs": [
        {
          "indexed": true,
          "internalType": "bytes32",
          "name": "role",
          "type": "bytes32"
        },
        {
          "indexed": true,
          "internalType": "bytes32",
          "name": "previousAdminRole",
          "type": "bytes32"
        },
        {
          "indexed": true,
          "internalType": "bytes32",
          "name": "newAdminRole",
          "type": "bytes32"
        }
      ],
      "name": "RoleAdminChanged",
      "type": "event"
    },
    {
      "anonymous": false,
      "inputs": [
        {
          "indexed": true,
          "internalType": "bytes32",
          "name": "role",
          "type": "bytes32"
        },
        {
          "indexed": true,
          "internalType": "address",
          "name": "account",
          "type": "address"
        },
        {
          "indexed": true,
          "internalType": "address",
          "name": "sender",
          "type": "address"
        }
      ],
      "name": "RoleGranted",
      "type": "event"
    },
    {
      "anonymous": false,
      "inputs": [
        {
          "indexed": true,
          "internalType": "bytes32",
          "name": "role",
          "type": "bytes32"
        },
        {
          "indexed": true,
          "internalType": "address",
          "name": "account",
          "type": "address"
        },
        {
          "indexed": true,
          "internalType": "address",
          "name": "sender",
          "type": "address"
        }
      ],
      "name": "RoleRevoked",
      "type": "event"
    },
    {
      "inputs": [],
      "name": "DEFAULT_ADMIN_ROLE",
      "outputs": [
        {
          "internalType": "bytes32",
          "name": "",
          "type": "bytes32"
        }
      ],
      "stateMutability": "view",
      "type": "function"
    },
    {
      "inputs": [],
      "name": "getCitizenAlpha",
      "outputs": [
        {
          "internalType": "address",
          "name": "",
          "type": "address"
        }
      ],
      "stateMutability": "view",
      "type": "function"
    },
    {
      "inputs": [
        {
          "internalType": "bytes32",
          "name": "role",
          "type": "bytes32"
        }
      ],
      "name": "getRoleAdmin",
      "outputs": [
        {
          "internalType": "bytes32",
          "name": "",
          "type": "bytes32"
        }
      ],
      "stateMutability": "view",
      "type": "function"
    },
    {
      "inputs": [
        {
          "internalType": "bytes32",
          "name": "role",
          "type": "bytes32"
        },
        {
          "internalType": "address",
          "name": "account",
          "type": "address"
        }
      ],
      "name": "grantRole",
      "outputs": [],
      "stateMutability": "nonpayable",
      "type": "function"
    },
    {
      "inputs": [
        {
          "internalType": "bytes32",
          "name": "role",
          "type": "bytes32"
        },
        {
          "internalType": "address",
          "name": "account",
          "type": "address"
        }
      ],
      "name": "hasRole",
      "outputs": [
        {
          "internalType": "bool",
          "name": "",
          "type": "bool"
        }
      ],
      "stateMutability": "view",
      "type": "function"
    },
    {
      "inputs": [
        {
          "internalType": "address",
          "name": "citizen",
          "type": "address"
        }
      ],
      "name": "isNotary",
      "outputs": [
        {
          "internalType": "bool",
          "name": "status",
          "type": "bool"
        }
      ],
      "stateMutability": "view",
      "type": "function"
    },
    {
      "inputs": [
        {
          "internalType": "address",
          "name": "to",
          "type": "address"
        }
      ],
      "name": "issue",
      "outputs": [],
      "stateMutability": "nonpayable",
      "type": "function"
    },
    {
      "inputs": [
        {
          "internalType": "address[]",
          "name": "to",
          "type": "address[]"
        }
      ],
      "name": "issueBatch",
      "outputs": [],
      "stateMutability": "nonpayable",
      "type": "function"
    },
    {
      "inputs": [
        {
          "internalType": "bytes32",
          "name": "role",
          "type": "bytes32"
        },
        {
          "internalType": "address",
          "name": "account",
          "type": "address"
        }
      ],
      "name": "renounceRole",
      "outputs": [],
      "stateMutability": "nonpayable",
      "type": "function"
    },
    {
      "inputs": [
        {
          "internalType": "address",
          "name": "from",
          "type": "address"
        }
      ],
      "name": "revoke",
      "outputs": [],
      "stateMutability": "nonpayable",
      "type": "function"
    },
    {
      "inputs": [
        {
          "internalType": "address[]",
          "name": "from",
          "type": "address[]"
        }
      ],
      "name": "revokeBatch",
      "outputs": [],
      "stateMutability": "nonpayable",
      "type": "function"
    },
    {
      "inputs": [
        {
          "internalType": "bytes32",
          "name": "role",
          "type": "bytes32"
        },
        {
          "internalType": "address",
          "name": "account",
          "type": "address"
        }
      ],
      "name": "revokeRole",
      "outputs": [],
      "stateMutability": "nonpayable",
      "type": "function"
    },
    {
      "inputs": [
        {
          "internalType": "bytes4",
          "name": "interfaceId",
          "type": "bytes4"
        }
      ],
      "name": "supportsInterface",
      "outputs": [
        {
          "internalType": "bool",
          "name": "",
          "type": "bool"
        }
      ],
      "stateMutability": "view",
      "type": "function"
    }
  ],
  "bytecode": "0x60806040523480156200001157600080fd5b5060405162000f1238038062000f12833981016040819052620000349162000239565b600180546001600160a01b0319166001600160a01b0384161790556200006a60008051602062000ef2833981519152306200010b565b60005b8151811015620000e657620000a86000801b83838151811062000094576200009462000322565b60200260200101516200010b60201b60201c565b620000d160008051602062000ef283398151915283838151811062000094576200009462000322565b80620000dd8162000338565b9150506200006d565b506200010360008051602062000ef283398151915260006200011b565b505062000360565b62000117828262000166565b5050565b600082815260208190526040808220600101805490849055905190918391839186917fbd79b86ffe0ab8e8776151514217cd7cacd52c909f66475c3af44e129f0b00ff9190a4505050565b6000828152602081815260408083206001600160a01b038516845290915290205460ff1662000117576000828152602081815260408083206001600160a01b03851684529091529020805460ff19166001179055620001c23390565b6001600160a01b0316816001600160a01b0316837f2f8788117e7eff1d82e926ec794901d17c78024a50270940304540a733656f0d60405160405180910390a45050565b80516001600160a01b03811681146200021e57600080fd5b919050565b634e487b7160e01b600052604160045260246000fd5b600080604083850312156200024d57600080fd5b620002588362000206565b602084810151919350906001600160401b03808211156200027857600080fd5b818601915086601f8301126200028d57600080fd5b815181811115620002a257620002a262000223565b8060051b604051601f19603f83011681018181108582111715620002ca57620002ca62000223565b604052918252848201925083810185019189831115620002e957600080fd5b938501935b828510156200031257620003028562000206565b84529385019392850192620002ee565b8096505050505050509250929050565b634e487b7160e01b600052603260045260246000fd5b6000600182016200035957634e487b7160e01b600052601160045260246000fd5b5060010190565b610b8280620003706000396000f3fe608060405234801561001057600080fd5b50600436106100cf5760003560e01c806374a8f1031161008c578063d389c6a211610066578063d389c6a2146101a9578063d547741f146101bc578063e6b92bbc146101cf578063f13eed97146101ea57600080fd5b806374a8f1031461017b57806391d148541461018e578063a217fddf146101a157600080fd5b806301ffc9a7146100d4578063055e3e5e146100fc578063248a9ca3146101115780632f2ff15d1461014257806336568abe1461015557806371e928af14610168575b600080fd5b6100e76100e2366004610859565b6101fd565b60405190151581526020015b60405180910390f35b61010f61010a366004610883565b610234565b005b61013461011f3660046108f8565b60009081526020819052604090206001015490565b6040519081526020016100f3565b61010f61015036600461092d565b6102c2565b61010f61016336600461092d565b6102e7565b61010f610176366004610959565b610365565b61010f610189366004610959565b6103a5565b6100e761019c36600461092d565b6103e2565b610134600081565b61010f6101b7366004610883565b61040b565b61010f6101ca36600461092d565b61048b565b6001546040516001600160a01b0390911681526020016100f3565b6100e76101f8366004610959565b6104b0565b60006001600160e01b03198216637965db0b60e01b148061022e57506301ffc9a760e01b6001600160e01b03198316145b92915050565b61024c600080516020610b2d833981519152336103e2565b6102715760405162461bcd60e51b815260040161026890610974565b60405180910390fd5b60005b818110156102bd576102ab838383818110610291576102916109ab565b90506020020160208101906102a69190610959565b6104ca565b806102b5816109d7565b915050610274565b505050565b6000828152602081905260409020600101546102dd8161052d565b6102bd8383610537565b6001600160a01b03811633146103575760405162461bcd60e51b815260206004820152602f60248201527f416363657373436f6e74726f6c3a2063616e206f6e6c792072656e6f756e636560448201526e103937b632b9903337b91039b2b63360891b6064820152608401610268565b61036182826105bb565b5050565b61037d600080516020610b2d833981519152336103e2565b6103995760405162461bcd60e51b815260040161026890610974565b6103a281610620565b50565b6103bd600080516020610b2d833981519152336103e2565b6103d95760405162461bcd60e51b815260040161026890610974565b6103a2816104ca565b6000918252602082815260408084206001600160a01b0393909316845291905290205460ff1690565b610423600080516020610b2d833981519152336103e2565b61043f5760405162461bcd60e51b815260040161026890610974565b60005b818110156102bd5761047983838381811061045f5761045f6109ab565b90506020020160208101906104749190610959565b610620565b80610483816109d7565b915050610442565b6000828152602081905260409020600101546104a68161052d565b6102bd83836105bb565b600061022e600080516020610b2d833981519152836103e2565b6001546040516374a8f10360e01b81526001600160a01b038381166004830152909116906374a8f103906024015b600060405180830381600087803b15801561051257600080fd5b505af1158015610526573d6000803e3d6000fd5b5050505050565b6103a28133610652565b61054182826103e2565b610361576000828152602081815260408083206001600160a01b03851684529091529020805460ff191660011790556105773390565b6001600160a01b0316816001600160a01b0316837f2f8788117e7eff1d82e926ec794901d17c78024a50270940304540a733656f0d60405160405180910390a45050565b6105c582826103e2565b15610361576000828152602081815260408083206001600160a01b0385168085529252808320805460ff1916905551339285917ff6391f5c32d9c69d2a47ea670b442974b53935d1edc7fd64eb21e047a839171b9190a45050565b6001546040516371e928af60e01b81526001600160a01b038381166004830152909116906371e928af906024016104f8565b61065c82826103e2565b61036157610674816001600160a01b031660146106b6565b61067f8360206106b6565b604051602001610690929190610a20565b60408051601f198184030181529082905262461bcd60e51b825261026891600401610a95565b606060006106c5836002610ac8565b6106d0906002610ae7565b67ffffffffffffffff8111156106e8576106e8610aff565b6040519080825280601f01601f191660200182016040528015610712576020820181803683370190505b509050600360fc1b8160008151811061072d5761072d6109ab565b60200101906001600160f81b031916908160001a905350600f60fb1b8160018151811061075c5761075c6109ab565b60200101906001600160f81b031916908160001a9053506000610780846002610ac8565b61078b906001610ae7565b90505b6001811115610803576f181899199a1a9b1b9c1cb0b131b232b360811b85600f16601081106107bf576107bf6109ab565b1a60f81b8282815181106107d5576107d56109ab565b60200101906001600160f81b031916908160001a90535060049490941c936107fc81610b15565b905061078e565b5083156108525760405162461bcd60e51b815260206004820181905260248201527f537472696e67733a20686578206c656e67746820696e73756666696369656e746044820152606401610268565b9392505050565b60006020828403121561086b57600080fd5b81356001600160e01b03198116811461085257600080fd5b6000806020838503121561089657600080fd5b823567ffffffffffffffff808211156108ae57600080fd5b818501915085601f8301126108c257600080fd5b8135818111156108d157600080fd5b8660208260051b85010111156108e657600080fd5b60209290920196919550909350505050565b60006020828403121561090a57600080fd5b5035919050565b80356001600160a01b038116811461092857600080fd5b919050565b6000806040838503121561094057600080fd5b8235915061095060208401610911565b90509250929050565b60006020828403121561096b57600080fd5b61085282610911565b6020808252601a908201527f4e6f746172793a756e617574686f72697a65642d616363657373000000000000604082015260600190565b634e487b7160e01b600052603260045260246000fd5b634e487b7160e01b600052601160045260246000fd5b6000600182016109e9576109e96109c1565b5060010190565b60005b83811015610a0b5781810151838201526020016109f3565b83811115610a1a576000848401525b50505050565b7f416363657373436f6e74726f6c3a206163636f756e7420000000000000000000815260008351610a588160178501602088016109f0565b7001034b99036b4b9b9b4b733903937b6329607d1b6017918401918201528351610a898160288401602088016109f0565b01602801949350505050565b6020815260008251806020840152610ab48160408501602087016109f0565b601f01601f19169190910160400192915050565b6000816000190483118215151615610ae257610ae26109c1565b500290565b60008219821115610afa57610afa6109c1565b500190565b634e487b7160e01b600052604160045260246000fd5b600081610b2457610b246109c1565b50600019019056fe82dc1ec5ffcc1ce66f6c1c31b0ec106422173af966c099db66124841894b3c8aa2646970667358221220ebd06f8f469275ff7a0f18f4539e7248c5cf1360e810d53de79e1f44021f199164736f6c634300080f003382dc1ec5ffcc1ce66f6c1c31b0ec106422173af966c099db66124841894b3c8a",
  "linkReferences": {},
  "deployedLinkReferences": {}
}