{
  "address": "0x804305c203D26ce11cb124FDBdf58e3FC1788f29",
  "abi": [
    {
      "inputs": [
        {
          "internalType": "address",
          "name": "_metadata_",
          "type": "address"
        }
      ],
      "stateMutability": "nonpayable",
      "type": "constructor"
    },
    {
      "inputs": [
        {
          "internalType": "address",
          "name": "metadata_",
          "type": "address"
        },
        {
          "internalType": "string",
          "name": "name_",
          "type": "string"
        },
        {
          "internalType": "string",
          "name": "symbol_",
          "type": "string"
        },
        {
          "internalType": "address[]",
          "name": "founders",
          "type": "address[]"
        }
      ],
      "name": "deployCitizenship",
      "outputs": [
        {
          "internalType": "contract CitizenAlpha",
          "name": "",
          "type": "address"
        }
      ],
      "stateMutability": "nonpayable",
      "type": "function"
    },
    {
      "inputs": [
        {
          "internalType": "string",
          "name": "name",
          "type": "string"
        },
        {
          "internalType": "string",
          "name": "symbol",
          "type": "string"
        },
        {
          "internalType": "address",
          "name": "citizenAlpha",
          "type": "address"
        },
        {
          "internalType": "address[]",
          "name": "founders",
          "type": "address[]"
        }
      ],
      "name": "deployNation",
      "outputs": [
        {
          "internalType": "address",
          "name": "",
          "type": "address"
        }
      ],
      "stateMutability": "nonpayable",
      "type": "function"
    },
    {
      "inputs": [
        {
          "internalType": "address",
          "name": "_citizenAlpha_",
          "type": "address"
        },
        {
          "internalType": "address[]",
          "name": "notaries",
          "type": "address[]"
        }
      ],
      "name": "deployNotary",
      "outputs": [
        {
          "internalType": "address",
          "name": "",
          "type": "address"
        }
      ],
      "stateMutability": "nonpayable",
      "type": "function"
    },
    {
      "inputs": [],
      "name": "getCitizenshipCount",
      "outputs": [
        {
          "internalType": "uint256",
          "name": "count",
          "type": "uint256"
        }
      ],
      "stateMutability": "view",
      "type": "function"
    },
    {
      "inputs": [],
      "name": "getCitizenships",
      "outputs": [
        {
          "internalType": "address[]",
          "name": "citizenships",
          "type": "address[]"
        }
      ],
      "stateMutability": "view",
      "type": "function"
    },
    {
      "inputs": [],
      "name": "getNationCount",
      "outputs": [
        {
          "internalType": "uint256",
          "name": "count",
          "type": "uint256"
        }
      ],
      "stateMutability": "view",
      "type": "function"
    },
    {
      "inputs": [],
      "name": "getNations",
      "outputs": [
        {
          "internalType": "address[]",
          "name": "nations",
          "type": "address[]"
        }
      ],
      "stateMutability": "view",
      "type": "function"
    },
    {
      "inputs": [],
      "name": "getNotaries",
      "outputs": [
        {
          "internalType": "address[]",
          "name": "notaries",
          "type": "address[]"
        }
      ],
      "stateMutability": "view",
      "type": "function"
    },
    {
      "inputs": [],
      "name": "getNotaryCount",
      "outputs": [
        {
          "internalType": "uint256",
          "name": "count",
          "type": "uint256"
        }
      ],
      "stateMutability": "view",
      "type": "function"
    },
    {
      "inputs": [
        {
          "internalType": "string",
          "name": "name",
          "type": "string"
        },
        {
          "internalType": "string",
          "name": "symbol",
          "type": "string"
        },
        {
          "internalType": "string",
          "name": "nationName",
          "type": "string"
        },
        {
          "internalType": "string",
          "name": "nationSymbol",
          "type": "string"
        },
        {
          "internalType": "address[]",
          "name": "founders",
          "type": "address[]"
        }
      ],
      "name": "setupDemocracy",
      "outputs": [],
      "stateMutability": "nonpayable",
      "type": "function"
    }
  ],
  "transactionHash": "0xa0c48f1bb0bef4af06559be5bb3ebe51ee2874ca39ebc7e55b711002c16ff419",
  "args": [
    "0x0156a3d673EfDdDab6A13d09dD311036554fA6BF"
  ],
  "numDeployments": 3,
  "solcInputHash": "e3a87c3b77886dd67814dcbca5b97b8a",
  "bytecode": "0x608060405234801561001057600080fd5b50604051615f3a380380615f3a83398101604081905261002f91610054565b600080546001600160a01b0319166001600160a01b0392909216919091179055610084565b60006020828403121561006657600080fd5b81516001600160a01b038116811461007d57600080fd5b9392505050565b615ea7806100936000396000f3fe60806040523480156200001157600080fd5b5060043610620000ab5760003560e01c80639e2122ba116200006e5780639e2122ba146200013e578063a4ac4aec1462000147578063aaf34b941462000160578063d5a2a5dd146200013e578063e0f9ba96146200016a57600080fd5b8063335fc3b414620000b0578063488558b214620000e4578063510c7b2f14620000fb57806362386c7b146200010e5780638ff190801462000125575b600080fd5b620000c7620000c13660046200064c565b62000174565b6040516001600160a01b0390911681526020015b60405180910390f35b620000c7620000f5366004620006f8565b6200020e565b6003545b604051908152602001620000db565b620000c76200011f3660046200076d565b620002a7565b6200013c62000136366004620007c6565b6200033b565b005b600254620000ff565b62000151620003e3565b604051620000db9190620008ae565b6200015162000447565b62000151620004a9565b60008086868686866040516200018a906200050b565b6200019a95949392919062000998565b604051809103906000f080158015620001b7573d6000803e3d6000fd5b50600280546001810182556000919091527f405787fa12a823e0f2b7631cc41b3ba8828b3321ca811111fa75cd3aa3bb5ace0180546001600160a01b0319166001600160a01b038316179055979650505050505050565b6000808686868686604051620002249062000519565b62000234959493929190620009f3565b604051809103906000f08015801562000251573d6000803e3d6000fd5b506001805480820182556000919091527fb10e2d527612073b26eecdfd717e6a320cf44b4afac2b0732d9fcbe2b7fa0cf60180546001600160a01b0319166001600160a01b038316179055979650505050505050565b600080848484604051620002bb9062000527565b620002c99392919062000a44565b604051809103906000f080158015620002e6573d6000803e3d6000fd5b50600380546001810182556000919091527fc2575a0e9e593c00f959f8c92f12db2869c3395a3b0502d05e2516446f71f85b0180546001600160a01b0319166001600160a01b03831617905595945050505050565b6000805462000357906001600160a01b0316888886866200020e565b905062000368858583868662000174565b50600062000378828585620002a7565b6040516351ca507360e11b81526001600160a01b0380831660048301529192509083169063a394a0e690602401600060405180830381600087803b158015620003c057600080fd5b505af1158015620003d5573d6000803e3d6000fd5b505050505050505050505050565b606060018054806020026020016040519081016040528092919081815260200182805480156200043d57602002820191906000526020600020905b81546001600160a01b031681526001909101906020018083116200041e575b5050505050905090565b606060038054806020026020016040519081016040528092919081815260200182805480156200043d576020028201919060005260206000209081546001600160a01b031681526001909101906020018083116200041e575050505050905090565b606060028054806020026020016040519081016040528092919081815260200182805480156200043d576020028201919060005260206000209081546001600160a01b031681526001909101906020018083116200041e575050505050905090565b611fc78062000a7583390190565b61258c8062002a3c83390190565b610eaa8062004fc883390190565b634e487b7160e01b600052604160045260246000fd5b600082601f8301126200055d57600080fd5b813567ffffffffffffffff808211156200057b576200057b62000535565b604051601f8301601f19908116603f01168101908282118183101715620005a657620005a662000535565b81604052838152866020858801011115620005c057600080fd5b836020870160208301376000602085830101528094505050505092915050565b80356001600160a01b0381168114620005f857600080fd5b919050565b60008083601f8401126200061057600080fd5b50813567ffffffffffffffff8111156200062957600080fd5b6020830191508360208260051b85010111156200064557600080fd5b9250929050565b6000806000806000608086880312156200066557600080fd5b853567ffffffffffffffff808211156200067e57600080fd5b6200068c89838a016200054b565b96506020880135915080821115620006a357600080fd5b620006b189838a016200054b565b9550620006c160408901620005e0565b94506060880135915080821115620006d857600080fd5b50620006e788828901620005fd565b969995985093965092949392505050565b6000806000806000608086880312156200071157600080fd5b6200071c86620005e0565b9450602086013567ffffffffffffffff808211156200073a57600080fd5b6200074889838a016200054b565b955060408801359150808211156200075f57600080fd5b620006c189838a016200054b565b6000806000604084860312156200078357600080fd5b6200078e84620005e0565b9250602084013567ffffffffffffffff811115620007ab57600080fd5b620007b986828701620005fd565b9497909650939450505050565b60008060008060008060a08789031215620007e057600080fd5b863567ffffffffffffffff80821115620007f957600080fd5b620008078a838b016200054b565b975060208901359150808211156200081e57600080fd5b6200082c8a838b016200054b565b965060408901359150808211156200084357600080fd5b620008518a838b016200054b565b955060608901359150808211156200086857600080fd5b620008768a838b016200054b565b945060808901359150808211156200088d57600080fd5b506200089c89828a01620005fd565b979a9699509497509295939492505050565b6020808252825182820181905260009190848201906040850190845b81811015620008f15783516001600160a01b031683529284019291840191600101620008ca565b50909695505050505050565b6000815180845260005b81811015620009255760208185018101518683018201520162000907565b8181111562000938576000602083870101525b50601f01601f19169290920160200192915050565b8183526000602080850194508260005b858110156200098d576001600160a01b036200097983620005e0565b16875295820195908201906001016200095d565b509495945050505050565b608081526000620009ad6080830188620008fd565b8281036020840152620009c18188620008fd565b6001600160a01b038716604085015283810360608501529050620009e78185876200094d565b98975050505050505050565b6001600160a01b038616815260806020820181905260009062000a1990830187620008fd565b828103604084015262000a2d8187620008fd565b90508281036060840152620009e78185876200094d565b6001600160a01b038416815260406020820181905260009062000a6b90830184866200094d565b9594505050505056fe60806040523480156200001157600080fd5b5060405162001fc738038062001fc7833981016040819052620000349162000505565b6002620000428582620006aa565b506003620000518482620006aa565b50600580546001600160a01b0319166001600160a01b03841617905560066020527f5beac58aad0c637879eba9673a3539c90e0177d6d0b5496bd46b465d769e6341805460ff1990811660019081179092557f609910be899f2b1215d939c765c51150bb77ff3c25e65539c171a28601363a53805482168317905560008080527f54cdd369e4e8a8515e52ca72ec816c2101831ad1f18bf44102ed171459c9b4f8805490921690921790555b8151811015620001745762000142662327aaa72222a960c91b60001b8383815181106200012e576200012e62000776565b60200260200101516200019660201b60201c565b6200015f6000801b8383815181106200012e576200012e62000776565b806200016b816200078c565b915050620000fd565b506200018c662327aaa72222a960c91b6000620001a6565b50505050620007df565b620001a28282620001f1565b5050565b600082815260208190526040808220600101805490849055905190918391839186917fbd79b86ffe0ab8e8776151514217cd7cacd52c909f66475c3af44e129f0b00ff9190a4505050565b6200020882826200023460201b62000d611760201c565b60008281526001602090815260409091206200022f91839062000de5620002bc821b17901c565b505050565b620002408282620002dc565b620001a2576000828152602081815260408083206001600160a01b03851684529091529020805460ff19166001179055620002783390565b6001600160a01b0316816001600160a01b0316837f2f8788117e7eff1d82e926ec794901d17c78024a50270940304540a733656f0d60405160405180910390a45050565b6000620002d3836001600160a01b0384166200038f565b90505b92915050565b60008281526006602052604081205460ff16158062000369575060055460405163f3caad0360e01b81526001600160a01b0384811660048301529091169063f3caad0390602401602060405180830381865afa15801562000341573d6000803e3d6000fd5b505050506040513d601f19601f82011682018060405250810190620003679190620007b4565b155b156200037857506000620002d6565b620002d38383620003e160201b62000dfa1760201c565b6000818152600183016020526040812054620003d857508154600181810184556000848152602080822090930184905584548482528286019093526040902091909155620002d6565b506000620002d6565b6000918252602082815260408084206001600160a01b0393909316845291905290205460ff1690565b634e487b7160e01b600052604160045260246000fd5b604051601f8201601f191681016001600160401b03811182821017156200044b576200044b6200040a565b604052919050565b600082601f8301126200046557600080fd5b81516001600160401b038111156200048157620004816200040a565b602062000497601f8301601f1916820162000420565b8281528582848701011115620004ac57600080fd5b60005b83811015620004cc578581018301518282018401528201620004af565b83811115620004de5760008385840101525b5095945050505050565b80516001600160a01b03811681146200050057600080fd5b919050565b600080600080608085870312156200051c57600080fd5b84516001600160401b03808211156200053457600080fd5b620005428883890162000453565b95506020915081870151818111156200055a57600080fd5b6200056889828a0162000453565b9550506200057960408801620004e8565b93506060870151818111156200058e57600080fd5b8701601f81018913620005a057600080fd5b805182811115620005b557620005b56200040a565b8060051b9250620005c884840162000420565b818152928201840192848101908b851115620005e357600080fd5b928501925b848410156200060c57620005fc84620004e8565b82529285019290850190620005e8565b989b979a50959850505050505050565b600181811c908216806200063157607f821691505b6020821081036200065257634e487b7160e01b600052602260045260246000fd5b50919050565b601f8211156200022f57600081815260208120601f850160051c81016020861015620006815750805b601f850160051c820191505b81811015620006a2578281556001016200068d565b505050505050565b81516001600160401b03811115620006c657620006c66200040a565b620006de81620006d784546200061c565b8462000658565b602080601f831160018114620007165760008415620006fd5750858301515b600019600386901b1c1916600185901b178555620006a2565b600085815260208120601f198616915b82811015620007475788860151825594840194600190910190840162000726565b5085821015620007665787850151600019600388901b60f8161c191681555b5050505050600190811b01905550565b634e487b7160e01b600052603260045260246000fd5b600060018201620007ad57634e487b7160e01b600052601160045260246000fd5b5060010190565b600060208284031215620007c757600080fd5b81518015158114620007d857600080fd5b9392505050565b6117d880620007ef6000396000f3fe608060405234801561001057600080fd5b50600436106101735760003560e01c806395d89b41116100de578063d547741f11610097578063e6b92bbc11610071578063e6b92bbc14610354578063e6fcc84b14610365578063eb7f494d1461036d578063ffa629a31461038057600080fd5b8063d547741f1461031b578063dee1f0e41461032e578063e39d127a1461034157600080fd5b806395d89b41146102bf578063a217fddf146102c7578063b84c8246146102cf578063c47f0027146102e2578063c7b57841146102f5578063ca15c8731461030857600080fd5b806336568abe1161013057806336568abe14610231578063392f37e9146102445780637c4a13b11461025b578063870725221461026e5780639010d07c1461028157806391d14854146102ac57600080fd5b806301ffc9a71461017857806306fdde03146101a05780631e4e0091146101b5578063248a9ca3146101ca5780632da74d8c146101fb5780632f2ff15d1461021e575b600080fd5b61018b6101863660046112f0565b610393565b60405190151581526020015b60405180910390f35b6101a86103be565b6040516101979190611372565b6101c86101c3366004611385565b610450565b005b6101ed6101d83660046113a7565b60009081526020819052604090206001015490565b604051908152602001610197565b61018b6102093660046113a7565b60009081526006602052604090205460ff1690565b6101c861022c3660046113dc565b6104ad565b6101c861023f3660046113dc565b61057d565b61024c6105fb565b60405161019793929190611408565b6101c86102693660046113a7565b6107b5565b6101c861027c366004611385565b610878565b61029461028f366004611385565b610939565b6040516001600160a01b039091168152602001610197565b61018b6102ba3660046113dc565b610958565b6101a86109f8565b6101ed600081565b6101c86102dd36600461144b565b610a07565b6101c86102f036600461144b565b610a59565b61018b6103033660046114bd565b610aab565b6101ed6103163660046113a7565b610ac1565b6101c86103293660046113dc565b610ad8565b61018b61033c3660046114bd565b610be6565b6101c861034f36600461144b565b610bff565b6005546001600160a01b0316610294565b6101a8610c51565b6101c861037b3660046113a7565b610c60565b6101c861038e3660046114bd565b610cf9565b60006001600160e01b03198216635a05180f60e01b14806103b857506103b882610e23565b92915050565b6060600280546103cd906114d8565b80601f01602080910402602001604051908101604052809291908181526020018280546103f9906114d8565b80156104465780601f1061041b57610100808354040283529160200191610446565b820191906000526020600020905b81548152906001019060200180831161042957829003601f168201915b5050505050905090565b3361046869474f5645524e414e434560b01b82610958565b806104795750610479600082610958565b61049e5760405162461bcd60e51b815260040161049590611512565b60405180910390fd5b6104a88383610e58565b505050565b600082815260208190526040902060010154829033906104ce905b82610958565b806104eb57506104eb69474f5645524e414e434560b01b82610958565b806104fc57506104fc600082610958565b6105185760405162461bcd60e51b815260040161049590611512565b60008481526006602052604090205460ff1661056d5760405162461bcd60e51b81526020600482015260146024820152734e6174696f6e3a696e6163746976652d726f6c6560601b6044820152606401610495565b6105778484610ea3565b50505050565b6001600160a01b03811633146105ed5760405162461bcd60e51b815260206004820152602f60248201527f416363657373436f6e74726f6c3a2063616e206f6e6c792072656e6f756e636560448201526e103937b632b9903337b91039b2b63360891b6064820152608401610495565b6105f78282610ec5565b5050565b6060806060600260036004828054610612906114d8565b80601f016020809104026020016040519081016040528092919081815260200182805461063e906114d8565b801561068b5780601f106106605761010080835404028352916020019161068b565b820191906000526020600020905b81548152906001019060200180831161066e57829003601f168201915b5050505050925081805461069e906114d8565b80601f01602080910402602001604051908101604052809291908181526020018280546106ca906114d8565b80156107175780601f106106ec57610100808354040283529160200191610717565b820191906000526020600020905b8154815290600101906020018083116106fa57829003601f168201915b5050505050915080805461072a906114d8565b80601f0160208091040260200160405190810160405280929190818152602001828054610756906114d8565b80156107a35780601f10610778576101008083540402835291602001916107a3565b820191906000526020600020905b81548152906001019060200180831161078657829003601f168201915b50505050509050925092509250909192565b336107cd69474f5645524e414e434560b01b82610958565b806107de57506107de600082610958565b6107fa5760405162461bcd60e51b815260040161049590611512565b60008281526006602052604090205460ff1615156001146108545760405162461bcd60e51b815260206004820152601460248201527313985d1a5bdb8e9c9bdb194b591a5cd8589b195960621b6044820152606401610495565b61085f826000610e58565b506000908152600660205260409020805460ff19169055565b3361089069474f5645524e414e434560b01b82610958565b806108a157506108a1600082610958565b6108bd5760405162461bcd60e51b815260040161049590611512565b60008381526006602052604090205460ff16156109125760405162461bcd60e51b815260206004820152601360248201527213985d1a5bdb8e9c9bdb194b595b98589b1959606a1b6044820152606401610495565b61091c8383610e58565b50506000908152600660205260409020805460ff19166001179055565b60008281526001602052604081206109519083610ee7565b9392505050565b60008281526006602052604081205460ff1615806109e1575060055460405163f3caad0360e01b81526001600160a01b0384811660048301529091169063f3caad0390602401602060405180830381865afa1580156109bb573d6000803e3d6000fd5b505050506040513d601f19601f820116820180604052508101906109df919061153f565b155b156109ee575060006103b8565b6109518383610dfa565b6060600380546103cd906114d8565b33610a1f69474f5645524e414e434560b01b82610958565b80610a305750610a30600082610958565b610a4c5760405162461bcd60e51b815260040161049590611512565b60036105778385836115c5565b33610a7169474f5645524e414e434560b01b82610958565b80610a825750610a82600082610958565b610a9e5760405162461bcd60e51b815260040161049590611512565b60026105778385836115c5565b60006103b8662327aaa72222a960c91b83610958565b60008181526001602052604081206103b890610ef3565b60008281526020819052604090206001015482903390610af7906104c8565b80610b145750610b1469474f5645524e414e434560b01b82610958565b80610b255750610b25600082610958565b610b415760405162461bcd60e51b815260040161049590611512565b83610b875760405162461bcd60e51b815260206004820152601660248201527513985d1a5bdb8e9a5b9d985b1a590b5c995c5d595cdd60521b6044820152606401610495565b60008481526006602052604090205460ff16610bdc5760405162461bcd60e51b81526020600482015260146024820152734e6174696f6e3a696e6163746976652d726f6c6560601b6044820152606401610495565b6105778484610ec5565b60006103b869474f5645524e414e434560b01b83610958565b33610c1769474f5645524e414e434560b01b82610958565b80610c285750610c28600082610958565b610c445760405162461bcd60e51b815260040161049590611512565b60046105778385836115c5565b6060600480546103cd906114d8565b662327aaa72222a960c91b610c7481610efd565b60008281526006602052604090205460ff1615610cc95760405162461bcd60e51b815260206004820152601360248201527213985d1a5bdb8e9c9bdb194b595b98589b1959606a1b6044820152606401610495565b610cdd82662327aaa72222a960c91b610e58565b506000908152600660205260409020805460ff19166001179055565b33610d1169474f5645524e414e434560b01b82610958565b80610d225750610d22600082610958565b610d3e5760405162461bcd60e51b815260040161049590611512565b50600580546001600160a01b0319166001600160a01b0392909216919091179055565b610d6b8282610958565b6105f7576000828152602081815260408083206001600160a01b03851684529091529020805460ff19166001179055610da13390565b6001600160a01b0316816001600160a01b0316837f2f8788117e7eff1d82e926ec794901d17c78024a50270940304540a733656f0d60405160405180910390a45050565b6000610951836001600160a01b038416610f0a565b6000918252602082815260408084206001600160a01b0393909316845291905290205460ff1690565b60006001600160e01b03198216637965db0b60e01b14806103b857506301ffc9a760e01b6001600160e01b03198316146103b8565b600082815260208190526040808220600101805490849055905190918391839186917fbd79b86ffe0ab8e8776151514217cd7cacd52c909f66475c3af44e129f0b00ff9190a4505050565b610ead8282610d61565b60008281526001602052604090206104a89082610de5565b610ecf8282610f59565b60008281526001602052604090206104a89082610fbe565b60006109518383610fd3565b60006103b8825490565b610f078133610ffd565b50565b6000818152600183016020526040812054610f51575081546001818101845560008481526020808220909301849055845484825282860190935260409020919091556103b8565b5060006103b8565b610f638282610958565b156105f7576000828152602081815260408083206001600160a01b0385168085529252808320805460ff1916905551339285917ff6391f5c32d9c69d2a47ea670b442974b53935d1edc7fd64eb21e047a839171b9190a45050565b6000610951836001600160a01b038416611061565b6000826000018281548110610fea57610fea611686565b9060005260206000200154905092915050565b6110078282610958565b6105f75761101f816001600160a01b03166014611154565b61102a836020611154565b60405160200161103b92919061169c565b60408051601f198184030181529082905262461bcd60e51b825261049591600401611372565b6000818152600183016020526040812054801561114a576000611085600183611727565b855490915060009061109990600190611727565b90508181146110fe5760008660000182815481106110b9576110b9611686565b90600052602060002001549050808760000184815481106110dc576110dc611686565b6000918252602080832090910192909255918252600188019052604090208390555b855486908061110f5761110f61173e565b6001900381819060005260206000200160009055905585600101600086815260200190815260200160002060009055600193505050506103b8565b60009150506103b8565b60606000611163836002611754565b61116e906002611773565b67ffffffffffffffff81111561118657611186611561565b6040519080825280601f01601f1916602001820160405280156111b0576020820181803683370190505b509050600360fc1b816000815181106111cb576111cb611686565b60200101906001600160f81b031916908160001a905350600f60fb1b816001815181106111fa576111fa611686565b60200101906001600160f81b031916908160001a905350600061121e846002611754565b611229906001611773565b90505b60018111156112a1576f181899199a1a9b1b9c1cb0b131b232b360811b85600f166010811061125d5761125d611686565b1a60f81b82828151811061127357611273611686565b60200101906001600160f81b031916908160001a90535060049490941c9361129a8161178b565b905061122c565b5083156109515760405162461bcd60e51b815260206004820181905260248201527f537472696e67733a20686578206c656e67746820696e73756666696369656e746044820152606401610495565b60006020828403121561130257600080fd5b81356001600160e01b03198116811461095157600080fd5b60005b8381101561133557818101518382015260200161131d565b838111156105775750506000910152565b6000815180845261135e81602086016020860161131a565b601f01601f19169290920160200192915050565b6020815260006109516020830184611346565b6000806040838503121561139857600080fd5b50508035926020909101359150565b6000602082840312156113b957600080fd5b5035919050565b80356001600160a01b03811681146113d757600080fd5b919050565b600080604083850312156113ef57600080fd5b823591506113ff602084016113c0565b90509250929050565b60608152600061141b6060830186611346565b828103602084015261142d8186611346565b905082810360408401526114418185611346565b9695505050505050565b6000806020838503121561145e57600080fd5b823567ffffffffffffffff8082111561147657600080fd5b818501915085601f83011261148a57600080fd5b81358181111561149957600080fd5b8660208285010111156114ab57600080fd5b60209290920196919550909350505050565b6000602082840312156114cf57600080fd5b610951826113c0565b600181811c908216806114ec57607f821691505b60208210810361150c57634e487b7160e01b600052602260045260246000fd5b50919050565b60208082526013908201527213985d1a5bdb8e9d5b985d5d1a1bdc9a5e9959606a1b604082015260600190565b60006020828403121561155157600080fd5b8151801515811461095157600080fd5b634e487b7160e01b600052604160045260246000fd5b601f8211156104a857600081815260208120601f850160051c8101602086101561159e5750805b601f850160051c820191505b818110156115bd578281556001016115aa565b505050505050565b67ffffffffffffffff8311156115dd576115dd611561565b6115f1836115eb83546114d8565b83611577565b6000601f841160018114611625576000851561160d5750838201355b600019600387901b1c1916600186901b17835561167f565b600083815260209020601f19861690835b828110156116565786850135825560209485019460019092019101611636565b50868210156116735760001960f88860031b161c19848701351681555b505060018560011b0183555b5050505050565b634e487b7160e01b600052603260045260246000fd5b7f416363657373436f6e74726f6c3a206163636f756e74200000000000000000008152600083516116d481601785016020880161131a565b7001034b99036b4b9b9b4b733903937b6329607d1b601791840191820152835161170581602884016020880161131a565b01602801949350505050565b634e487b7160e01b600052601160045260246000fd5b60008282101561173957611739611711565b500390565b634e487b7160e01b600052603160045260246000fd5b600081600019048311821515161561176e5761176e611711565b500290565b6000821982111561178657611786611711565b500190565b60008161179a5761179a611711565b50600019019056fea2646970667358221220a41bf02dda386a73dc764e0099e7751d03e6a1a0e44c9ee35a4f95c726f77d9764736f6c634300080f003360806040523480156200001157600080fd5b506040516200258c3803806200258c83398101604081905262000034916200043b565b82826000620000448382620005e6565b506001620000538282620005e6565b505050620000706200006a620000e760201b60201c565b620000eb565b600880546001600160a01b0319166001600160a01b03861617905560005b8151811015620000dc57620000c7828281518110620000b157620000b1620006b2565b602002602001015160006200013d60201b60201c565b80620000d381620006de565b9150506200008e565b505050505062000715565b3390565b600680546001600160a01b038381166001600160a01b0319831681179093556040519116919082907f8be0079c531659141344cd1fd0a4f28419497f9722a3daafe3b4186f6b6457e090600090a35050565b60078054600091826200015083620006de565b909155506001600160a01b038481166000908152600c6020908152604080832080546001600160a01b03191694881694909417909355600b90522081905590506200019c8382620001ef565b816001600160a01b0316836001600160a01b03167f7533f62ec6601bf9c87f8d96bf756b4b495e2a0e26ec9284e4927926ed6b3afd83604051620001e291815260200190565b60405180910390a3505050565b6001600160a01b0382166200024b5760405162461bcd60e51b815260206004820181905260248201527f4552433732313a206d696e7420746f20746865207a65726f206164647265737360448201526064015b60405180910390fd5b6000818152600260205260409020546001600160a01b031615620002b25760405162461bcd60e51b815260206004820152601c60248201527f4552433732313a20746f6b656e20616c7265616479206d696e74656400000000604482015260640162000242565b6001600160a01b0382166000908152600360205260408120805460019290620002dd908490620006fa565b909155505060008181526002602052604080822080546001600160a01b0319166001600160a01b03861690811790915590518392907fddf252ad1be2c89b69c2b068fc378daa952ba7f163c4a11628f55a4df523b3ef908290a45050565b505050565b80516001600160a01b03811681146200035857600080fd5b919050565b634e487b7160e01b600052604160045260246000fd5b604051601f8201601f191681016001600160401b03811182821017156200039e576200039e6200035d565b604052919050565b600082601f830112620003b857600080fd5b81516001600160401b03811115620003d457620003d46200035d565b6020620003ea601f8301601f1916820162000373565b8281528582848701011115620003ff57600080fd5b60005b838110156200041f57858101830151828201840152820162000402565b83811115620004315760008385840101525b5095945050505050565b600080600080608085870312156200045257600080fd5b6200045d8562000340565b602086810151919550906001600160401b03808211156200047d57600080fd5b6200048b89838a01620003a6565b95506040880151915080821115620004a257600080fd5b620004b089838a01620003a6565b94506060880151915080821115620004c757600080fd5b818801915088601f830112620004dc57600080fd5b815181811115620004f157620004f16200035d565b8060051b91506200050484830162000373565b818152918301840191848101908b8411156200051f57600080fd5b938501935b838510156200054857620005388562000340565b8252938501939085019062000524565b989b979a50959850505050505050565b600181811c908216806200056d57607f821691505b6020821081036200058e57634e487b7160e01b600052602260045260246000fd5b50919050565b601f8211156200033b57600081815260208120601f850160051c81016020861015620005bd5750805b601f850160051c820191505b81811015620005de57828155600101620005c9565b505050505050565b81516001600160401b038111156200060257620006026200035d565b6200061a8162000613845462000558565b8462000594565b602080601f831160018114620006525760008415620006395750858301515b600019600386901b1c1916600185901b178555620005de565b600085815260208120601f198616915b82811015620006835788860151825594840194600190910190840162000662565b5085821015620006a25787850151600019600388901b60f8161c191681555b5050505050600190811b01905550565b634e487b7160e01b600052603260045260246000fd5b634e487b7160e01b600052601160045260246000fd5b600060018201620006f357620006f3620006c8565b5060010190565b60008219821115620007105762000710620006c8565b500190565b611e6780620007256000396000f3fe608060405234801561001057600080fd5b50600436106101e55760003560e01c806374a8f1031161010f578063b88d4fde116100a2578063f2fde38b11610071578063f2fde38b1461044e578063f3caad0314610461578063f3cb838514610474578063f5be31931461048757600080fd5b8063b88d4fde146103db578063b91808b1146103ee578063c87b56dd146103ff578063e985e9c51461041257600080fd5b80639d6abe4f116100de5780639d6abe4f14610378578063a22cb465146103a4578063a394a0e6146103b7578063a9dc491d146103ca57600080fd5b806374a8f1031461033b5780637a5b4f591461034e5780638da5cb5b1461035f57806395d89b411461037057600080fd5b80634e543b261161018757806370a082311161015657806370a08231146102fa578063715018a61461030d57806371e928af1461031557806373ac86671461032857600080fd5b80634e543b26146102a05780636352211e146102b357806365f68c89146102c65780636b8ab97d146102e757600080fd5b8063095ea7b3116101c3578063095ea7b31461025257806323b872dd146102675780632d3e579a1461027a57806342842e0e1461028d57600080fd5b806301ffc9a7146101ea57806306fdde0314610212578063081812fc14610227575b600080fd5b6101fd6101f83660046118ff565b61048f565b60405190151581526020015b60405180910390f35b61021a6104a0565b6040516102099190611974565b61023a610235366004611987565b610532565b6040516001600160a01b039091168152602001610209565b6102656102603660046119bc565b610559565b005b6102656102753660046119e6565b610673565b6101fd610288366004611a22565b6106bb565b61026561029b3660046119e6565b610738565b6102656102ae366004611a5e565b610753565b61023a6102c1366004611987565b6107b0565b6102d96102d4366004611a5e565b610810565b604051908152602001610209565b6102656102f5366004611a5e565b610883565b6102d9610308366004611a5e565b6109d8565b610265610a5e565b610265610323366004611a5e565b610a72565b610265610336366004611a87565b610bb5565b610265610349366004611a5e565b610bdb565b6008546001600160a01b031661023a565b6006546001600160a01b031661023a565b61021a610cc9565b61023a610386366004611a5e565b6001600160a01b039081166000908152600c60205260409020541690565b6102656103b2366004611aa4565b610cd8565b6102656103c5366004611a5e565b610ce3565b600a546001600160a01b031661023a565b6102656103e9366004611b4a565b610d39565b6009546001600160a01b031661023a565b61021a61040d366004611987565b610db8565b6101fd610420366004611bf5565b6001600160a01b03918216600090815260056020908152604080832093909416825291909152205460ff1690565b61026561045c366004611a5e565b610f05565b6101fd61046f366004611a5e565b610f7e565b610265610482366004611a5e565b610f9f565b6007546102d9565b600061049a82610ff5565b92915050565b6060600080546104af90611c28565b80601f01602080910402602001604051908101604052809291908181526020018280546104db90611c28565b80156105285780601f106104fd57610100808354040283529160200191610528565b820191906000526020600020905b81548152906001019060200180831161050b57829003601f168201915b5050505050905090565b600061053d82611045565b506000908152600460205260409020546001600160a01b031690565b6000610564826107b0565b9050806001600160a01b0316836001600160a01b0316036105d65760405162461bcd60e51b815260206004820152602160248201527f4552433732313a20617070726f76616c20746f2063757272656e74206f776e656044820152603960f91b60648201526084015b60405180910390fd5b336001600160a01b03821614806105f257506105f28133610420565b6106645760405162461bcd60e51b815260206004820152603e60248201527f4552433732313a20617070726f76652063616c6c6572206973206e6f7420746f60448201527f6b656e206f776e6572206e6f7220617070726f76656420666f7220616c6c000060648201526084016105cd565b61066e83836110a4565b505050565b60405162461bcd60e51b815260206004820152601760248201527f436974697a656e416c7068613a20536f756c626f756e6400000000000000000060448201526064016105cd565b604051632474521560e21b8152600481018390526001600160a01b038281166024830152600091908516906391d1485490604401602060405180830381865afa15801561070c573d6000803e3d6000fd5b505050506040513d601f19601f820116820180604052508101906107309190611c5c565b949350505050565b61066e83838360405180602001604052806000815250610d39565b61075b611112565b600a80546001600160a01b0319166001600160a01b0383169081179091556040519081527f40bf5fe825856ca00c4ac7cef649810e96d3c7cc944ec920e80190d26d10f5af906020015b60405180910390a150565b6000818152600260205260408120546001600160a01b03168061049a5760405162461bcd60e51b8152602060048201526018602482015277115490cdcc8c4e881a5b9d985b1a59081d1bdad95b88125160421b60448201526064016105cd565b600061081b82610f7e565b6108675760405162461bcd60e51b815260206004820152601f60248201527f436974697a656e416c7068613a6e6f742d6163746976652d636974697a656e0060448201526064016105cd565b506001600160a01b03166000908152600b602052604090205490565b6009546001600160a01b031663f13eed97336040516001600160e01b031960e084901b1681526001600160a01b039091166004820152602401602060405180830381865afa1580156108d9573d6000803e3d6000fd5b505050506040513d601f19601f820116820180604052508101906108fd9190611c5c565b6109195760405162461bcd60e51b81526004016105cd90611c79565b61092281610f7e565b156109695760405162461bcd60e51b815260206004820152601760248201527621b4ba34bd32b720b63834309d34b996b1b4ba34bd32b760491b60448201526064016105cd565b6109728161116c565b6109be5760405162461bcd60e51b815260206004820152601a60248201527f436974697a656e416c7068613a6e657665722d636974697a656e00000000000060448201526064016105cd565b6001600160a01b03166000908152600b6020526040812055565b60006001600160a01b038216610a425760405162461bcd60e51b815260206004820152602960248201527f4552433732313a2061646472657373207a65726f206973206e6f7420612076616044820152683634b21037bbb732b960b91b60648201526084016105cd565b506001600160a01b031660009081526003602052604090205490565b610a66611112565b610a706000611192565b565b60003360095460405163f13eed9760e01b81526001600160a01b03808416600483015292935091169063f13eed9790602401602060405180830381865afa158015610ac1573d6000803e3d6000fd5b505050506040513d601f19601f82011682018060405250810190610ae59190611c5c565b610b015760405162461bcd60e51b81526004016105cd90611c79565b610b0a82610f7e565b15610b515760405162461bcd60e51b815260206004820152601760248201527621b4ba34bd32b720b63834309d34b996b1b4ba34bd32b760491b60448201526064016105cd565b610b5a8261116c565b15610ba75760405162461bcd60e51b815260206004820181905260248201527f436974697a656e416c7068613a7265766f6b65642d636974697a656e7368697060448201526064016105cd565b610bb182826111e4565b5050565b610bbd611112565b600a8054911515600160a01b0260ff60a01b19909216919091179055565b60003360095460405163f13eed9760e01b81526001600160a01b03808416600483015292935091169063f13eed9790602401602060405180830381865afa158015610c2a573d6000803e3d6000fd5b505050506040513d601f19601f82011682018060405250810190610c4e9190611c5c565b610c6a5760405162461bcd60e51b81526004016105cd90611c79565b610c7382610f7e565b610cbf5760405162461bcd60e51b815260206004820152601860248201527f436974697a656e416c7068613a6e6f742d636974697a656e000000000000000060448201526064016105cd565b610bb18282611291565b6060600180546104af90611c28565b610bb13383836112f8565b610ceb611112565b600980546001600160a01b0319166001600160a01b0383169081179091556040519081527fe2bea979965a228cbde9e65befc96655827ad8934c3c6b9f8b9b66e1f907ef88906020016107a5565b610d4333836113be565b610da65760405162461bcd60e51b815260206004820152602e60248201527f4552433732313a2063616c6c6572206973206e6f7420746f6b656e206f776e6560448201526d1c881b9bdc88185c1c1c9bdd995960921b60648201526084016105cd565b610db28484848461143c565b50505050565b600854600a546060916001600160a01b031690600160a01b900460ff16610e4e5760405163c87b56dd60e01b8152600481018490526001600160a01b0382169063c87b56dd906024015b600060405180830381865afa158015610e1f573d6000803e3d6000fd5b505050506040513d6000823e601f3d908101601f19168201604052610e479190810190611cb0565b9392505050565b600a546001600160a01b03163314610ed25760405163c87b56dd60e01b8152600481018490526001600160a01b0382169063c87b56dd90602401600060405180830381865afa158015610ea5573d6000803e3d6000fd5b505050506040513d6000823e601f3d908101601f19168201604052610ecd9190810190611cb0565b610e47565b604051630c5bbf5960e01b8152600481018490526001600160a01b03821690630c5bbf5990602401610e02565b50919050565b610f0d611112565b6001600160a01b038116610f725760405162461bcd60e51b815260206004820152602660248201527f4f776e61626c653a206e6577206f776e657220697320746865207a65726f206160448201526564647265737360d01b60648201526084016105cd565b610f7b81611192565b50565b6000610f89826109d8565b600114610f9757600061049a565b600192915050565b610fa7611112565b600880546001600160a01b0319166001600160a01b0383169081179091556040519081527fc3cc2ca4478213568729272d27f2d5f5a1e0ffd0155e3ad804cc7d679a94672b906020016107a5565b60006001600160e01b031982166380ac58cd60e01b148061102657506001600160e01b03198216635b5e139f60e01b145b8061049a57506301ffc9a760e01b6001600160e01b031983161461049a565b6000818152600260205260409020546001600160a01b0316610f7b5760405162461bcd60e51b8152602060048201526018602482015277115490cdcc8c4e881a5b9d985b1a59081d1bdad95b88125160421b60448201526064016105cd565b600081815260046020526040902080546001600160a01b0319166001600160a01b03841690811790915581906110d9826107b0565b6001600160a01b03167f8c5be1e5ebec7d5bd14f71427d1e84f3dd0314c0f7b2291e5b200ac8c7c3b92560405160405180910390a45050565b6006546001600160a01b03163314610a705760405162461bcd60e51b815260206004820181905260248201527f4f776e61626c653a2063616c6c6572206973206e6f7420746865206f776e657260448201526064016105cd565b6001600160a01b0381166000908152600b60205260408120548103610f9757600061049a565b600680546001600160a01b038381166001600160a01b0319831681179093556040519116919082907f8be0079c531659141344cd1fd0a4f28419497f9722a3daafe3b4186f6b6457e090600090a35050565b60078054600091826111f583611d3d565b909155506001600160a01b038481166000908152600c6020908152604080832080546001600160a01b03191694881694909417909355600b905220819055905061123f838261146f565b816001600160a01b0316836001600160a01b03167f7533f62ec6601bf9c87f8d96bf756b4b495e2a0e26ec9284e4927926ed6b3afd8360405161128491815260200190565b60405180910390a3505050565b6001600160a01b0382166000908152600b60205260409020546112b3816115b1565b816001600160a01b0316836001600160a01b03167fa96db3edccc72000dff77fc380cfbabe1646529eadd835eb11f2f8315669ec768360405161128491815260200190565b816001600160a01b0316836001600160a01b0316036113595760405162461bcd60e51b815260206004820152601960248201527f4552433732313a20617070726f766520746f2063616c6c65720000000000000060448201526064016105cd565b6001600160a01b03838116600081815260056020908152604080832094871680845294825291829020805460ff191686151590811790915591519182527f17307eab39ab6107e8899845ad3d59bd9653f200f220920489ca2b5937696c319101611284565b6000806113ca836107b0565b9050806001600160a01b0316846001600160a01b0316148061141157506001600160a01b0380821660009081526005602090815260408083209388168352929052205460ff165b806107305750836001600160a01b031661142a84610532565b6001600160a01b031614949350505050565b61144784848461164c565b611453848484846117e8565b610db25760405162461bcd60e51b81526004016105cd90611d56565b6001600160a01b0382166114c55760405162461bcd60e51b815260206004820181905260248201527f4552433732313a206d696e7420746f20746865207a65726f206164647265737360448201526064016105cd565b6000818152600260205260409020546001600160a01b03161561152a5760405162461bcd60e51b815260206004820152601c60248201527f4552433732313a20746f6b656e20616c7265616479206d696e7465640000000060448201526064016105cd565b6001600160a01b0382166000908152600360205260408120805460019290611553908490611da8565b909155505060008181526002602052604080822080546001600160a01b0319166001600160a01b03861690811790915590518392907fddf252ad1be2c89b69c2b068fc378daa952ba7f163c4a11628f55a4df523b3ef908290a45050565b60006115bc826107b0565b90506115c96000836110a4565b6001600160a01b03811660009081526003602052604081208054600192906115f2908490611dc0565b909155505060008281526002602052604080822080546001600160a01b0319169055518391906001600160a01b038416907fddf252ad1be2c89b69c2b068fc378daa952ba7f163c4a11628f55a4df523b3ef908390a45050565b826001600160a01b031661165f826107b0565b6001600160a01b0316146116c35760405162461bcd60e51b815260206004820152602560248201527f4552433732313a207472616e736665722066726f6d20696e636f72726563742060448201526437bbb732b960d91b60648201526084016105cd565b6001600160a01b0382166117255760405162461bcd60e51b8152602060048201526024808201527f4552433732313a207472616e7366657220746f20746865207a65726f206164646044820152637265737360e01b60648201526084016105cd565b6117306000826110a4565b6001600160a01b0383166000908152600360205260408120805460019290611759908490611dc0565b90915550506001600160a01b0382166000908152600360205260408120805460019290611787908490611da8565b909155505060008181526002602052604080822080546001600160a01b0319166001600160a01b0386811691821790925591518493918716917fddf252ad1be2c89b69c2b068fc378daa952ba7f163c4a11628f55a4df523b3ef91a4505050565b60006001600160a01b0384163b156118de57604051630a85bd0160e11b81526001600160a01b0385169063150b7a029061182c903390899088908890600401611dd7565b6020604051808303816000875af1925050508015611867575060408051601f3d908101601f1916820190925261186491810190611e14565b60015b6118c4573d808015611895576040519150601f19603f3d011682016040523d82523d6000602084013e61189a565b606091505b5080516000036118bc5760405162461bcd60e51b81526004016105cd90611d56565b805181602001fd5b6001600160e01b031916630a85bd0160e11b149050610730565b506001949350505050565b6001600160e01b031981168114610f7b57600080fd5b60006020828403121561191157600080fd5b8135610e47816118e9565b60005b8381101561193757818101518382015260200161191f565b83811115610db25750506000910152565b6000815180845261196081602086016020860161191c565b601f01601f19169290920160200192915050565b602081526000610e476020830184611948565b60006020828403121561199957600080fd5b5035919050565b80356001600160a01b03811681146119b757600080fd5b919050565b600080604083850312156119cf57600080fd5b6119d8836119a0565b946020939093013593505050565b6000806000606084860312156119fb57600080fd5b611a04846119a0565b9250611a12602085016119a0565b9150604084013590509250925092565b600080600060608486031215611a3757600080fd5b611a40846119a0565b925060208401359150611a55604085016119a0565b90509250925092565b600060208284031215611a7057600080fd5b610e47826119a0565b8015158114610f7b57600080fd5b600060208284031215611a9957600080fd5b8135610e4781611a79565b60008060408385031215611ab757600080fd5b611ac0836119a0565b91506020830135611ad081611a79565b809150509250929050565b634e487b7160e01b600052604160045260246000fd5b604051601f8201601f1916810167ffffffffffffffff81118282101715611b1a57611b1a611adb565b604052919050565b600067ffffffffffffffff821115611b3c57611b3c611adb565b50601f01601f191660200190565b60008060008060808587031215611b6057600080fd5b611b69856119a0565b9350611b77602086016119a0565b925060408501359150606085013567ffffffffffffffff811115611b9a57600080fd5b8501601f81018713611bab57600080fd5b8035611bbe611bb982611b22565b611af1565b818152886020838501011115611bd357600080fd5b8160208401602083013760006020838301015280935050505092959194509250565b60008060408385031215611c0857600080fd5b611c11836119a0565b9150611c1f602084016119a0565b90509250929050565b600181811c90821680611c3c57607f821691505b602082108103610eff57634e487b7160e01b600052602260045260246000fd5b600060208284031215611c6e57600080fd5b8151610e4781611a79565b60208082526017908201527f436974697a656e416c7068613a6e6f742d6e6f74617279000000000000000000604082015260600190565b600060208284031215611cc257600080fd5b815167ffffffffffffffff811115611cd957600080fd5b8201601f81018413611cea57600080fd5b8051611cf8611bb982611b22565b818152856020838501011115611d0d57600080fd5b611d1e82602083016020860161191c565b95945050505050565b634e487b7160e01b600052601160045260246000fd5b600060018201611d4f57611d4f611d27565b5060010190565b60208082526032908201527f4552433732313a207472616e7366657220746f206e6f6e20455243373231526560408201527131b2b4bb32b91034b6b83632b6b2b73a32b960711b606082015260800190565b60008219821115611dbb57611dbb611d27565b500190565b600082821015611dd257611dd2611d27565b500390565b6001600160a01b0385811682528416602082015260408101839052608060608201819052600090611e0a90830184611948565b9695505050505050565b600060208284031215611e2657600080fd5b8151610e47816118e956fea26469706673582212203976cc954d66cf31d22d4c74c1dba03bd12588ab8abd89e2d816950687dfff6e64736f6c634300080f003360806040523480156200001157600080fd5b5060405162000eaa38038062000eaa83398101604081905262000034916200022a565b600180546001600160a01b0319166001600160a01b03841617905562000064654e4f5441525960d01b30620000fc565b60005b8151811015620000dd57620000a26000801b8383815181106200008e576200008e62000313565b6020026020010151620000fc60201b60201c565b620000c8654e4f5441525960d01b60001b8383815181106200008e576200008e62000313565b80620000d48162000329565b91505062000067565b50620000f4654e4f5441525960d01b60006200010c565b505062000351565b62000108828262000157565b5050565b600082815260208190526040808220600101805490849055905190918391839186917fbd79b86ffe0ab8e8776151514217cd7cacd52c909f66475c3af44e129f0b00ff9190a4505050565b6000828152602081815260408083206001600160a01b038516845290915290205460ff1662000108576000828152602081815260408083206001600160a01b03851684529091529020805460ff19166001179055620001b33390565b6001600160a01b0316816001600160a01b0316837f2f8788117e7eff1d82e926ec794901d17c78024a50270940304540a733656f0d60405160405180910390a45050565b80516001600160a01b03811681146200020f57600080fd5b919050565b634e487b7160e01b600052604160045260246000fd5b600080604083850312156200023e57600080fd5b6200024983620001f7565b602084810151919350906001600160401b03808211156200026957600080fd5b818601915086601f8301126200027e57600080fd5b81518181111562000293576200029362000214565b8060051b604051601f19603f83011681018181108582111715620002bb57620002bb62000214565b604052918252848201925083810185019189831115620002da57600080fd5b938501935b828510156200030357620002f385620001f7565b84529385019392850192620002df565b8096505050505050509250929050565b634e487b7160e01b600052603260045260246000fd5b6000600182016200034a57634e487b7160e01b600052601160045260246000fd5b5060010190565b610b4980620003616000396000f3fe608060405234801561001057600080fd5b50600436106100cf5760003560e01c806374a8f1031161008c578063d389c6a211610066578063d389c6a2146101a9578063d547741f146101bc578063e6b92bbc146101cf578063f13eed97146101ea57600080fd5b806374a8f1031461017b57806391d148541461018e578063a217fddf146101a157600080fd5b806301ffc9a7146100d4578063055e3e5e146100fc578063248a9ca3146101115780632f2ff15d1461014257806336568abe1461015557806371e928af14610168575b600080fd5b6100e76100e2366004610840565b6101fd565b60405190151581526020015b60405180910390f35b61010f61010a36600461086a565b610234565b005b61013461011f3660046108df565b60009081526020819052604090206001015490565b6040519081526020016100f3565b61010f610150366004610914565b6102bd565b61010f610163366004610914565b6102e2565b61010f610176366004610940565b610360565b61010f610189366004610940565b61039b565b6100e761019c366004610914565b6103d3565b610134600081565b61010f6101b736600461086a565b6103fc565b61010f6101ca366004610914565b610477565b6001546040516001600160a01b0390911681526020016100f3565b6100e76101f8366004610940565b61049c565b60006001600160e01b03198216637965db0b60e01b148061022e57506301ffc9a760e01b6001600160e01b03198316145b92915050565b610247654e4f5441525960d01b336103d3565b61026c5760405162461bcd60e51b81526004016102639061095b565b60405180910390fd5b60005b818110156102b8576102a683838381811061028c5761028c610992565b90506020020160208101906102a19190610940565b6104b1565b806102b0816109be565b91505061026f565b505050565b6000828152602081905260409020600101546102d881610514565b6102b8838361051e565b6001600160a01b03811633146103525760405162461bcd60e51b815260206004820152602f60248201527f416363657373436f6e74726f6c3a2063616e206f6e6c792072656e6f756e636560448201526e103937b632b9903337b91039b2b63360891b6064820152608401610263565b61035c82826105a2565b5050565b610373654e4f5441525960d01b336103d3565b61038f5760405162461bcd60e51b81526004016102639061095b565b61039881610607565b50565b6103ae654e4f5441525960d01b336103d3565b6103ca5760405162461bcd60e51b81526004016102639061095b565b610398816104b1565b6000918252602082815260408084206001600160a01b0393909316845291905290205460ff1690565b61040f654e4f5441525960d01b336103d3565b61042b5760405162461bcd60e51b81526004016102639061095b565b60005b818110156102b85761046583838381811061044b5761044b610992565b90506020020160208101906104609190610940565b610607565b8061046f816109be565b91505061042e565b60008281526020819052604090206001015461049281610514565b6102b883836105a2565b600061022e654e4f5441525960d01b836103d3565b6001546040516374a8f10360e01b81526001600160a01b038381166004830152909116906374a8f103906024015b600060405180830381600087803b1580156104f957600080fd5b505af115801561050d573d6000803e3d6000fd5b5050505050565b6103988133610639565b61052882826103d3565b61035c576000828152602081815260408083206001600160a01b03851684529091529020805460ff1916600117905561055e3390565b6001600160a01b0316816001600160a01b0316837f2f8788117e7eff1d82e926ec794901d17c78024a50270940304540a733656f0d60405160405180910390a45050565b6105ac82826103d3565b1561035c576000828152602081815260408083206001600160a01b0385168085529252808320805460ff1916905551339285917ff6391f5c32d9c69d2a47ea670b442974b53935d1edc7fd64eb21e047a839171b9190a45050565b6001546040516371e928af60e01b81526001600160a01b038381166004830152909116906371e928af906024016104df565b61064382826103d3565b61035c5761065b816001600160a01b0316601461069d565b61066683602061069d565b604051602001610677929190610a07565b60408051601f198184030181529082905262461bcd60e51b825261026391600401610a7c565b606060006106ac836002610aaf565b6106b7906002610ace565b67ffffffffffffffff8111156106cf576106cf610ae6565b6040519080825280601f01601f1916602001820160405280156106f9576020820181803683370190505b509050600360fc1b8160008151811061071457610714610992565b60200101906001600160f81b031916908160001a905350600f60fb1b8160018151811061074357610743610992565b60200101906001600160f81b031916908160001a9053506000610767846002610aaf565b610772906001610ace565b90505b60018111156107ea576f181899199a1a9b1b9c1cb0b131b232b360811b85600f16601081106107a6576107a6610992565b1a60f81b8282815181106107bc576107bc610992565b60200101906001600160f81b031916908160001a90535060049490941c936107e381610afc565b9050610775565b5083156108395760405162461bcd60e51b815260206004820181905260248201527f537472696e67733a20686578206c656e67746820696e73756666696369656e746044820152606401610263565b9392505050565b60006020828403121561085257600080fd5b81356001600160e01b03198116811461083957600080fd5b6000806020838503121561087d57600080fd5b823567ffffffffffffffff8082111561089557600080fd5b818501915085601f8301126108a957600080fd5b8135818111156108b857600080fd5b8660208260051b85010111156108cd57600080fd5b60209290920196919550909350505050565b6000602082840312156108f157600080fd5b5035919050565b80356001600160a01b038116811461090f57600080fd5b919050565b6000806040838503121561092757600080fd5b82359150610937602084016108f8565b90509250929050565b60006020828403121561095257600080fd5b610839826108f8565b6020808252601a908201527f4e6f746172793a756e617574686f72697a65642d616363657373000000000000604082015260600190565b634e487b7160e01b600052603260045260246000fd5b634e487b7160e01b600052601160045260246000fd5b6000600182016109d0576109d06109a8565b5060010190565b60005b838110156109f25781810151838201526020016109da565b83811115610a01576000848401525b50505050565b7f416363657373436f6e74726f6c3a206163636f756e7420000000000000000000815260008351610a3f8160178501602088016109d7565b7001034b99036b4b9b9b4b733903937b6329607d1b6017918401918201528351610a708160288401602088016109d7565b01602801949350505050565b6020815260008251806020840152610a9b8160408501602087016109d7565b601f01601f19169190910160400192915050565b6000816000190483118215151615610ac957610ac96109a8565b500290565b60008219821115610ae157610ae16109a8565b500190565b634e487b7160e01b600052604160045260246000fd5b600081610b0b57610b0b6109a8565b50600019019056fea26469706673582212207c0666516835dba459122e4dea5ca25cb814a6e7770fed9f74b354c538d4f86764736f6c634300080f0033a26469706673582212206a828edaa638a2474057bb95151658b8f53e0dc3a55164ee16d269c65404cac864736f6c634300080f0033",
  "devdoc": {
    "kind": "dev",
    "methods": {},
    "version": 1
  },
  "userdoc": {
    "kind": "user",
    "methods": {},
    "version": 1
  },
  "storageLayout": {
    "storage": [
      {
        "astId": 8077,
        "contract": "contracts/Deployer.sol:Deployer",
        "label": "_metadata",
        "offset": 0,
        "slot": "0",
        "type": "t_address"
      },
      {
        "astId": 8080,
        "contract": "contracts/Deployer.sol:Deployer",
        "label": "_citizenships",
        "offset": 0,
        "slot": "1",
        "type": "t_array(t_address)dyn_storage"
      },
      {
        "astId": 8083,
        "contract": "contracts/Deployer.sol:Deployer",
        "label": "_nations",
        "offset": 0,
        "slot": "2",
        "type": "t_array(t_address)dyn_storage"
      },
      {
        "astId": 8086,
        "contract": "contracts/Deployer.sol:Deployer",
        "label": "_notaries",
        "offset": 0,
        "slot": "3",
        "type": "t_array(t_address)dyn_storage"
      }
    ],
    "types": {
      "t_address": {
        "encoding": "inplace",
        "label": "address",
        "numberOfBytes": "20"
      },
      "t_array(t_address)dyn_storage": {
        "base": "t_address",
        "encoding": "dynamic_array",
        "label": "address[]",
        "numberOfBytes": "32"
      }
    }
  }
}