{
  "address": "0xE4C47040B8e535ebaDB6C4E94b95653e4f6dBAbd",
  "abi": [
    {
      "inputs": [
        {
          "internalType": "address",
          "name": "_metadata_",
          "type": "address"
        }
      ],
      "stateMutability": "nonpayable",
      "type": "constructor"
    },
    {
      "anonymous": false,
      "inputs": [
        {
          "indexed": true,
          "internalType": "address",
          "name": "citizenship",
          "type": "address"
        },
        {
          "indexed": true,
          "internalType": "address",
          "name": "founder",
          "type": "address"
        }
      ],
      "name": "CitizenshipStarted",
      "type": "event"
    },
    {
      "anonymous": false,
      "inputs": [
        {
          "indexed": true,
          "internalType": "address",
          "name": "nation",
          "type": "address"
        },
        {
          "indexed": true,
          "internalType": "address",
          "name": "founder",
          "type": "address"
        }
      ],
      "name": "NationStarted",
      "type": "event"
    },
    {
      "anonymous": false,
      "inputs": [
        {
          "indexed": true,
          "internalType": "address",
          "name": "notary",
          "type": "address"
        },
        {
          "indexed": true,
          "internalType": "address",
          "name": "founder",
          "type": "address"
        }
      ],
      "name": "NotaryStarted",
      "type": "event"
    },
    {
      "inputs": [
        {
          "internalType": "address",
          "name": "metadata_",
          "type": "address"
        },
        {
          "internalType": "string",
          "name": "name_",
          "type": "string"
        },
        {
          "internalType": "string",
          "name": "symbol_",
          "type": "string"
        }
      ],
      "name": "deployCitizenship",
      "outputs": [
        {
          "internalType": "contract CitizenAlpha",
          "name": "",
          "type": "address"
        }
      ],
      "stateMutability": "nonpayable",
      "type": "function"
    },
    {
      "inputs": [
        {
          "internalType": "address",
          "name": "citizenAlpha",
          "type": "address"
        },
        {
          "internalType": "address[]",
          "name": "founders",
          "type": "address[]"
        }
      ],
      "name": "deployNation",
      "outputs": [
        {
          "internalType": "address",
          "name": "",
          "type": "address"
        }
      ],
      "stateMutability": "nonpayable",
      "type": "function"
    },
    {
      "inputs": [
        {
          "internalType": "address",
          "name": "_citizenAlpha_",
          "type": "address"
        },
        {
          "internalType": "address[]",
          "name": "notaries",
          "type": "address[]"
        }
      ],
      "name": "deployNotary",
      "outputs": [
        {
          "internalType": "address",
          "name": "",
          "type": "address"
        }
      ],
      "stateMutability": "nonpayable",
      "type": "function"
    },
    {
      "inputs": [],
      "name": "getCitizenshipCount",
      "outputs": [
        {
          "internalType": "uint256",
          "name": "count",
          "type": "uint256"
        }
      ],
      "stateMutability": "view",
      "type": "function"
    },
    {
      "inputs": [],
      "name": "getCitizenships",
      "outputs": [
        {
          "internalType": "address[]",
          "name": "citizenships",
          "type": "address[]"
        }
      ],
      "stateMutability": "view",
      "type": "function"
    },
    {
      "inputs": [],
      "name": "getNationCount",
      "outputs": [
        {
          "internalType": "uint256",
          "name": "count",
          "type": "uint256"
        }
      ],
      "stateMutability": "view",
      "type": "function"
    },
    {
      "inputs": [],
      "name": "getNations",
      "outputs": [
        {
          "internalType": "address[]",
          "name": "nations",
          "type": "address[]"
        }
      ],
      "stateMutability": "view",
      "type": "function"
    },
    {
      "inputs": [],
      "name": "getNotaries",
      "outputs": [
        {
          "internalType": "address[]",
          "name": "notaries",
          "type": "address[]"
        }
      ],
      "stateMutability": "view",
      "type": "function"
    },
    {
      "inputs": [],
      "name": "getNotaryCount",
      "outputs": [
        {
          "internalType": "uint256",
          "name": "count",
          "type": "uint256"
        }
      ],
      "stateMutability": "view",
      "type": "function"
    },
    {
      "inputs": [
        {
          "internalType": "string",
          "name": "name_",
          "type": "string"
        },
        {
          "internalType": "string",
          "name": "symbol_",
          "type": "string"
        },
        {
          "internalType": "address[]",
          "name": "founders",
          "type": "address[]"
        }
      ],
      "name": "setupDemocracy",
      "outputs": [],
      "stateMutability": "nonpayable",
      "type": "function"
    }
  ],
  "transactionHash": "0xcfa291e39de243fd75d094f8379706ce0e4575076162c8cc192714363fbd6447",
  "args": [
    "0x8c583E6EF57E73f8A5057F266BBb713D3F690e47"
  ],
  "numDeployments": 1,
  "solcInputHash": "a80efac973d708a1d8e8ec768801dacd",
  "bytecode": "0x608060405234801561001057600080fd5b5060405161537c38038061537c83398101604081905261002f91610054565b600180546001600160a01b0319166001600160a01b0392909216919091179055610084565b60006020828403121561006657600080fd5b81516001600160a01b038116811461007d57600080fd5b9392505050565b6152e9806100936000396000f3fe60806040523480156200001157600080fd5b5060043610620000ab5760003560e01c8063a4ac4aec116200006e578063a4ac4aec146200012e578063aaf34b941462000147578063d5a2a5dd1462000125578063e0f9ba961462000151578063e814e4c7146200015b57600080fd5b80632c99d7b814620000b05780634b3cbdde14620000e4578063510c7b2f14620000fb57806362386c7b146200010e5780639e2122ba1462000125575b600080fd5b620000c7620000c136600462000701565b62000174565b6040516001600160a01b0390911681526020015b60405180910390f35b620000c7620000f5366004620007cc565b62000233565b6004545b604051908152602001620000db565b620000c76200011f36600462000701565b620002f5565b600354620000ff565b62000138620003b4565b604051620000db91906200088f565b6200013862000418565b620001386200047a565b620001726200016c366004620008ab565b620004dc565b005b60008083836040516200018790620005de565b6200019492919062000933565b604051809103906000f080158015620001b1573d6000803e3d6000fd5b506003805460018101825560009182527fc2575a0e9e593c00f959f8c92f12db2869c3395a3b0502d05e2516446f71f85b0180546001600160a01b0319166001600160a01b038416908117909155604051929350339290917fc8e47eeba0237ce36a0ddf0e952ee6b70f3629ca1e38db09db85d260cd472d4491a39392505050565b6000808484846040516200024790620005ec565b6200025593929190620009b1565b604051809103906000f08015801562000272573d6000803e3d6000fd5b506002805460018101825560009182527f405787fa12a823e0f2b7631cc41b3ba8828b3321ca811111fa75cd3aa3bb5ace0180546001600160a01b0319166001600160a01b038416908117909155604051929350339290917f2cf9e901decd9529a95e5c80a11bb6a9885ef6d3003c9008a1a6f84b17b7fa2591a3949350505050565b60008083836040516200030890620005fa565b6200031592919062000933565b604051809103906000f08015801562000332573d6000803e3d6000fd5b506004805460018101825560009182527f8a35acfbc15ff81a39ae7d344fd709f28e8600b4aa8c65c6b64bfe7fe36bd19b0180546001600160a01b0319166001600160a01b038416908117909155604051929350339290917f7669c61ed880f97aa4c4db6a8109ec87a437458242938859c06a7c33d410549991a39392505050565b606060028054806020026020016040519081016040528092919081815260200182805480156200040e57602002820191906000526020600020905b81546001600160a01b03168152600190910190602001808311620003ef575b5050505050905090565b606060048054806020026020016040519081016040528092919081815260200182805480156200040e576020028201919060005260206000209081546001600160a01b03168152600190910190602001808311620003ef575050505050905090565b606060038054806020026020016040519081016040528092919081815260200182805480156200040e576020028201919060005260206000209081546001600160a01b03168152600190910190602001808311620003ef575050505050905090565b600154600090620004f8906001600160a01b0316858562000233565b9050600062000508828462000174565b90506000620005188385620002f5565b604051633156541160e11b81526001600160a01b038481166004830152919250908416906362aca82290602401600060405180830381600087803b1580156200056057600080fd5b505af115801562000575573d6000803e3d6000fd5b50506040516351ca507360e11b81526001600160a01b0384811660048301528616925063a394a0e69150602401600060405180830381600087803b158015620005bd57600080fd5b505af1158015620005d2573d6000803e3d6000fd5b50505050505050505050565b61172480620009f683390190565b612288806200211a83390190565b610f1280620043a283390190565b80356001600160a01b03811681146200062057600080fd5b919050565b634e487b7160e01b600052604160045260246000fd5b604051601f8201601f1916810167ffffffffffffffff8111828210171562000667576200066762000625565b604052919050565b600082601f8301126200068157600080fd5b8135602067ffffffffffffffff821115620006a057620006a062000625565b8160051b620006b18282016200063b565b9283528481018201928281019087851115620006cc57600080fd5b83870192505b84831015620006f657620006e68362000608565b82529183019190830190620006d2565b979650505050505050565b600080604083850312156200071557600080fd5b620007208362000608565b9150602083013567ffffffffffffffff8111156200073d57600080fd5b6200074b858286016200066f565b9150509250929050565b600082601f8301126200076757600080fd5b813567ffffffffffffffff81111562000784576200078462000625565b62000799601f8201601f19166020016200063b565b818152846020838601011115620007af57600080fd5b816020850160208301376000918101602001919091529392505050565b600080600060608486031215620007e257600080fd5b620007ed8462000608565b9250602084013567ffffffffffffffff808211156200080b57600080fd5b620008198783880162000755565b935060408601359150808211156200083057600080fd5b506200083f8682870162000755565b9150509250925092565b600081518084526020808501945080840160005b83811015620008845781516001600160a01b0316875295820195908201906001016200085d565b509495945050505050565b602081526000620008a4602083018462000849565b9392505050565b600080600060608486031215620008c157600080fd5b833567ffffffffffffffff80821115620008da57600080fd5b620008e88783880162000755565b94506020860135915080821115620008ff57600080fd5b6200090d8783880162000755565b935060408601359150808211156200092457600080fd5b506200083f868287016200066f565b6001600160a01b0383168152604060208201819052600090620009599083018462000849565b949350505050565b6000815180845260005b8181101562000989576020818501810151868301820152016200096b565b818111156200099c576000602083870101525b50601f01601f19169290920160200192915050565b6001600160a01b0384168152606060208201819052600090620009d79083018562000961565b8281036040840152620009eb818562000961565b969550505050505056fe60806040523480156200001157600080fd5b506040516200172438038062001724833981016040819052620000349162000424565b600280546001600160a01b0319166001600160a01b03841617905560036020527fea3440c8d6cb5b2955c2a5803f67a910208559f15cac919bbef9f49e118ed90c805460ff1990811660019081179092557fe659fdadf251ad34883124d387cec539fc7a6d46929e300206081e08d7b0c327805482168317905560008080527f3617319a054d772f909f7c479a2cebe5066e836a939412e32403c99029b92eff805490921690921790555b8151811015620001585762000126600080516020620017048339815191528383815181106200011257620001126200050d565b60200260200101516200017d60201b60201c565b620001436000801b8383815181106200011257620001126200050d565b806200014f8162000523565b915050620000df565b50620001756000805160206200170483398151915260006200018d565b505062000576565b620001898282620001d8565b5050565b600082815260208190526040808220600101805490849055905190918391839186917fbd79b86ffe0ab8e8776151514217cd7cacd52c909f66475c3af44e129f0b00ff9190a4505050565b620001ef82826200021b60201b620008f11760201c565b60008281526001602090815260409091206200021691839062000975620002a3821b17901c565b505050565b620002278282620002c3565b62000189576000828152602081815260408083206001600160a01b03851684529091529020805460ff191660011790556200025f3390565b6001600160a01b0316816001600160a01b0316837f2f8788117e7eff1d82e926ec794901d17c78024a50270940304540a733656f0d60405160405180910390a45050565b6000620002ba836001600160a01b03841662000376565b90505b92915050565b60008281526003602052604081205460ff16158062000350575060025460405163f3caad0360e01b81526001600160a01b0384811660048301529091169063f3caad0390602401602060405180830381865afa15801562000328573d6000803e3d6000fd5b505050506040513d601f19601f820116820180604052508101906200034e91906200054b565b155b156200035f57506000620002bd565b620002ba8383620003c860201b6200098a1760201c565b6000818152600183016020526040812054620003bf57508154600181810184556000848152602080822090930184905584548482528286019093526040902091909155620002bd565b506000620002bd565b6000918252602082815260408084206001600160a01b0393909316845291905290205460ff1690565b80516001600160a01b03811681146200040957600080fd5b919050565b634e487b7160e01b600052604160045260246000fd5b600080604083850312156200043857600080fd5b6200044383620003f1565b602084810151919350906001600160401b03808211156200046357600080fd5b818601915086601f8301126200047857600080fd5b8151818111156200048d576200048d6200040e565b8060051b604051601f19603f83011681018181108582111715620004b557620004b56200040e565b604052918252848201925083810185019189831115620004d457600080fd5b938501935b82851015620004fd57620004ed85620003f1565b84529385019392850192620004d9565b8096505050505050509250929050565b634e487b7160e01b600052603260045260246000fd5b6000600182016200054457634e487b7160e01b600052601160045260246000fd5b5060010190565b6000602082840312156200055e57600080fd5b815180151581146200056f57600080fd5b9392505050565b61117e80620005866000396000f3fe608060405234801561001057600080fd5b506004361061010b5760003560e01c80639010d07c116100a2578063ca15c87311610071578063ca15c87314610246578063d547741f14610259578063dee1f0e41461026c578063e6b92bbc1461027f578063eb7f494d1461029057600080fd5b80639010d07c146101ed57806391d1485414610218578063a217fddf1461022b578063c7b578411461023357600080fd5b80632f2ff15d116100de5780632f2ff15d146101a157806336568abe146101b45780637c4a13b1146101c757806387072522146101da57600080fd5b806301ffc9a7146101105780631e4e009114610138578063248a9ca31461014d5780632da74d8c1461017e575b600080fd5b61012361011e366004610e80565b6102a3565b60405190151581526020015b60405180910390f35b61014b610146366004610eaa565b6102ce565b005b61017061015b366004610ecc565b60009081526020819052604090206001015490565b60405190815260200161012f565b61012361018c366004610ecc565b60009081526003602052604090205460ff1690565b61014b6101af366004610f01565b61032c565b61014b6101c2366004610f01565b6103fd565b61014b6101d5366004610ecc565b61047b565b61014b6101e8366004610eaa565b61053f565b6102006101fb366004610eaa565b610601565b6040516001600160a01b03909116815260200161012f565b610123610226366004610f01565b610620565b610170600081565b610123610241366004610f2d565b6106c0565b610170610254366004610ecc565b6106ec565b61014b610267366004610f01565b610703565b61012361027a366004610f2d565b610812565b6002546001600160a01b0316610200565b61014b61029e366004610ecc565b61082c565b60006001600160e01b03198216635a05180f60e01b14806102c857506102c8826109b3565b92915050565b336102e760008051602061112983398151915282610620565b806102f857506102f8600082610620565b61031d5760405162461bcd60e51b815260040161031490610f48565b60405180910390fd5b61032783836109e8565b505050565b6000828152602081905260409020600101548290339061034d905b82610620565b8061036b575061036b60008051602061112983398151915282610620565b8061037c575061037c600082610620565b6103985760405162461bcd60e51b815260040161031490610f48565b60008481526003602052604090205460ff166103ed5760405162461bcd60e51b81526020600482015260146024820152734e6174696f6e3a696e6163746976652d726f6c6560601b6044820152606401610314565b6103f78484610a33565b50505050565b6001600160a01b038116331461046d5760405162461bcd60e51b815260206004820152602f60248201527f416363657373436f6e74726f6c3a2063616e206f6e6c792072656e6f756e636560448201526e103937b632b9903337b91039b2b63360891b6064820152608401610314565b6104778282610a55565b5050565b3361049460008051602061112983398151915282610620565b806104a557506104a5600082610620565b6104c15760405162461bcd60e51b815260040161031490610f48565b60008281526003602052604090205460ff16151560011461051b5760405162461bcd60e51b815260206004820152601460248201527313985d1a5bdb8e9c9bdb194b591a5cd8589b195960621b6044820152606401610314565b6105268260006109e8565b506000908152600360205260409020805460ff19169055565b3361055860008051602061112983398151915282610620565b806105695750610569600082610620565b6105855760405162461bcd60e51b815260040161031490610f48565b60008381526003602052604090205460ff16156105da5760405162461bcd60e51b815260206004820152601360248201527213985d1a5bdb8e9c9bdb194b595b98589b1959606a1b6044820152606401610314565b6105e483836109e8565b50506000908152600360205260409020805460ff19166001179055565b60008281526001602052604081206106199083610a77565b9392505050565b60008281526003602052604081205460ff1615806106a9575060025460405163f3caad0360e01b81526001600160a01b0384811660048301529091169063f3caad0390602401602060405180830381865afa158015610683573d6000803e3d6000fd5b505050506040513d601f19601f820116820180604052508101906106a79190610f75565b155b156106b6575060006102c8565b610619838361098a565b60006102c87f75c8926d5f068ebc530646119a6c8b65785c321705e3a39f3f7898e9030b9c8083610620565b60008181526001602052604081206102c890610a83565b6000828152602081905260409020600101548290339061072290610347565b80610740575061074060008051602061112983398151915282610620565b806107515750610751600082610620565b61076d5760405162461bcd60e51b815260040161031490610f48565b836107b35760405162461bcd60e51b815260206004820152601660248201527513985d1a5bdb8e9a5b9d985b1a590b5c995c5d595cdd60521b6044820152606401610314565b60008481526003602052604090205460ff166108085760405162461bcd60e51b81526020600482015260146024820152734e6174696f6e3a696e6163746976652d726f6c6560601b6044820152606401610314565b6103f78484610a55565b60006102c860008051602061112983398151915283610620565b7f75c8926d5f068ebc530646119a6c8b65785c321705e3a39f3f7898e9030b9c8061085681610a8d565b60008281526003602052604090205460ff16156108ab5760405162461bcd60e51b815260206004820152601360248201527213985d1a5bdb8e9c9bdb194b595b98589b1959606a1b6044820152606401610314565b6108d5827f75c8926d5f068ebc530646119a6c8b65785c321705e3a39f3f7898e9030b9c806109e8565b506000908152600360205260409020805460ff19166001179055565b6108fb8282610620565b610477576000828152602081815260408083206001600160a01b03851684529091529020805460ff191660011790556109313390565b6001600160a01b0316816001600160a01b0316837f2f8788117e7eff1d82e926ec794901d17c78024a50270940304540a733656f0d60405160405180910390a45050565b6000610619836001600160a01b038416610a9a565b6000918252602082815260408084206001600160a01b0393909316845291905290205460ff1690565b60006001600160e01b03198216637965db0b60e01b14806102c857506301ffc9a760e01b6001600160e01b03198316146102c8565b600082815260208190526040808220600101805490849055905190918391839186917fbd79b86ffe0ab8e8776151514217cd7cacd52c909f66475c3af44e129f0b00ff9190a4505050565b610a3d82826108f1565b60008281526001602052604090206103279082610975565b610a5f8282610ae9565b60008281526001602052604090206103279082610b4e565b60006106198383610b63565b60006102c8825490565b610a978133610b8d565b50565b6000818152600183016020526040812054610ae1575081546001818101845560008481526020808220909301849055845484825282860190935260409020919091556102c8565b5060006102c8565b610af38282610620565b15610477576000828152602081815260408083206001600160a01b0385168085529252808320805460ff1916905551339285917ff6391f5c32d9c69d2a47ea670b442974b53935d1edc7fd64eb21e047a839171b9190a45050565b6000610619836001600160a01b038416610bf1565b6000826000018281548110610b7a57610b7a610f97565b9060005260206000200154905092915050565b610b978282610620565b61047757610baf816001600160a01b03166014610ce4565b610bba836020610ce4565b604051602001610bcb929190610fd9565b60408051601f198184030181529082905262461bcd60e51b82526103149160040161104e565b60008181526001830160205260408120548015610cda576000610c15600183611097565b8554909150600090610c2990600190611097565b9050818114610c8e576000866000018281548110610c4957610c49610f97565b9060005260206000200154905080876000018481548110610c6c57610c6c610f97565b6000918252602080832090910192909255918252600188019052604090208390555b8554869080610c9f57610c9f6110ae565b6001900381819060005260206000200160009055905585600101600086815260200190815260200160002060009055600193505050506102c8565b60009150506102c8565b60606000610cf38360026110c4565b610cfe9060026110e3565b67ffffffffffffffff811115610d1657610d166110fb565b6040519080825280601f01601f191660200182016040528015610d40576020820181803683370190505b509050600360fc1b81600081518110610d5b57610d5b610f97565b60200101906001600160f81b031916908160001a905350600f60fb1b81600181518110610d8a57610d8a610f97565b60200101906001600160f81b031916908160001a9053506000610dae8460026110c4565b610db99060016110e3565b90505b6001811115610e31576f181899199a1a9b1b9c1cb0b131b232b360811b85600f1660108110610ded57610ded610f97565b1a60f81b828281518110610e0357610e03610f97565b60200101906001600160f81b031916908160001a90535060049490941c93610e2a81611111565b9050610dbc565b5083156106195760405162461bcd60e51b815260206004820181905260248201527f537472696e67733a20686578206c656e67746820696e73756666696369656e746044820152606401610314565b600060208284031215610e9257600080fd5b81356001600160e01b03198116811461061957600080fd5b60008060408385031215610ebd57600080fd5b50508035926020909101359150565b600060208284031215610ede57600080fd5b5035919050565b80356001600160a01b0381168114610efc57600080fd5b919050565b60008060408385031215610f1457600080fd5b82359150610f2460208401610ee5565b90509250929050565b600060208284031215610f3f57600080fd5b61061982610ee5565b60208082526013908201527213985d1a5bdb8e9d5b985d5d1a1bdc9a5e9959606a1b604082015260600190565b600060208284031215610f8757600080fd5b8151801515811461061957600080fd5b634e487b7160e01b600052603260045260246000fd5b60005b83811015610fc8578181015183820152602001610fb0565b838111156103f75750506000910152565b7f416363657373436f6e74726f6c3a206163636f756e7420000000000000000000815260008351611011816017850160208801610fad565b7001034b99036b4b9b9b4b733903937b6329607d1b6017918401918201528351611042816028840160208801610fad565b01602801949350505050565b602081526000825180602084015261106d816040850160208701610fad565b601f01601f19169190910160400192915050565b634e487b7160e01b600052601160045260246000fd5b6000828210156110a9576110a9611081565b500390565b634e487b7160e01b600052603160045260246000fd5b60008160001904831182151516156110de576110de611081565b500290565b600082198211156110f6576110f6611081565b500190565b634e487b7160e01b600052604160045260246000fd5b60008161112057611120611081565b50600019019056fe35a7846a2a701fff6f9d61a46ebff5da578c5dcee8bdf361c569f9ea4ee64771a264697066735822122019d968f212afabd42b30e17ba21efa097db62ab92f78684df2487287129e2d6d64736f6c634300080f003375c8926d5f068ebc530646119a6c8b65785c321705e3a39f3f7898e9030b9c8060806040523480156200001157600080fd5b5060405162002288380380620022888339810160408190526200003491620001bb565b81816000620000448382620002d4565b506001620000538282620002d4565b505050620000706200006a6200009860201b60201c565b6200009c565b5050600880546001600160a01b0319166001600160a01b0392909216919091179055620003a0565b3390565b600680546001600160a01b038381166001600160a01b0319831681179093556040519116919082907f8be0079c531659141344cd1fd0a4f28419497f9722a3daafe3b4186f6b6457e090600090a35050565b634e487b7160e01b600052604160045260246000fd5b600082601f8301126200011657600080fd5b81516001600160401b0380821115620001335762000133620000ee565b604051601f8301601f19908116603f011681019082821181831017156200015e576200015e620000ee565b816040528381526020925086838588010111156200017b57600080fd5b600091505b838210156200019f578582018301518183018401529082019062000180565b83821115620001b15760008385830101525b9695505050505050565b600080600060608486031215620001d157600080fd5b83516001600160a01b0381168114620001e957600080fd5b60208501519093506001600160401b03808211156200020757600080fd5b620002158783880162000104565b935060408601519150808211156200022c57600080fd5b506200023b8682870162000104565b9150509250925092565b600181811c908216806200025a57607f821691505b6020821081036200027b57634e487b7160e01b600052602260045260246000fd5b50919050565b601f821115620002cf57600081815260208120601f850160051c81016020861015620002aa5750805b601f850160051c820191505b81811015620002cb57828155600101620002b6565b5050505b505050565b81516001600160401b03811115620002f057620002f0620000ee565b620003088162000301845462000245565b8462000281565b602080601f831160018114620003405760008415620003275750858301515b600019600386901b1c1916600185901b178555620002cb565b600085815260208120601f198616915b82811015620003715788860151825594840194600190910190840162000350565b5085821015620003905787850151600019600388901b60f8161c191681555b5050505050600190811b01905550565b611ed880620003b06000396000f3fe608060405234801561001057600080fd5b50600436106101fb5760003560e01c80637a5b4f591161011a578063b46a357f116100ad578063e985e9c51161007c578063e985e9c51461044c578063f2fde38b14610488578063f3caad031461049b578063f3cb8385146104ae578063f5be3193146104c157600080fd5b8063b46a357f14610404578063b88d4fde14610415578063b91808b114610428578063c87b56dd1461043957600080fd5b80639d6abe4f116100e95780639d6abe4f146103a1578063a22cb465146103cd578063a394a0e6146103e0578063a9dc491d146103f357600080fd5b80637a5b4f59146103645780638da5cb5b1461037557806391d148541461038657806395d89b411461039957600080fd5b80636352211e11610192578063715018a611610161578063715018a61461032357806371e928af1461032b57806373ac86671461033e57806374a8f1031461035157600080fd5b80636352211e146102c957806365f68c89146102dc5780636b8ab97d146102fd57806370a082311461031057600080fd5b806323b872dd116101ce57806323b872dd1461027d57806342842e0e146102905780634e543b26146102a357806362aca822146102b657600080fd5b806301ffc9a71461020057806306fdde0314610228578063081812fc1461023d578063095ea7b314610268575b600080fd5b61021361020e366004611989565b6104c9565b60405190151581526020015b60405180910390f35b6102306104da565b60405161021f91906119fe565b61025061024b366004611a11565b61056c565b6040516001600160a01b03909116815260200161021f565b61027b610276366004611a46565b610593565b005b61027b61028b366004611a70565b6106ad565b61027b61029e366004611a70565b6106f5565b61027b6102b1366004611aac565b610710565b61027b6102c4366004611aac565b61076d565b6102506102d7366004611a11565b6107c3565b6102ef6102ea366004611aac565b610823565b60405190815260200161021f565b61027b61030b366004611aac565b610896565b6102ef61031e366004611aac565b6109eb565b61027b610a71565b61027b610339366004611aac565b610a85565b61027b61034c366004611ad5565b610bc8565b61027b61035f366004611aac565b610bee565b6008546001600160a01b0316610250565b6006546001600160a01b0316610250565b610213610394366004611af2565b610cdc565b610230610d59565b6102506103af366004611aac565b6001600160a01b039081166000908152600d60205260409020541690565b61027b6103db366004611b1e565b610d68565b61027b6103ee366004611aac565b610d73565b600b546001600160a01b0316610250565b6009546001600160a01b0316610250565b61027b610423366004611bc4565b610dc9565b600a546001600160a01b0316610250565b610230610447366004611a11565b610e48565b61021361045a366004611c6f565b6001600160a01b03918216600090815260056020908152604080832093909416825291909152205460ff1690565b61027b610496366004611aac565b610f8e565b6102136104a9366004611aac565b611007565b61027b6104bc366004611aac565b611028565b6007546102ef565b60006104d48261107e565b92915050565b6060600080546104e990611c99565b80601f016020809104026020016040519081016040528092919081815260200182805461051590611c99565b80156105625780601f1061053757610100808354040283529160200191610562565b820191906000526020600020905b81548152906001019060200180831161054557829003601f168201915b5050505050905090565b6000610577826110ce565b506000908152600460205260409020546001600160a01b031690565b600061059e826107c3565b9050806001600160a01b0316836001600160a01b0316036106105760405162461bcd60e51b815260206004820152602160248201527f4552433732313a20617070726f76616c20746f2063757272656e74206f776e656044820152603960f91b60648201526084015b60405180910390fd5b336001600160a01b038216148061062c575061062c813361045a565b61069e5760405162461bcd60e51b815260206004820152603e60248201527f4552433732313a20617070726f76652063616c6c6572206973206e6f7420746f60448201527f6b656e206f776e6572206e6f7220617070726f76656420666f7220616c6c00006064820152608401610607565b6106a8838361112d565b505050565b60405162461bcd60e51b815260206004820152601760248201527f436974697a656e416c7068613a20536f756c626f756e640000000000000000006044820152606401610607565b6106a883838360405180602001604052806000815250610dc9565b61071861119b565b600b80546001600160a01b0319166001600160a01b0383169081179091556040519081527f40bf5fe825856ca00c4ac7cef649810e96d3c7cc944ec920e80190d26d10f5af906020015b60405180910390a150565b61077561119b565b600980546001600160a01b0319166001600160a01b0383169081179091556040519081527f99fecd89e8cae8d2ef43d16762048bbb7d529d1a1b450b2bbb77f95b7109cd6190602001610762565b6000818152600260205260408120546001600160a01b0316806104d45760405162461bcd60e51b8152602060048201526018602482015277115490cdcc8c4e881a5b9d985b1a59081d1bdad95b88125160421b6044820152606401610607565b600061082e82611007565b61087a5760405162461bcd60e51b815260206004820152601f60248201527f436974697a656e416c7068613a6e6f742d6163746976652d636974697a656e006044820152606401610607565b506001600160a01b03166000908152600c602052604090205490565b600a546001600160a01b031663f13eed97336040516001600160e01b031960e084901b1681526001600160a01b039091166004820152602401602060405180830381865afa1580156108ec573d6000803e3d6000fd5b505050506040513d601f19601f820116820180604052508101906109109190611ccd565b61092c5760405162461bcd60e51b815260040161060790611cea565b61093581611007565b1561097c5760405162461bcd60e51b815260206004820152601760248201527621b4ba34bd32b720b63834309d34b996b1b4ba34bd32b760491b6044820152606401610607565b610985816111f5565b6109d15760405162461bcd60e51b815260206004820152601a60248201527f436974697a656e416c7068613a6e657665722d636974697a656e0000000000006044820152606401610607565b6001600160a01b03166000908152600c6020526040812055565b60006001600160a01b038216610a555760405162461bcd60e51b815260206004820152602960248201527f4552433732313a2061646472657373207a65726f206973206e6f7420612076616044820152683634b21037bbb732b960b91b6064820152608401610607565b506001600160a01b031660009081526003602052604090205490565b610a7961119b565b610a83600061121b565b565b600033600a5460405163f13eed9760e01b81526001600160a01b03808416600483015292935091169063f13eed9790602401602060405180830381865afa158015610ad4573d6000803e3d6000fd5b505050506040513d601f19601f82011682018060405250810190610af89190611ccd565b610b145760405162461bcd60e51b815260040161060790611cea565b610b1d82611007565b15610b645760405162461bcd60e51b815260206004820152601760248201527621b4ba34bd32b720b63834309d34b996b1b4ba34bd32b760491b6044820152606401610607565b610b6d826111f5565b15610bba5760405162461bcd60e51b815260206004820181905260248201527f436974697a656e416c7068613a7265766f6b65642d636974697a656e736869706044820152606401610607565b610bc4828261126d565b5050565b610bd061119b565b600b8054911515600160a01b0260ff60a01b19909216919091179055565b600033600a5460405163f13eed9760e01b81526001600160a01b03808416600483015292935091169063f13eed9790602401602060405180830381865afa158015610c3d573d6000803e3d6000fd5b505050506040513d601f19601f82011682018060405250810190610c619190611ccd565b610c7d5760405162461bcd60e51b815260040161060790611cea565b610c8682611007565b610cd25760405162461bcd60e51b815260206004820152601860248201527f436974697a656e416c7068613a6e6f742d636974697a656e00000000000000006044820152606401610607565b610bc4828261131a565b600954604051632474521560e21b8152600481018490526001600160a01b03838116602483015260009216906391d1485490604401602060405180830381865afa158015610d2e573d6000803e3d6000fd5b505050506040513d601f19601f82011682018060405250810190610d529190611ccd565b9392505050565b6060600180546104e990611c99565b610bc4338383611381565b610d7b61119b565b600a80546001600160a01b0319166001600160a01b0383169081179091556040519081527fe2bea979965a228cbde9e65befc96655827ad8934c3c6b9f8b9b66e1f907ef8890602001610762565b610dd33383611447565b610e365760405162461bcd60e51b815260206004820152602e60248201527f4552433732313a2063616c6c6572206973206e6f7420746f6b656e206f776e6560448201526d1c881b9bdc88185c1c1c9bdd995960921b6064820152608401610607565b610e42848484846114c6565b50505050565b600854600b546060916001600160a01b031690600160a01b900460ff16610ed75760405163c87b56dd60e01b8152600481018490526001600160a01b0382169063c87b56dd906024015b600060405180830381865afa158015610eaf573d6000803e3d6000fd5b505050506040513d6000823e601f3d908101601f19168201604052610d529190810190611d21565b600b546001600160a01b03163314610f5b5760405163c87b56dd60e01b8152600481018490526001600160a01b0382169063c87b56dd90602401600060405180830381865afa158015610f2e573d6000803e3d6000fd5b505050506040513d6000823e601f3d908101601f19168201604052610f569190810190611d21565b610d52565b604051630c5bbf5960e01b8152600481018490526001600160a01b03821690630c5bbf5990602401610e92565b50919050565b610f9661119b565b6001600160a01b038116610ffb5760405162461bcd60e51b815260206004820152602660248201527f4f776e61626c653a206e6577206f776e657220697320746865207a65726f206160448201526564647265737360d01b6064820152608401610607565b6110048161121b565b50565b6000611012826109eb565b6001146110205760006104d4565b600192915050565b61103061119b565b600880546001600160a01b0319166001600160a01b0383169081179091556040519081527fc3cc2ca4478213568729272d27f2d5f5a1e0ffd0155e3ad804cc7d679a94672b90602001610762565b60006001600160e01b031982166380ac58cd60e01b14806110af57506001600160e01b03198216635b5e139f60e01b145b806104d457506301ffc9a760e01b6001600160e01b03198316146104d4565b6000818152600260205260409020546001600160a01b03166110045760405162461bcd60e51b8152602060048201526018602482015277115490cdcc8c4e881a5b9d985b1a59081d1bdad95b88125160421b6044820152606401610607565b600081815260046020526040902080546001600160a01b0319166001600160a01b0384169081179091558190611162826107c3565b6001600160a01b03167f8c5be1e5ebec7d5bd14f71427d1e84f3dd0314c0f7b2291e5b200ac8c7c3b92560405160405180910390a45050565b6006546001600160a01b03163314610a835760405162461bcd60e51b815260206004820181905260248201527f4f776e61626c653a2063616c6c6572206973206e6f7420746865206f776e65726044820152606401610607565b6001600160a01b0381166000908152600c602052604081205481036110205760006104d4565b600680546001600160a01b038381166001600160a01b0319831681179093556040519116919082907f8be0079c531659141344cd1fd0a4f28419497f9722a3daafe3b4186f6b6457e090600090a35050565b600780546000918261127e83611dae565b909155506001600160a01b038481166000908152600d6020908152604080832080546001600160a01b03191694881694909417909355600c90522081905590506112c883826114f9565b816001600160a01b0316836001600160a01b03167f7533f62ec6601bf9c87f8d96bf756b4b495e2a0e26ec9284e4927926ed6b3afd8360405161130d91815260200190565b60405180910390a3505050565b6001600160a01b0382166000908152600c602052604090205461133c8161163b565b816001600160a01b0316836001600160a01b03167fa96db3edccc72000dff77fc380cfbabe1646529eadd835eb11f2f8315669ec768360405161130d91815260200190565b816001600160a01b0316836001600160a01b0316036113e25760405162461bcd60e51b815260206004820152601960248201527f4552433732313a20617070726f766520746f2063616c6c6572000000000000006044820152606401610607565b6001600160a01b03838116600081815260056020908152604080832094871680845294825291829020805460ff191686151590811790915591519182527f17307eab39ab6107e8899845ad3d59bd9653f200f220920489ca2b5937696c31910161130d565b600080611453836107c3565b9050806001600160a01b0316846001600160a01b0316148061149a57506001600160a01b0380821660009081526005602090815260408083209388168352929052205460ff165b806114be5750836001600160a01b03166114b38461056c565b6001600160a01b0316145b949350505050565b6114d18484846116d6565b6114dd84848484611872565b610e425760405162461bcd60e51b815260040161060790611dc7565b6001600160a01b03821661154f5760405162461bcd60e51b815260206004820181905260248201527f4552433732313a206d696e7420746f20746865207a65726f20616464726573736044820152606401610607565b6000818152600260205260409020546001600160a01b0316156115b45760405162461bcd60e51b815260206004820152601c60248201527f4552433732313a20746f6b656e20616c7265616479206d696e746564000000006044820152606401610607565b6001600160a01b03821660009081526003602052604081208054600192906115dd908490611e19565b909155505060008181526002602052604080822080546001600160a01b0319166001600160a01b03861690811790915590518392907fddf252ad1be2c89b69c2b068fc378daa952ba7f163c4a11628f55a4df523b3ef908290a45050565b6000611646826107c3565b905061165360008361112d565b6001600160a01b038116600090815260036020526040812080546001929061167c908490611e31565b909155505060008281526002602052604080822080546001600160a01b0319169055518391906001600160a01b038416907fddf252ad1be2c89b69c2b068fc378daa952ba7f163c4a11628f55a4df523b3ef908390a45050565b826001600160a01b03166116e9826107c3565b6001600160a01b03161461174d5760405162461bcd60e51b815260206004820152602560248201527f4552433732313a207472616e736665722066726f6d20696e636f72726563742060448201526437bbb732b960d91b6064820152608401610607565b6001600160a01b0382166117af5760405162461bcd60e51b8152602060048201526024808201527f4552433732313a207472616e7366657220746f20746865207a65726f206164646044820152637265737360e01b6064820152608401610607565b6117ba60008261112d565b6001600160a01b03831660009081526003602052604081208054600192906117e3908490611e31565b90915550506001600160a01b0382166000908152600360205260408120805460019290611811908490611e19565b909155505060008181526002602052604080822080546001600160a01b0319166001600160a01b0386811691821790925591518493918716917fddf252ad1be2c89b69c2b068fc378daa952ba7f163c4a11628f55a4df523b3ef91a4505050565b60006001600160a01b0384163b1561196857604051630a85bd0160e11b81526001600160a01b0385169063150b7a02906118b6903390899088908890600401611e48565b6020604051808303816000875af19250505080156118f1575060408051601f3d908101601f191682019092526118ee91810190611e85565b60015b61194e573d80801561191f576040519150601f19603f3d011682016040523d82523d6000602084013e611924565b606091505b5080516000036119465760405162461bcd60e51b815260040161060790611dc7565b805181602001fd5b6001600160e01b031916630a85bd0160e11b1490506114be565b506001949350505050565b6001600160e01b03198116811461100457600080fd5b60006020828403121561199b57600080fd5b8135610d5281611973565b60005b838110156119c15781810151838201526020016119a9565b83811115610e425750506000910152565b600081518084526119ea8160208601602086016119a6565b601f01601f19169290920160200192915050565b602081526000610d5260208301846119d2565b600060208284031215611a2357600080fd5b5035919050565b80356001600160a01b0381168114611a4157600080fd5b919050565b60008060408385031215611a5957600080fd5b611a6283611a2a565b946020939093013593505050565b600080600060608486031215611a8557600080fd5b611a8e84611a2a565b9250611a9c60208501611a2a565b9150604084013590509250925092565b600060208284031215611abe57600080fd5b610d5282611a2a565b801515811461100457600080fd5b600060208284031215611ae757600080fd5b8135610d5281611ac7565b60008060408385031215611b0557600080fd5b82359150611b1560208401611a2a565b90509250929050565b60008060408385031215611b3157600080fd5b611b3a83611a2a565b91506020830135611b4a81611ac7565b809150509250929050565b634e487b7160e01b600052604160045260246000fd5b604051601f8201601f1916810167ffffffffffffffff81118282101715611b9457611b94611b55565b604052919050565b600067ffffffffffffffff821115611bb657611bb6611b55565b50601f01601f191660200190565b60008060008060808587031215611bda57600080fd5b611be385611a2a565b9350611bf160208601611a2a565b925060408501359150606085013567ffffffffffffffff811115611c1457600080fd5b8501601f81018713611c2557600080fd5b8035611c38611c3382611b9c565b611b6b565b818152886020838501011115611c4d57600080fd5b8160208401602083013760006020838301015280935050505092959194509250565b60008060408385031215611c8257600080fd5b611c8b83611a2a565b9150611b1560208401611a2a565b600181811c90821680611cad57607f821691505b602082108103610f8857634e487b7160e01b600052602260045260246000fd5b600060208284031215611cdf57600080fd5b8151610d5281611ac7565b60208082526017908201527f436974697a656e416c7068613a6e6f742d6e6f74617279000000000000000000604082015260600190565b600060208284031215611d3357600080fd5b815167ffffffffffffffff811115611d4a57600080fd5b8201601f81018413611d5b57600080fd5b8051611d69611c3382611b9c565b818152856020838501011115611d7e57600080fd5b611d8f8260208301602086016119a6565b95945050505050565b634e487b7160e01b600052601160045260246000fd5b600060018201611dc057611dc0611d98565b5060010190565b60208082526032908201527f4552433732313a207472616e7366657220746f206e6f6e20455243373231526560408201527131b2b4bb32b91034b6b83632b6b2b73a32b960711b606082015260800190565b60008219821115611e2c57611e2c611d98565b500190565b600082821015611e4357611e43611d98565b500390565b6001600160a01b0385811682528416602082015260408101839052608060608201819052600090611e7b908301846119d2565b9695505050505050565b600060208284031215611e9757600080fd5b8151610d528161197356fea2646970667358221220958e2e43a098069a856ba959bb33759f604681e8dbed92a564244d77a06405ef64736f6c634300080f003360806040523480156200001157600080fd5b5060405162000f1238038062000f12833981016040819052620000349162000239565b600180546001600160a01b0319166001600160a01b0384161790556200006a60008051602062000ef2833981519152306200010b565b60005b8151811015620000e657620000a86000801b83838151811062000094576200009462000322565b60200260200101516200010b60201b60201c565b620000d160008051602062000ef283398151915283838151811062000094576200009462000322565b80620000dd8162000338565b9150506200006d565b506200010360008051602062000ef283398151915260006200011b565b505062000360565b62000117828262000166565b5050565b600082815260208190526040808220600101805490849055905190918391839186917fbd79b86ffe0ab8e8776151514217cd7cacd52c909f66475c3af44e129f0b00ff9190a4505050565b6000828152602081815260408083206001600160a01b038516845290915290205460ff1662000117576000828152602081815260408083206001600160a01b03851684529091529020805460ff19166001179055620001c23390565b6001600160a01b0316816001600160a01b0316837f2f8788117e7eff1d82e926ec794901d17c78024a50270940304540a733656f0d60405160405180910390a45050565b80516001600160a01b03811681146200021e57600080fd5b919050565b634e487b7160e01b600052604160045260246000fd5b600080604083850312156200024d57600080fd5b620002588362000206565b602084810151919350906001600160401b03808211156200027857600080fd5b818601915086601f8301126200028d57600080fd5b815181811115620002a257620002a262000223565b8060051b604051601f19603f83011681018181108582111715620002ca57620002ca62000223565b604052918252848201925083810185019189831115620002e957600080fd5b938501935b828510156200031257620003028562000206565b84529385019392850192620002ee565b8096505050505050509250929050565b634e487b7160e01b600052603260045260246000fd5b6000600182016200035957634e487b7160e01b600052601160045260246000fd5b5060010190565b610b8280620003706000396000f3fe608060405234801561001057600080fd5b50600436106100cf5760003560e01c806374a8f1031161008c578063d389c6a211610066578063d389c6a2146101a9578063d547741f146101bc578063e6b92bbc146101cf578063f13eed97146101ea57600080fd5b806374a8f1031461017b57806391d148541461018e578063a217fddf146101a157600080fd5b806301ffc9a7146100d4578063055e3e5e146100fc578063248a9ca3146101115780632f2ff15d1461014257806336568abe1461015557806371e928af14610168575b600080fd5b6100e76100e2366004610859565b6101fd565b60405190151581526020015b60405180910390f35b61010f61010a366004610883565b610234565b005b61013461011f3660046108f8565b60009081526020819052604090206001015490565b6040519081526020016100f3565b61010f61015036600461092d565b6102c2565b61010f61016336600461092d565b6102e7565b61010f610176366004610959565b610365565b61010f610189366004610959565b6103a5565b6100e761019c36600461092d565b6103e2565b610134600081565b61010f6101b7366004610883565b61040b565b61010f6101ca36600461092d565b61048b565b6001546040516001600160a01b0390911681526020016100f3565b6100e76101f8366004610959565b6104b0565b60006001600160e01b03198216637965db0b60e01b148061022e57506301ffc9a760e01b6001600160e01b03198316145b92915050565b61024c600080516020610b2d833981519152336103e2565b6102715760405162461bcd60e51b815260040161026890610974565b60405180910390fd5b60005b818110156102bd576102ab838383818110610291576102916109ab565b90506020020160208101906102a69190610959565b6104ca565b806102b5816109d7565b915050610274565b505050565b6000828152602081905260409020600101546102dd8161052d565b6102bd8383610537565b6001600160a01b03811633146103575760405162461bcd60e51b815260206004820152602f60248201527f416363657373436f6e74726f6c3a2063616e206f6e6c792072656e6f756e636560448201526e103937b632b9903337b91039b2b63360891b6064820152608401610268565b61036182826105bb565b5050565b61037d600080516020610b2d833981519152336103e2565b6103995760405162461bcd60e51b815260040161026890610974565b6103a281610620565b50565b6103bd600080516020610b2d833981519152336103e2565b6103d95760405162461bcd60e51b815260040161026890610974565b6103a2816104ca565b6000918252602082815260408084206001600160a01b0393909316845291905290205460ff1690565b610423600080516020610b2d833981519152336103e2565b61043f5760405162461bcd60e51b815260040161026890610974565b60005b818110156102bd5761047983838381811061045f5761045f6109ab565b90506020020160208101906104749190610959565b610620565b80610483816109d7565b915050610442565b6000828152602081905260409020600101546104a68161052d565b6102bd83836105bb565b600061022e600080516020610b2d833981519152836103e2565b6001546040516374a8f10360e01b81526001600160a01b038381166004830152909116906374a8f103906024015b600060405180830381600087803b15801561051257600080fd5b505af1158015610526573d6000803e3d6000fd5b5050505050565b6103a28133610652565b61054182826103e2565b610361576000828152602081815260408083206001600160a01b03851684529091529020805460ff191660011790556105773390565b6001600160a01b0316816001600160a01b0316837f2f8788117e7eff1d82e926ec794901d17c78024a50270940304540a733656f0d60405160405180910390a45050565b6105c582826103e2565b15610361576000828152602081815260408083206001600160a01b0385168085529252808320805460ff1916905551339285917ff6391f5c32d9c69d2a47ea670b442974b53935d1edc7fd64eb21e047a839171b9190a45050565b6001546040516371e928af60e01b81526001600160a01b038381166004830152909116906371e928af906024016104f8565b61065c82826103e2565b61036157610674816001600160a01b031660146106b6565b61067f8360206106b6565b604051602001610690929190610a20565b60408051601f198184030181529082905262461bcd60e51b825261026891600401610a95565b606060006106c5836002610ac8565b6106d0906002610ae7565b67ffffffffffffffff8111156106e8576106e8610aff565b6040519080825280601f01601f191660200182016040528015610712576020820181803683370190505b509050600360fc1b8160008151811061072d5761072d6109ab565b60200101906001600160f81b031916908160001a905350600f60fb1b8160018151811061075c5761075c6109ab565b60200101906001600160f81b031916908160001a9053506000610780846002610ac8565b61078b906001610ae7565b90505b6001811115610803576f181899199a1a9b1b9c1cb0b131b232b360811b85600f16601081106107bf576107bf6109ab565b1a60f81b8282815181106107d5576107d56109ab565b60200101906001600160f81b031916908160001a90535060049490941c936107fc81610b15565b905061078e565b5083156108525760405162461bcd60e51b815260206004820181905260248201527f537472696e67733a20686578206c656e67746820696e73756666696369656e746044820152606401610268565b9392505050565b60006020828403121561086b57600080fd5b81356001600160e01b03198116811461085257600080fd5b6000806020838503121561089657600080fd5b823567ffffffffffffffff808211156108ae57600080fd5b818501915085601f8301126108c257600080fd5b8135818111156108d157600080fd5b8660208260051b85010111156108e657600080fd5b60209290920196919550909350505050565b60006020828403121561090a57600080fd5b5035919050565b80356001600160a01b038116811461092857600080fd5b919050565b6000806040838503121561094057600080fd5b8235915061095060208401610911565b90509250929050565b60006020828403121561096b57600080fd5b61085282610911565b6020808252601a908201527f4e6f746172793a756e617574686f72697a65642d616363657373000000000000604082015260600190565b634e487b7160e01b600052603260045260246000fd5b634e487b7160e01b600052601160045260246000fd5b6000600182016109e9576109e96109c1565b5060010190565b60005b83811015610a0b5781810151838201526020016109f3565b83811115610a1a576000848401525b50505050565b7f416363657373436f6e74726f6c3a206163636f756e7420000000000000000000815260008351610a588160178501602088016109f0565b7001034b99036b4b9b9b4b733903937b6329607d1b6017918401918201528351610a898160288401602088016109f0565b01602801949350505050565b6020815260008251806020840152610ab48160408501602087016109f0565b601f01601f19169190910160400192915050565b6000816000190483118215151615610ae257610ae26109c1565b500290565b60008219821115610afa57610afa6109c1565b500190565b634e487b7160e01b600052604160045260246000fd5b600081610b2457610b246109c1565b50600019019056fe82dc1ec5ffcc1ce66f6c1c31b0ec106422173af966c099db66124841894b3c8aa2646970667358221220ebd06f8f469275ff7a0f18f4539e7248c5cf1360e810d53de79e1f44021f199164736f6c634300080f003382dc1ec5ffcc1ce66f6c1c31b0ec106422173af966c099db66124841894b3c8aa2646970667358221220bf52595e8793ca946b8d2c7ab89e84b7739a7cce09edde2280053c3591d9fe0264736f6c634300080f0033",
  "devdoc": {
    "kind": "dev",
    "methods": {},
    "version": 1
  },
  "userdoc": {
    "kind": "user",
    "methods": {},
    "version": 1
  },
  "storageLayout": {
    "storage": [
      {
        "astId": 9710,
        "contract": "contracts/Deployer.sol:Deployer",
        "label": "_svgRender",
        "offset": 0,
        "slot": "0",
        "type": "t_address"
      },
      {
        "astId": 9712,
        "contract": "contracts/Deployer.sol:Deployer",
        "label": "_metadata",
        "offset": 0,
        "slot": "1",
        "type": "t_address"
      },
      {
        "astId": 9715,
        "contract": "contracts/Deployer.sol:Deployer",
        "label": "_citizenships",
        "offset": 0,
        "slot": "2",
        "type": "t_array(t_address)dyn_storage"
      },
      {
        "astId": 9718,
        "contract": "contracts/Deployer.sol:Deployer",
        "label": "_nations",
        "offset": 0,
        "slot": "3",
        "type": "t_array(t_address)dyn_storage"
      },
      {
        "astId": 9721,
        "contract": "contracts/Deployer.sol:Deployer",
        "label": "_notaries",
        "offset": 0,
        "slot": "4",
        "type": "t_array(t_address)dyn_storage"
      }
    ],
    "types": {
      "t_address": {
        "encoding": "inplace",
        "label": "address",
        "numberOfBytes": "20"
      },
      "t_array(t_address)dyn_storage": {
        "base": "t_address",
        "encoding": "dynamic_array",
        "label": "address[]",
        "numberOfBytes": "32"
      }
    }
  }
}