{
  "address": "0xD0B2Ee0DF1288574dadAD600ac5C03ff7322F728",
  "abi": [
    {
      "inputs": [
        {
          "internalType": "contract CitizenAlphaMetadata",
          "name": "_metadata",
          "type": "address"
        },
        {
          "internalType": "address[]",
          "name": "_founders",
          "type": "address[]"
        }
      ],
      "stateMutability": "nonpayable",
      "type": "constructor"
    },
    {
      "anonymous": false,
      "inputs": [
        {
          "indexed": true,
          "internalType": "address",
          "name": "owner",
          "type": "address"
        },
        {
          "indexed": true,
          "internalType": "address",
          "name": "approved",
          "type": "address"
        },
        {
          "indexed": true,
          "internalType": "uint256",
          "name": "tokenId",
          "type": "uint256"
        }
      ],
      "name": "Approval",
      "type": "event"
    },
    {
      "anonymous": false,
      "inputs": [
        {
          "indexed": true,
          "internalType": "address",
          "name": "owner",
          "type": "address"
        },
        {
          "indexed": true,
          "internalType": "address",
          "name": "operator",
          "type": "address"
        },
        {
          "indexed": false,
          "internalType": "bool",
          "name": "approved",
          "type": "bool"
        }
      ],
      "name": "ApprovalForAll",
      "type": "event"
    },
    {
      "anonymous": false,
      "inputs": [
        {
          "indexed": false,
          "internalType": "uint256",
          "name": "id",
          "type": "uint256"
        },
        {
          "indexed": true,
          "internalType": "address",
          "name": "citizen",
          "type": "address"
        },
        {
          "indexed": true,
          "internalType": "address",
          "name": "link",
          "type": "address"
        }
      ],
      "name": "Issued",
      "type": "event"
    },
    {
      "anonymous": false,
      "inputs": [
        {
          "indexed": false,
          "internalType": "uint256",
          "name": "id",
          "type": "uint256"
        },
        {
          "indexed": true,
          "internalType": "address",
          "name": "citizen",
          "type": "address"
        },
        {
          "indexed": true,
          "internalType": "address",
          "name": "link",
          "type": "address"
        }
      ],
      "name": "Revoked",
      "type": "event"
    },
    {
      "anonymous": false,
      "inputs": [
        {
          "indexed": true,
          "internalType": "bytes32",
          "name": "role",
          "type": "bytes32"
        },
        {
          "indexed": true,
          "internalType": "bytes32",
          "name": "previousAdminRole",
          "type": "bytes32"
        },
        {
          "indexed": true,
          "internalType": "bytes32",
          "name": "newAdminRole",
          "type": "bytes32"
        }
      ],
      "name": "RoleAdminChanged",
      "type": "event"
    },
    {
      "anonymous": false,
      "inputs": [
        {
          "indexed": true,
          "internalType": "bytes32",
          "name": "role",
          "type": "bytes32"
        },
        {
          "indexed": true,
          "internalType": "address",
          "name": "account",
          "type": "address"
        },
        {
          "indexed": true,
          "internalType": "address",
          "name": "sender",
          "type": "address"
        }
      ],
      "name": "RoleGranted",
      "type": "event"
    },
    {
      "anonymous": false,
      "inputs": [
        {
          "indexed": true,
          "internalType": "bytes32",
          "name": "role",
          "type": "bytes32"
        },
        {
          "indexed": true,
          "internalType": "address",
          "name": "account",
          "type": "address"
        },
        {
          "indexed": true,
          "internalType": "address",
          "name": "sender",
          "type": "address"
        }
      ],
      "name": "RoleRevoked",
      "type": "event"
    },
    {
      "anonymous": false,
      "inputs": [
        {
          "indexed": true,
          "internalType": "address",
          "name": "from",
          "type": "address"
        },
        {
          "indexed": true,
          "internalType": "address",
          "name": "to",
          "type": "address"
        },
        {
          "indexed": true,
          "internalType": "uint256",
          "name": "tokenId",
          "type": "uint256"
        }
      ],
      "name": "Transfer",
      "type": "event"
    },
    {
      "inputs": [],
      "name": "DEFAULT_ADMIN_ROLE",
      "outputs": [
        {
          "internalType": "bytes32",
          "name": "",
          "type": "bytes32"
        }
      ],
      "stateMutability": "view",
      "type": "function"
    },
    {
      "inputs": [],
      "name": "FOUNDER",
      "outputs": [
        {
          "internalType": "bytes32",
          "name": "",
          "type": "bytes32"
        }
      ],
      "stateMutability": "view",
      "type": "function"
    },
    {
      "inputs": [
        {
          "internalType": "address",
          "name": "citizen",
          "type": "address"
        }
      ],
      "name": "addFounder",
      "outputs": [],
      "stateMutability": "nonpayable",
      "type": "function"
    },
    {
      "inputs": [
        {
          "internalType": "address",
          "name": "to",
          "type": "address"
        },
        {
          "internalType": "uint256",
          "name": "tokenId",
          "type": "uint256"
        }
      ],
      "name": "approve",
      "outputs": [],
      "stateMutability": "nonpayable",
      "type": "function"
    },
    {
      "inputs": [
        {
          "internalType": "address",
          "name": "owner",
          "type": "address"
        }
      ],
      "name": "balanceOf",
      "outputs": [
        {
          "internalType": "uint256",
          "name": "",
          "type": "uint256"
        }
      ],
      "stateMutability": "view",
      "type": "function"
    },
    {
      "inputs": [
        {
          "internalType": "uint256",
          "name": "tokenId",
          "type": "uint256"
        }
      ],
      "name": "getApproved",
      "outputs": [
        {
          "internalType": "address",
          "name": "",
          "type": "address"
        }
      ],
      "stateMutability": "view",
      "type": "function"
    },
    {
      "inputs": [
        {
          "internalType": "address",
          "name": "citizen",
          "type": "address"
        }
      ],
      "name": "getId",
      "outputs": [
        {
          "internalType": "uint256",
          "name": "",
          "type": "uint256"
        }
      ],
      "stateMutability": "view",
      "type": "function"
    },
    {
      "inputs": [
        {
          "internalType": "address",
          "name": "citizen",
          "type": "address"
        }
      ],
      "name": "getLink",
      "outputs": [
        {
          "internalType": "address",
          "name": "issuer",
          "type": "address"
        }
      ],
      "stateMutability": "view",
      "type": "function"
    },
    {
      "inputs": [
        {
          "internalType": "bytes32",
          "name": "role",
          "type": "bytes32"
        }
      ],
      "name": "getRoleAdmin",
      "outputs": [
        {
          "internalType": "bytes32",
          "name": "",
          "type": "bytes32"
        }
      ],
      "stateMutability": "view",
      "type": "function"
    },
    {
      "inputs": [
        {
          "internalType": "bytes32",
          "name": "role",
          "type": "bytes32"
        },
        {
          "internalType": "address",
          "name": "account",
          "type": "address"
        }
      ],
      "name": "grantRole",
      "outputs": [],
      "stateMutability": "nonpayable",
      "type": "function"
    },
    {
      "inputs": [
        {
          "internalType": "bytes32",
          "name": "role",
          "type": "bytes32"
        },
        {
          "internalType": "address",
          "name": "account",
          "type": "address"
        }
      ],
      "name": "hasRole",
      "outputs": [
        {
          "internalType": "bool",
          "name": "",
          "type": "bool"
        }
      ],
      "stateMutability": "view",
      "type": "function"
    },
    {
      "inputs": [
        {
          "internalType": "address",
          "name": "owner",
          "type": "address"
        },
        {
          "internalType": "address",
          "name": "operator",
          "type": "address"
        }
      ],
      "name": "isApprovedForAll",
      "outputs": [
        {
          "internalType": "bool",
          "name": "",
          "type": "bool"
        }
      ],
      "stateMutability": "view",
      "type": "function"
    },
    {
      "inputs": [
        {
          "internalType": "address",
          "name": "citizen",
          "type": "address"
        }
      ],
      "name": "isCitizen",
      "outputs": [
        {
          "internalType": "bool",
          "name": "status",
          "type": "bool"
        }
      ],
      "stateMutability": "view",
      "type": "function"
    },
    {
      "inputs": [
        {
          "internalType": "address",
          "name": "founder",
          "type": "address"
        }
      ],
      "name": "isFounder",
      "outputs": [
        {
          "internalType": "bool",
          "name": "status",
          "type": "bool"
        }
      ],
      "stateMutability": "view",
      "type": "function"
    },
    {
      "inputs": [
        {
          "internalType": "address",
          "name": "to",
          "type": "address"
        }
      ],
      "name": "issue",
      "outputs": [],
      "stateMutability": "nonpayable",
      "type": "function"
    },
    {
      "inputs": [],
      "name": "name",
      "outputs": [
        {
          "internalType": "string",
          "name": "",
          "type": "string"
        }
      ],
      "stateMutability": "view",
      "type": "function"
    },
    {
      "inputs": [
        {
          "internalType": "uint256",
          "name": "tokenId",
          "type": "uint256"
        }
      ],
      "name": "ownerOf",
      "outputs": [
        {
          "internalType": "address",
          "name": "",
          "type": "address"
        }
      ],
      "stateMutability": "view",
      "type": "function"
    },
    {
      "inputs": [
        {
          "internalType": "address",
          "name": "citizen",
          "type": "address"
        }
      ],
      "name": "removeFounder",
      "outputs": [],
      "stateMutability": "nonpayable",
      "type": "function"
    },
    {
      "inputs": [
        {
          "internalType": "bytes32",
          "name": "role",
          "type": "bytes32"
        },
        {
          "internalType": "address",
          "name": "account",
          "type": "address"
        }
      ],
      "name": "renounceRole",
      "outputs": [],
      "stateMutability": "nonpayable",
      "type": "function"
    },
    {
      "inputs": [
        {
          "internalType": "address",
          "name": "from",
          "type": "address"
        }
      ],
      "name": "revoke",
      "outputs": [],
      "stateMutability": "nonpayable",
      "type": "function"
    },
    {
      "inputs": [
        {
          "internalType": "bytes32",
          "name": "role",
          "type": "bytes32"
        },
        {
          "internalType": "address",
          "name": "account",
          "type": "address"
        }
      ],
      "name": "revokeRole",
      "outputs": [],
      "stateMutability": "nonpayable",
      "type": "function"
    },
    {
      "inputs": [
        {
          "internalType": "address",
          "name": "from",
          "type": "address"
        },
        {
          "internalType": "address",
          "name": "to",
          "type": "address"
        },
        {
          "internalType": "uint256",
          "name": "tokenId",
          "type": "uint256"
        }
      ],
      "name": "safeTransferFrom",
      "outputs": [],
      "stateMutability": "nonpayable",
      "type": "function"
    },
    {
      "inputs": [
        {
          "internalType": "address",
          "name": "from",
          "type": "address"
        },
        {
          "internalType": "address",
          "name": "to",
          "type": "address"
        },
        {
          "internalType": "uint256",
          "name": "tokenId",
          "type": "uint256"
        },
        {
          "internalType": "bytes",
          "name": "_data",
          "type": "bytes"
        }
      ],
      "name": "safeTransferFrom",
      "outputs": [],
      "stateMutability": "nonpayable",
      "type": "function"
    },
    {
      "inputs": [
        {
          "internalType": "address",
          "name": "operator",
          "type": "address"
        },
        {
          "internalType": "bool",
          "name": "approved",
          "type": "bool"
        }
      ],
      "name": "setApprovalForAll",
      "outputs": [],
      "stateMutability": "nonpayable",
      "type": "function"
    },
    {
      "inputs": [
        {
          "internalType": "bytes4",
          "name": "interfaceId",
          "type": "bytes4"
        }
      ],
      "name": "supportsInterface",
      "outputs": [
        {
          "internalType": "bool",
          "name": "",
          "type": "bool"
        }
      ],
      "stateMutability": "view",
      "type": "function"
    },
    {
      "inputs": [],
      "name": "symbol",
      "outputs": [
        {
          "internalType": "string",
          "name": "",
          "type": "string"
        }
      ],
      "stateMutability": "view",
      "type": "function"
    },
    {
      "inputs": [
        {
          "internalType": "uint256",
          "name": "tokenId",
          "type": "uint256"
        }
      ],
      "name": "tokenURI",
      "outputs": [
        {
          "internalType": "string",
          "name": "",
          "type": "string"
        }
      ],
      "stateMutability": "view",
      "type": "function"
    },
    {
      "inputs": [],
      "name": "totalCitizens",
      "outputs": [
        {
          "internalType": "uint256",
          "name": "",
          "type": "uint256"
        }
      ],
      "stateMutability": "view",
      "type": "function"
    },
    {
      "inputs": [
        {
          "internalType": "address",
          "name": "",
          "type": "address"
        },
        {
          "internalType": "address",
          "name": "",
          "type": "address"
        },
        {
          "internalType": "uint256",
          "name": "",
          "type": "uint256"
        }
      ],
      "name": "transferFrom",
      "outputs": [],
      "stateMutability": "nonpayable",
      "type": "function"
    }
  ],
  "transactionHash": "0x84c5f97ec5e1f9e845fea78dfd7ff2b9b5b37be993ed57db2c7c0a740c096edd",
  "args": [
    "0x519C821A213c3DCc3463a9158Ad9523F46964827",
    [
      "0xfc4099eF10CC6255E8662eF85CF82067A7f2e3fd"
    ]
  ],
  "numDeployments": 1,
  "solcInputHash": "7c8b3e0ee24320628d959f3333563599",
  "bytecode": "0x60806040523480156200001157600080fd5b506040516200254a3803806200254a83398101604081905262000034916200045d565b6040518060400160405280600781526020016621b4ba34bd32b760c91b8152506040518060400160405280600381526020016221a4ad60e91b8152508160009081620000819190620005d6565b506001620000908282620005d6565b5050600880546001600160a01b0319166001600160a01b0385161790555060005b81518110156200016a57620000ea828281518110620000d457620000d4620006a2565b602002602001015160006200017360201b60201c565b6200011b6000801b838381518110620001075762000107620006a2565b60200260200101516200021760201b60201c565b620001557f75c8926d5f068ebc530646119a6c8b65785c321705e3a39f3f7898e9030b9c80838381518110620001075762000107620006a2565b806200016181620006ce565b915050620000b1565b50505062000705565b60078054600091826200018683620006ce565b909155506001600160a01b038481166000908152600a6020908152604080832080546001600160a01b0319169488169490941790935560099052208190559050620001d2838262000227565b60405181815233906001600160a01b038516907f7533f62ec6601bf9c87f8d96bf756b4b495e2a0e26ec9284e4927926ed6b3afd9060200160405180910390a3505050565b62000223828262000373565b5050565b6001600160a01b038216620002835760405162461bcd60e51b815260206004820181905260248201527f4552433732313a206d696e7420746f20746865207a65726f206164647265737360448201526064015b60405180910390fd5b6000818152600260205260409020546001600160a01b031615620002ea5760405162461bcd60e51b815260206004820152601c60248201527f4552433732313a20746f6b656e20616c7265616479206d696e7465640000000060448201526064016200027a565b6001600160a01b038216600090815260036020526040812080546001929062000315908490620006ea565b909155505060008181526002602052604080822080546001600160a01b0319166001600160a01b03861690811790915590518392907fddf252ad1be2c89b69c2b068fc378daa952ba7f163c4a11628f55a4df523b3ef908290a45050565b60008281526006602090815260408083206001600160a01b038516845290915290205460ff16620002235760008281526006602090815260408083206001600160a01b03851684529091529020805460ff19166001179055620003d33390565b6001600160a01b0316816001600160a01b0316837f2f8788117e7eff1d82e926ec794901d17c78024a50270940304540a733656f0d60405160405180910390a45050565b505050565b6001600160a01b03811681146200043257600080fd5b50565b634e487b7160e01b600052604160045260246000fd5b805162000458816200041c565b919050565b600080604083850312156200047157600080fd5b82516200047e816200041c565b602084810151919350906001600160401b03808211156200049e57600080fd5b818601915086601f830112620004b357600080fd5b815181811115620004c857620004c862000435565b8060051b604051601f19603f83011681018181108582111715620004f057620004f062000435565b6040529182528482019250838101850191898311156200050f57600080fd5b938501935b82851015620005385762000528856200044b565b8452938501939285019262000514565b8096505050505050509250929050565b600181811c908216806200055d57607f821691505b6020821081036200057e57634e487b7160e01b600052602260045260246000fd5b50919050565b601f8211156200041757600081815260208120601f850160051c81016020861015620005ad5750805b601f850160051c820191505b81811015620005ce57828155600101620005b9565b505050505050565b81516001600160401b03811115620005f257620005f262000435565b6200060a8162000603845462000548565b8462000584565b602080601f831160018114620006425760008415620006295750858301515b600019600386901b1c1916600185901b178555620005ce565b600085815260208120601f198616915b82811015620006735788860151825594840194600190910190840162000652565b5085821015620006925787850151600019600388901b60f8161c191681555b5050505050600190811b01905550565b634e487b7160e01b600052603260045260246000fd5b634e487b7160e01b600052601160045260246000fd5b600060018201620006e357620006e3620006b8565b5060010190565b60008219821115620007005762000700620006b8565b500190565b611e3580620007156000396000f3fe608060405234801561001057600080fd5b50600436106101cf5760003560e01c806374a8f10311610104578063bd7b09e4116100a2578063d547741f11610071578063d547741f146103f8578063e985e9c51461040b578063ef4ec04714610447578063f3caad031461045a57600080fd5b8063bd7b09e4146103b5578063c7b57841146103bd578063c87b56dd146103d0578063ca58f2d3146103e357600080fd5b80639d6abe4f116100de5780639d6abe4f1461035b578063a217fddf14610387578063a22cb4651461038f578063b88d4fde146103a257600080fd5b806374a8f1031461032d57806391d148541461034057806395d89b411461035357600080fd5b80632f2ff15d116101715780636352211e1161014b5780636352211e146102e157806365f68c89146102f457806370a082311461030757806371e928af1461031a57600080fd5b80632f2ff15d146102a857806336568abe146102bb57806342842e0e146102ce57600080fd5b8063095ea7b3116101ad578063095ea7b31461023c5780632267b30d1461025157806323b872dd14610264578063248a9ca31461027757600080fd5b806301ffc9a7146101d457806306fdde03146101fc578063081812fc14610211575b600080fd5b6101e76101e2366004611842565b61046d565b60405190151581526020015b60405180910390f35b61020461047e565b6040516101f391906118b7565b61022461021f3660046118ca565b610510565b6040516001600160a01b0390911681526020016101f3565b61024f61024a3660046118ff565b6105aa565b005b61024f61025f366004611929565b6106bf565b61024f610272366004611944565b6106e6565b61029a6102853660046118ca565b60009081526006602052604090206001015490565b6040519081526020016101f3565b61024f6102b6366004611980565b61072e565b61024f6102c9366004611980565b610753565b61024f6102dc366004611944565b6107cd565b6102246102ef3660046118ca565b6107e8565b61029a610302366004611929565b61085f565b61029a610315366004611929565b6108a2565b61024f610328366004611929565b610929565b61024f61033b366004611929565b610a38565b6101e761034e366004611980565b610b36565b610204610b61565b610224610369366004611929565b6001600160a01b039081166000908152600a60205260409020541690565b61029a600081565b61024f61039d3660046119ac565b610b70565b61024f6103b0366004611a57565b610b7b565b60075461029a565b6101e76103cb366004611929565b610bfd565b6102046103de3660046118ca565b610c17565b61029a600080516020611de083398151915281565b61024f610406366004611980565b610c89565b6101e7610419366004611b02565b6001600160a01b03918216600090815260056020908152604080832093909416825291909152205460ff1690565b61024f610455366004611929565b610cae565b6101e7610468366004611929565b610cf6565b600061047882610d17565b92915050565b60606000805461048d90611b2c565b80601f01602080910402602001604051908101604052809291908181526020018280546104b990611b2c565b80156105065780601f106104db57610100808354040283529160200191610506565b820191906000526020600020905b8154815290600101906020018083116104e957829003601f168201915b5050505050905090565b6000818152600260205260408120546001600160a01b031661058e5760405162461bcd60e51b815260206004820152602c60248201527f4552433732313a20617070726f76656420717565727920666f72206e6f6e657860448201526b34b9ba32b73a103a37b5b2b760a11b60648201526084015b60405180910390fd5b506000908152600460205260409020546001600160a01b031690565b60006105b5826107e8565b9050806001600160a01b0316836001600160a01b0316036106225760405162461bcd60e51b815260206004820152602160248201527f4552433732313a20617070726f76616c20746f2063757272656e74206f776e656044820152603960f91b6064820152608401610585565b336001600160a01b038216148061063e575061063e8133610419565b6106b05760405162461bcd60e51b815260206004820152603860248201527f4552433732313a20617070726f76652063616c6c6572206973206e6f74206f7760448201527f6e6572206e6f7220617070726f76656420666f7220616c6c00000000000000006064820152608401610585565b6106ba8383610d3c565b505050565b60006106ca81610daa565b6106e2600080516020611de083398151915283610c89565b5050565b60405162461bcd60e51b815260206004820152601760248201527f436974697a656e416c7068613a20536f756c626f756e640000000000000000006044820152606401610585565b60008281526006602052604090206001015461074981610daa565b6106ba8383610db7565b6001600160a01b03811633146107c35760405162461bcd60e51b815260206004820152602f60248201527f416363657373436f6e74726f6c3a2063616e206f6e6c792072656e6f756e636560448201526e103937b632b9903337b91039b2b63360891b6064820152608401610585565b6106e28282610e3d565b6106ba83838360405180602001604052806000815250610b7b565b6000818152600260205260408120546001600160a01b0316806104785760405162461bcd60e51b815260206004820152602960248201527f4552433732313a206f776e657220717565727920666f72206e6f6e657869737460448201526832b73a103a37b5b2b760b91b6064820152608401610585565b600061086a82610cf6565b6108865760405162461bcd60e51b815260040161058590611b66565b506001600160a01b031660009081526009602052604090205490565b60006001600160a01b03821661090d5760405162461bcd60e51b815260206004820152602a60248201527f4552433732313a2062616c616e636520717565727920666f7220746865207a65604482015269726f206164647265737360b01b6064820152608401610585565b506001600160a01b031660009081526003602052604090205490565b33610933816108a2565b6001146109825760405162461bcd60e51b815260206004820181905260248201527f436974697a656e416c7068613a756e617574686f72697a65642d6163636573736044820152606401610585565b61098b82610cf6565b156109d85760405162461bcd60e51b815260206004820152601f60248201527f436974697a656e416c7068613a6163746976652d636974697a656e73686970006044820152606401610585565b6109e182610ea4565b15610a2e5760405162461bcd60e51b815260206004820181905260248201527f436974697a656e416c7068613a7265766f6b65642d636974697a656e736869706044820152606401610585565b6106e28233610eca565b600080516020611de0833981519152610a5081610daa565b33610a5a816108a2565b600114610aa95760405162461bcd60e51b815260206004820181905260248201527f436974697a656e416c7068613a756e617574686f72697a65642d6163636573736044820152606401610585565b610ab283610cf6565b610ace5760405162461bcd60e51b815260040161058590611b66565b6001600160a01b038316600090815260096020526040902054610af081610f6b565b60405181815233906001600160a01b038616907fa96db3edccc72000dff77fc380cfbabe1646529eadd835eb11f2f8315669ec769060200160405180910390a350505050565b60009182526006602090815260408084206001600160a01b0393909316845291905290205460ff1690565b60606001805461048d90611b2c565b6106e2338383611006565b610b8533836110cc565b610beb5760405162461bcd60e51b815260206004820152603160248201527f4552433732313a207472616e736665722063616c6c6572206973206e6f74206f6044820152701ddb995c881b9bdc88185c1c1c9bdd9959607a1b6064820152608401610585565b610bf7848484846111c3565b50505050565b6000610478600080516020611de083398151915283610b36565b60085460405163c87b56dd60e01b8152600481018390526060916001600160a01b03169063c87b56dd90602401600060405180830381865afa158015610c61573d6000803e3d6000fd5b505050506040513d6000823e601f3d908101601f191682016040526104789190810190611b9d565b600082815260066020526040902060010154610ca481610daa565b6106ba8383610e3d565b6000610cb981610daa565b610cc282610cf6565b610cde5760405162461bcd60e51b815260040161058590611b66565b6106e2600080516020611de08339815191528361072e565b6000610d01826108a2565b600114610d0f576000610478565b600192915050565b60006001600160e01b03198216637965db0b60e01b14806104785750610478826111f6565b600081815260046020526040902080546001600160a01b0319166001600160a01b0384169081179091558190610d71826107e8565b6001600160a01b03167f8c5be1e5ebec7d5bd14f71427d1e84f3dd0314c0f7b2291e5b200ac8c7c3b92560405160405180910390a45050565b610db48133611246565b50565b610dc18282610b36565b6106e25760008281526006602090815260408083206001600160a01b03851684529091529020805460ff19166001179055610df93390565b6001600160a01b0316816001600160a01b0316837f2f8788117e7eff1d82e926ec794901d17c78024a50270940304540a733656f0d60405160405180910390a45050565b610e478282610b36565b156106e25760008281526006602090815260408083206001600160a01b0385168085529252808320805460ff1916905551339285917ff6391f5c32d9c69d2a47ea670b442974b53935d1edc7fd64eb21e047a839171b9190a45050565b6001600160a01b0381166000908152600960205260408120548103610d0f576000610478565b6007805460009182610edb83611c2a565b909155506001600160a01b038481166000908152600a6020908152604080832080546001600160a01b0319169488169490941790935560099052208190559050610f2583826112aa565b60405181815233906001600160a01b038516907f7533f62ec6601bf9c87f8d96bf756b4b495e2a0e26ec9284e4927926ed6b3afd906020015b60405180910390a3505050565b6000610f76826107e8565b9050610f83600083610d3c565b6001600160a01b0381166000908152600360205260408120805460019290610fac908490611c43565b909155505060008281526002602052604080822080546001600160a01b0319169055518391906001600160a01b038416907fddf252ad1be2c89b69c2b068fc378daa952ba7f163c4a11628f55a4df523b3ef908390a45050565b816001600160a01b0316836001600160a01b0316036110675760405162461bcd60e51b815260206004820152601960248201527f4552433732313a20617070726f766520746f2063616c6c6572000000000000006044820152606401610585565b6001600160a01b03838116600081815260056020908152604080832094871680845294825291829020805460ff191686151590811790915591519182527f17307eab39ab6107e8899845ad3d59bd9653f200f220920489ca2b5937696c319101610f5e565b6000818152600260205260408120546001600160a01b03166111455760405162461bcd60e51b815260206004820152602c60248201527f4552433732313a206f70657261746f7220717565727920666f72206e6f6e657860448201526b34b9ba32b73a103a37b5b2b760a11b6064820152608401610585565b6000611150836107e8565b9050806001600160a01b0316846001600160a01b0316148061119757506001600160a01b0380821660009081526005602090815260408083209388168352929052205460ff165b806111bb5750836001600160a01b03166111b084610510565b6001600160a01b0316145b949350505050565b6111ce8484846113ec565b6111da84848484611588565b610bf75760405162461bcd60e51b815260040161058590611c5a565b60006001600160e01b031982166380ac58cd60e01b148061122757506001600160e01b03198216635b5e139f60e01b145b8061047857506301ffc9a760e01b6001600160e01b0319831614610478565b6112508282610b36565b6106e257611268816001600160a01b03166014611689565b611273836020611689565b604051602001611284929190611cac565b60408051601f198184030181529082905262461bcd60e51b8252610585916004016118b7565b6001600160a01b0382166113005760405162461bcd60e51b815260206004820181905260248201527f4552433732313a206d696e7420746f20746865207a65726f20616464726573736044820152606401610585565b6000818152600260205260409020546001600160a01b0316156113655760405162461bcd60e51b815260206004820152601c60248201527f4552433732313a20746f6b656e20616c7265616479206d696e746564000000006044820152606401610585565b6001600160a01b038216600090815260036020526040812080546001929061138e908490611d21565b909155505060008181526002602052604080822080546001600160a01b0319166001600160a01b03861690811790915590518392907fddf252ad1be2c89b69c2b068fc378daa952ba7f163c4a11628f55a4df523b3ef908290a45050565b826001600160a01b03166113ff826107e8565b6001600160a01b0316146114635760405162461bcd60e51b815260206004820152602560248201527f4552433732313a207472616e736665722066726f6d20696e636f72726563742060448201526437bbb732b960d91b6064820152608401610585565b6001600160a01b0382166114c55760405162461bcd60e51b8152602060048201526024808201527f4552433732313a207472616e7366657220746f20746865207a65726f206164646044820152637265737360e01b6064820152608401610585565b6114d0600082610d3c565b6001600160a01b03831660009081526003602052604081208054600192906114f9908490611c43565b90915550506001600160a01b0382166000908152600360205260408120805460019290611527908490611d21565b909155505060008181526002602052604080822080546001600160a01b0319166001600160a01b0386811691821790925591518493918716917fddf252ad1be2c89b69c2b068fc378daa952ba7f163c4a11628f55a4df523b3ef91a4505050565b60006001600160a01b0384163b1561167e57604051630a85bd0160e11b81526001600160a01b0385169063150b7a02906115cc903390899088908890600401611d39565b6020604051808303816000875af1925050508015611607575060408051601f3d908101601f1916820190925261160491810190611d76565b60015b611664573d808015611635576040519150601f19603f3d011682016040523d82523d6000602084013e61163a565b606091505b50805160000361165c5760405162461bcd60e51b815260040161058590611c5a565b805181602001fd5b6001600160e01b031916630a85bd0160e11b1490506111bb565b506001949350505050565b60606000611698836002611d93565b6116a3906002611d21565b67ffffffffffffffff8111156116bb576116bb6119e8565b6040519080825280601f01601f1916602001820160405280156116e5576020820181803683370190505b509050600360fc1b8160008151811061170057611700611db2565b60200101906001600160f81b031916908160001a905350600f60fb1b8160018151811061172f5761172f611db2565b60200101906001600160f81b031916908160001a9053506000611753846002611d93565b61175e906001611d21565b90505b60018111156117d6576f181899199a1a9b1b9c1cb0b131b232b360811b85600f166010811061179257611792611db2565b1a60f81b8282815181106117a8576117a8611db2565b60200101906001600160f81b031916908160001a90535060049490941c936117cf81611dc8565b9050611761565b5083156118255760405162461bcd60e51b815260206004820181905260248201527f537472696e67733a20686578206c656e67746820696e73756666696369656e746044820152606401610585565b9392505050565b6001600160e01b031981168114610db457600080fd5b60006020828403121561185457600080fd5b81356118258161182c565b60005b8381101561187a578181015183820152602001611862565b83811115610bf75750506000910152565b600081518084526118a381602086016020860161185f565b601f01601f19169290920160200192915050565b602081526000611825602083018461188b565b6000602082840312156118dc57600080fd5b5035919050565b80356001600160a01b03811681146118fa57600080fd5b919050565b6000806040838503121561191257600080fd5b61191b836118e3565b946020939093013593505050565b60006020828403121561193b57600080fd5b611825826118e3565b60008060006060848603121561195957600080fd5b611962846118e3565b9250611970602085016118e3565b9150604084013590509250925092565b6000806040838503121561199357600080fd5b823591506119a3602084016118e3565b90509250929050565b600080604083850312156119bf57600080fd5b6119c8836118e3565b9150602083013580151581146119dd57600080fd5b809150509250929050565b634e487b7160e01b600052604160045260246000fd5b604051601f8201601f1916810167ffffffffffffffff81118282101715611a2757611a276119e8565b604052919050565b600067ffffffffffffffff821115611a4957611a496119e8565b50601f01601f191660200190565b60008060008060808587031215611a6d57600080fd5b611a76856118e3565b9350611a84602086016118e3565b925060408501359150606085013567ffffffffffffffff811115611aa757600080fd5b8501601f81018713611ab857600080fd5b8035611acb611ac682611a2f565b6119fe565b818152886020838501011115611ae057600080fd5b8160208401602083013760006020838301015280935050505092959194509250565b60008060408385031215611b1557600080fd5b611b1e836118e3565b91506119a3602084016118e3565b600181811c90821680611b4057607f821691505b602082108103611b6057634e487b7160e01b600052602260045260246000fd5b50919050565b6020808252601f908201527f436974697a656e416c7068613a6e6f742d6163746976652d636974697a656e00604082015260600190565b600060208284031215611baf57600080fd5b815167ffffffffffffffff811115611bc657600080fd5b8201601f81018413611bd757600080fd5b8051611be5611ac682611a2f565b818152856020838501011115611bfa57600080fd5b611c0b82602083016020860161185f565b95945050505050565b634e487b7160e01b600052601160045260246000fd5b600060018201611c3c57611c3c611c14565b5060010190565b600082821015611c5557611c55611c14565b500390565b60208082526032908201527f4552433732313a207472616e7366657220746f206e6f6e20455243373231526560408201527131b2b4bb32b91034b6b83632b6b2b73a32b960711b606082015260800190565b7f416363657373436f6e74726f6c3a206163636f756e7420000000000000000000815260008351611ce481601785016020880161185f565b7001034b99036b4b9b9b4b733903937b6329607d1b6017918401918201528351611d1581602884016020880161185f565b01602801949350505050565b60008219821115611d3457611d34611c14565b500190565b6001600160a01b0385811682528416602082015260408101839052608060608201819052600090611d6c9083018461188b565b9695505050505050565b600060208284031215611d8857600080fd5b81516118258161182c565b6000816000190483118215151615611dad57611dad611c14565b500290565b634e487b7160e01b600052603260045260246000fd5b600081611dd757611dd7611c14565b50600019019056fe75c8926d5f068ebc530646119a6c8b65785c321705e3a39f3f7898e9030b9c80a264697066735822122084da4799ccef7a0ca2b4e2ebf888ec2349875b60a9977c0e4fce539baa1b898f64736f6c634300080f0033",
  "devdoc": {
    "author": "Kames Geraghty",
    "events": {
      "Issued(uint256,address,address)": {
        "params": {
          "citizen": "Address of new Citizen",
          "id": "Citizen ID",
          "link": "Address of  Citizen issuing new Citizenship"
        }
      },
      "Revoked(uint256,address,address)": {
        "params": {
          "citizen": "Address of new Citizen",
          "id": "Citizen ID",
          "link": "Address of Founder revoking Citizenship"
        }
      }
    },
    "kind": "dev",
    "methods": {
      "addFounder(address)": {
        "params": {
          "citizen": "address"
        }
      },
      "approve(address,uint256)": {
        "details": "See {IERC721-approve}."
      },
      "balanceOf(address)": {
        "details": "See {IERC721-balanceOf}."
      },
      "constructor": {
        "params": {
          "_founders": "Array of Founding Citizens",
          "_metadata": "CitizenAlphaMetadata instance (manage token metadata)"
        }
      },
      "getApproved(uint256)": {
        "details": "See {IERC721-getApproved}."
      },
      "getId(address)": {
        "params": {
          "citizen": "address"
        },
        "returns": {
          "_0": "id uint256"
        }
      },
      "getLink(address)": {
        "params": {
          "citizen": "address"
        },
        "returns": {
          "issuer": "address"
        }
      },
      "getRoleAdmin(bytes32)": {
        "details": "Returns the admin role that controls `role`. See {grantRole} and {revokeRole}. To change a role's admin, use {_setRoleAdmin}."
      },
      "grantRole(bytes32,address)": {
        "details": "Grants `role` to `account`. If `account` had not been already granted `role`, emits a {RoleGranted} event. Requirements: - the caller must have ``role``'s admin role."
      },
      "hasRole(bytes32,address)": {
        "details": "Returns `true` if `account` has been granted `role`."
      },
      "isApprovedForAll(address,address)": {
        "details": "See {IERC721-isApprovedForAll}."
      },
      "isCitizen(address)": {
        "params": {
          "citizen": "Address of potential Citizen"
        },
        "returns": {
          "status": "bool"
        }
      },
      "isFounder(address)": {
        "params": {
          "founder": "address"
        },
        "returns": {
          "status": "bool"
        }
      },
      "issue(address)": {
        "params": {
          "to": "address"
        }
      },
      "name()": {
        "details": "See {IERC721Metadata-name}."
      },
      "ownerOf(uint256)": {
        "details": "See {IERC721-ownerOf}."
      },
      "removeFounder(address)": {
        "params": {
          "citizen": "address"
        }
      },
      "renounceRole(bytes32,address)": {
        "details": "Revokes `role` from the calling account. Roles are often managed via {grantRole} and {revokeRole}: this function's purpose is to provide a mechanism for accounts to lose their privileges if they are compromised (such as when a trusted device is misplaced). If the calling account had been revoked `role`, emits a {RoleRevoked} event. Requirements: - the caller must be `account`."
      },
      "revoke(address)": {
        "params": {
          "from": "address"
        }
      },
      "revokeRole(bytes32,address)": {
        "details": "Revokes `role` from `account`. If `account` had been granted `role`, emits a {RoleRevoked} event. Requirements: - the caller must have ``role``'s admin role."
      },
      "safeTransferFrom(address,address,uint256)": {
        "details": "See {IERC721-safeTransferFrom}."
      },
      "safeTransferFrom(address,address,uint256,bytes)": {
        "details": "See {IERC721-safeTransferFrom}."
      },
      "setApprovalForAll(address,bool)": {
        "details": "See {IERC721-setApprovalForAll}."
      },
      "symbol()": {
        "details": "See {IERC721Metadata-symbol}."
      },
      "tokenURI(uint256)": {
        "params": {
          "tokenId": "uint256"
        },
        "returns": {
          "_0": "metadata string"
        }
      },
      "totalCitizens()": {
        "returns": {
          "_0": "totalCitizens uint256"
        }
      }
    },
    "title": "CitizenAlpha",
    "version": 1
  },
  "userdoc": {
    "events": {
      "Issued(uint256,address,address)": {
        "notice": "Emit when Citizenship is issued."
      },
      "Revoked(uint256,address,address)": {
        "notice": "Emit when Citizenship is revoked."
      }
    },
    "kind": "user",
    "methods": {
      "FOUNDER()": {
        "notice": "Founder Role to enforce access controls"
      },
      "addFounder(address)": {
        "notice": "Add Founder access"
      },
      "constructor": {
        "notice": "GaugeController Construction"
      },
      "getId(address)": {
        "notice": "Check Citizenship ID"
      },
      "getLink(address)": {
        "notice": "Lookup the issuer of Citizenship"
      },
      "isCitizen(address)": {
        "notice": "Check Citizenship status"
      },
      "isFounder(address)": {
        "notice": "Check Founder status"
      },
      "issue(address)": {
        "notice": "Issue a new Citizenship"
      },
      "removeFounder(address)": {
        "notice": "Remove Founder access"
      },
      "revoke(address)": {
        "notice": "Revoke an existing Citizenship"
      },
      "tokenURI(uint256)": {
        "notice": "Generate token URI"
      },
      "totalCitizens()": {
        "notice": "Read totalCitizens (_idCounter)"
      },
      "transferFrom(address,address,uint256)": {
        "notice": "Override transferFrom to make non-transferable"
      }
    },
    "notice": "CitizenAlpha is a Web3 of Trust experiment. Combining Soulbounds and Decentralized Identifiers to bootstrap a Decentralized Society.",
    "version": 1
  },
  "storageLayout": {
    "storage": [
      {
        "astId": 1212,
        "contract": "contracts/CitizenAlpha.sol:CitizenAlpha",
        "label": "_name",
        "offset": 0,
        "slot": "0",
        "type": "t_string_storage"
      },
      {
        "astId": 1214,
        "contract": "contracts/CitizenAlpha.sol:CitizenAlpha",
        "label": "_symbol",
        "offset": 0,
        "slot": "1",
        "type": "t_string_storage"
      },
      {
        "astId": 1218,
        "contract": "contracts/CitizenAlpha.sol:CitizenAlpha",
        "label": "_owners",
        "offset": 0,
        "slot": "2",
        "type": "t_mapping(t_uint256,t_address)"
      },
      {
        "astId": 1222,
        "contract": "contracts/CitizenAlpha.sol:CitizenAlpha",
        "label": "_balances",
        "offset": 0,
        "slot": "3",
        "type": "t_mapping(t_address,t_uint256)"
      },
      {
        "astId": 1226,
        "contract": "contracts/CitizenAlpha.sol:CitizenAlpha",
        "label": "_tokenApprovals",
        "offset": 0,
        "slot": "4",
        "type": "t_mapping(t_uint256,t_address)"
      },
      {
        "astId": 1232,
        "contract": "contracts/CitizenAlpha.sol:CitizenAlpha",
        "label": "_operatorApprovals",
        "offset": 0,
        "slot": "5",
        "type": "t_mapping(t_address,t_mapping(t_address,t_bool))"
      },
      {
        "astId": 24,
        "contract": "contracts/CitizenAlpha.sol:CitizenAlpha",
        "label": "_roles",
        "offset": 0,
        "slot": "6",
        "type": "t_mapping(t_bytes32,t_struct(RoleData)19_storage)"
      },
      {
        "astId": 2910,
        "contract": "contracts/CitizenAlpha.sol:CitizenAlpha",
        "label": "_idCounter",
        "offset": 0,
        "slot": "7",
        "type": "t_uint256"
      },
      {
        "astId": 2914,
        "contract": "contracts/CitizenAlpha.sol:CitizenAlpha",
        "label": "metadata",
        "offset": 0,
        "slot": "8",
        "type": "t_contract(CitizenAlphaMetadata)4161"
      },
      {
        "astId": 2919,
        "contract": "contracts/CitizenAlpha.sol:CitizenAlpha",
        "label": "_tokens",
        "offset": 0,
        "slot": "9",
        "type": "t_mapping(t_address,t_uint256)"
      },
      {
        "astId": 2924,
        "contract": "contracts/CitizenAlpha.sol:CitizenAlpha",
        "label": "_citizenLinks",
        "offset": 0,
        "slot": "10",
        "type": "t_mapping(t_address,t_address)"
      }
    ],
    "types": {
      "t_address": {
        "encoding": "inplace",
        "label": "address",
        "numberOfBytes": "20"
      },
      "t_bool": {
        "encoding": "inplace",
        "label": "bool",
        "numberOfBytes": "1"
      },
      "t_bytes32": {
        "encoding": "inplace",
        "label": "bytes32",
        "numberOfBytes": "32"
      },
      "t_contract(CitizenAlphaMetadata)4161": {
        "encoding": "inplace",
        "label": "contract CitizenAlphaMetadata",
        "numberOfBytes": "20"
      },
      "t_mapping(t_address,t_address)": {
        "encoding": "mapping",
        "key": "t_address",
        "label": "mapping(address => address)",
        "numberOfBytes": "32",
        "value": "t_address"
      },
      "t_mapping(t_address,t_bool)": {
        "encoding": "mapping",
        "key": "t_address",
        "label": "mapping(address => bool)",
        "numberOfBytes": "32",
        "value": "t_bool"
      },
      "t_mapping(t_address,t_mapping(t_address,t_bool))": {
        "encoding": "mapping",
        "key": "t_address",
        "label": "mapping(address => mapping(address => bool))",
        "numberOfBytes": "32",
        "value": "t_mapping(t_address,t_bool)"
      },
      "t_mapping(t_address,t_uint256)": {
        "encoding": "mapping",
        "key": "t_address",
        "label": "mapping(address => uint256)",
        "numberOfBytes": "32",
        "value": "t_uint256"
      },
      "t_mapping(t_bytes32,t_struct(RoleData)19_storage)": {
        "encoding": "mapping",
        "key": "t_bytes32",
        "label": "mapping(bytes32 => struct AccessControl.RoleData)",
        "numberOfBytes": "32",
        "value": "t_struct(RoleData)19_storage"
      },
      "t_mapping(t_uint256,t_address)": {
        "encoding": "mapping",
        "key": "t_uint256",
        "label": "mapping(uint256 => address)",
        "numberOfBytes": "32",
        "value": "t_address"
      },
      "t_string_storage": {
        "encoding": "bytes",
        "label": "string",
        "numberOfBytes": "32"
      },
      "t_struct(RoleData)19_storage": {
        "encoding": "inplace",
        "label": "struct AccessControl.RoleData",
        "members": [
          {
            "astId": 16,
            "contract": "contracts/CitizenAlpha.sol:CitizenAlpha",
            "label": "members",
            "offset": 0,
            "slot": "0",
            "type": "t_mapping(t_address,t_bool)"
          },
          {
            "astId": 18,
            "contract": "contracts/CitizenAlpha.sol:CitizenAlpha",
            "label": "adminRole",
            "offset": 0,
            "slot": "1",
            "type": "t_bytes32"
          }
        ],
        "numberOfBytes": "64"
      },
      "t_uint256": {
        "encoding": "inplace",
        "label": "uint256",
        "numberOfBytes": "32"
      }
    }
  }
}