{
  "address": "0x519C821A213c3DCc3463a9158Ad9523F46964827",
  "abi": [
    {
      "inputs": [
        {
          "internalType": "contract SVGColor",
          "name": "_svgColor",
          "type": "address"
        }
      ],
      "stateMutability": "nonpayable",
      "type": "constructor"
    },
    {
      "anonymous": false,
      "inputs": [
        {
          "indexed": true,
          "internalType": "address",
          "name": "previousOwner",
          "type": "address"
        },
        {
          "indexed": true,
          "internalType": "address",
          "name": "newOwner",
          "type": "address"
        }
      ],
      "name": "OwnershipTransferred",
      "type": "event"
    },
    {
      "inputs": [],
      "name": "owner",
      "outputs": [
        {
          "internalType": "address",
          "name": "",
          "type": "address"
        }
      ],
      "stateMutability": "view",
      "type": "function"
    },
    {
      "inputs": [
        {
          "internalType": "string",
          "name": "_key",
          "type": "string"
        }
      ],
      "name": "pushTraitField",
      "outputs": [],
      "stateMutability": "nonpayable",
      "type": "function"
    },
    {
      "inputs": [],
      "name": "renounceOwnership",
      "outputs": [],
      "stateMutability": "nonpayable",
      "type": "function"
    },
    {
      "inputs": [
        {
          "internalType": "contract CitizenAlpha",
          "name": "_token",
          "type": "address"
        }
      ],
      "name": "setToken",
      "outputs": [],
      "stateMutability": "nonpayable",
      "type": "function"
    },
    {
      "inputs": [
        {
          "internalType": "uint256",
          "name": "_index",
          "type": "uint256"
        },
        {
          "internalType": "string",
          "name": "_key",
          "type": "string"
        }
      ],
      "name": "setTraitField",
      "outputs": [],
      "stateMutability": "nonpayable",
      "type": "function"
    },
    {
      "inputs": [],
      "name": "svgColor",
      "outputs": [
        {
          "internalType": "contract SVGColor",
          "name": "",
          "type": "address"
        }
      ],
      "stateMutability": "view",
      "type": "function"
    },
    {
      "inputs": [
        {
          "internalType": "uint256",
          "name": "tokenId",
          "type": "uint256"
        }
      ],
      "name": "tokenURI",
      "outputs": [
        {
          "internalType": "string",
          "name": "",
          "type": "string"
        }
      ],
      "stateMutability": "view",
      "type": "function"
    },
    {
      "inputs": [
        {
          "internalType": "address",
          "name": "newOwner",
          "type": "address"
        }
      ],
      "name": "transferOwnership",
      "outputs": [],
      "stateMutability": "nonpayable",
      "type": "function"
    }
  ],
  "transactionHash": "0x1322307417f9bd0267ae259e2722b93d303f4e5fcde45feef8a314718734a88c",
  "args": [
    "0xBfa9c6F96CBF4035a3EC79B6512972c1618CcaB2"
  ],
  "numDeployments": 1,
  "solcInputHash": "7c8b3e0ee24320628d959f3333563599",
  "bytecode": "0x6080604052600380546001600160a01b03199081166e0c2e074ec69a0dfb2997ba6c7d2e1e17909155600480548216734976fb03c32e5b8cfe2b6ccb31c09ba78ebaba4117905560058054821673084b1c3c81545d370f3634392de611caabff81481790556006805490911673a2c122be93b0074270ebee7f6b7292c7deb450471790553480156200009057600080fd5b5060405162002d6938038062002d69833981016040819052620000b39162000360565b620000be3362000310565b600280546001600160a01b0319166001600160a01b0383161790556007805460018101825560009190915260408051808201909152600681526530bb30ba30b960d11b602082015260008051602062002d498339815191529091019062000126908262000437565b50600780546001810182556000919091526040805180820190915260038152621d5c9b60ea1b602082015260008051602062002d498339815191529091019062000171908262000437565b506007805460018101825560009190915260408051808201909152600b81526a3232b9b1b934b83a34b7b760a91b602082015260008051602062002d4983398151915290910190620001c4908262000437565b506007805460018101825560009190915260408051808201909152600a81526931b7b69733b4ba343ab160b11b602082015260008051602062002d498339815191529091019062000216908262000437565b506007805460018101825560009190915260408051808201909152600b81526a31b7b6973a3bb4ba3a32b960a91b602082015260008051602062002d498339815191529091019062000269908262000437565b506007805460018101825560009190915260408051808201909152600c81526b6f72672e74656c656772616d60a01b602082015260008051602062002d4983398151915290910190620002bd908262000437565b5060078054600181018255600091909152604080518082019091526003815262191a5960ea1b602082015260008051602062002d498339815191529091019062000308908262000437565b505062000503565b600080546001600160a01b038381166001600160a01b0319831681178455604051919092169283917f8be0079c531659141344cd1fd0a4f28419497f9722a3daafe3b4186f6b6457e09190a35050565b6000602082840312156200037357600080fd5b81516001600160a01b03811681146200038b57600080fd5b9392505050565b634e487b7160e01b600052604160045260246000fd5b600181811c90821680620003bd57607f821691505b602082108103620003de57634e487b7160e01b600052602260045260246000fd5b50919050565b601f8211156200043257600081815260208120601f850160051c810160208610156200040d5750805b601f850160051c820191505b818110156200042e5782815560010162000419565b5050505b505050565b81516001600160401b0381111562000453576200045362000392565b6200046b81620004648454620003a8565b84620003e4565b602080601f831160018114620004a357600084156200048a5750858301515b600019600386901b1c1916600185901b1785556200042e565b600085815260208120601f198616915b82811015620004d457888601518255948401946001909101908401620004b3565b5085821015620004f35787850151600019600388901b60f8161c191681555b5050505050600190811b01905550565b61283680620005136000396000f3fe608060405234801561001057600080fd5b50600436106100885760003560e01c80638da5cb5b1161005b5780638da5cb5b146100ed578063c87b56dd146100fe578063ce1bca5d1461011e578063f2fde38b1461013157600080fd5b8063144fa6d71461008d57806326913cc3146100a25780635942fda9146100b5578063715018a6146100e5575b600080fd5b6100a061009b366004611cf8565b610144565b005b6100a06100b0366004611d5e565b610199565b6002546100c8906001600160a01b031681565b6040516001600160a01b0390911681526020015b60405180910390f35b6100a0610205565b6000546001600160a01b03166100c8565b61011161010c366004611da0565b61023b565b6040516100dc9190611e11565b6100a061012c366004611e24565b61024c565b6100a061013f366004611cf8565b6102a8565b6000546001600160a01b031633146101775760405162461bcd60e51b815260040161016e90611e70565b60405180910390fd5b600180546001600160a01b0319166001600160a01b0392909216919091179055565b6000546001600160a01b031633146101c35760405162461bcd60e51b815260040161016e90611e70565b600780546001810182556000919091527fa66cc928b5edb82af9bd49922954155ab7b0942694bea4ce44661d9a8736c68801610200828483611f43565b505050565b6000546001600160a01b0316331461022f5760405162461bcd60e51b815260040161016e90611e70565b6102396000610343565b565b606061024682610393565b92915050565b6000546001600160a01b031633146102765760405162461bcd60e51b815260040161016e90611e70565b81816007858154811061028b5761028b612004565b9060005260206000200191826102a2929190611f43565b50505050565b6000546001600160a01b031633146102d25760405162461bcd60e51b815260040161016e90611e70565b6001600160a01b0381166103375760405162461bcd60e51b815260206004820152602660248201527f4f776e61626c653a206e6577206f776e657220697320746865207a65726f206160448201526564647265737360d01b606482015260840161016e565b61034081610343565b50565b600080546001600160a01b038381166001600160a01b0319831681178455604051919092169283917f8be0079c531659141344cd1fd0a4f28419497f9722a3daafe3b4186f6b6457e09190a35050565b6001546040516331a9108f60e11b8152600481018390526060916000916001600160a01b0390911690636352211e90602401602060405180830381865afa1580156103e2573d6000803e3d6000fd5b505050506040513d601f19601f82011682018060405250810190610406919061201a565b9050600080600061041684610809565b925092509250600061042787610921565b6040516020016104379190612053565b604051602081830303815290604052905060008085511161046b57610466866001600160a01b03166014610a2a565b61046d565b845b9050600061050c846001600160a01b03166359d1d43c876040518263ffffffff1660e01b81526004016104c09181526040602082018190526006908201526530bb30ba30b960d11b606082015260800190565b600060405180830381865afa1580156104dd573d6000803e3d6000fd5b505050506040513d6000823e601f3d908101601f191682016040526105059190810190612084565b8a88610bcd565b90506000806105ed6007805480602002602001604051908101604052809291908181526020016000905b828210156105e257838290600052602060002001805461055590611ebb565b80601f016020809104026020016040519081016040528092919081815260200182805461058190611ebb565b80156105ce5780601f106105a3576101008083540402835291602001916105ce565b820191906000526020600020905b8154815290600101906020018083116105b157829003601f168201915b505050505081526020019060010190610536565b505050508888610c18565b600154604051639d6abe4f60e01b81526001600160a01b038d811660048301529395509193506000921690639d6abe4f90602401602060405180830381865afa15801561063e573d6000803e3d6000fd5b505050506040513d601f19601f82011682018060405250810190610662919061201a565b60015460405163c7b5784160e01b81526001600160a01b038d811660048301529293506000929091169063c7b5784190602401602060405180830381865afa1580156106b2573d6000803e3d6000fd5b505050506040513d601f19601f820116820180604052508101906106d69190612131565b905060006106e48585610dcb565b90506107d78888888461075d6040518060400160405280600981526020016834b9a337bab73232b960b91b8152508861073a576040518060400160405280600581526020016466616c736560d81b815250610e86565b604051806040016040528060048152602001637472756560e01b8152505b610e86565b610791604051806040016040528060048152602001636c696e6b60e01b8152506107588b6001600160a01b03166014610a2a565b6040516020016107a393929190612153565b60408051601f19818403018152908290526107c3949392916020016121a3565b604051602081830303815290604052610eb2565b6040516020016107e79190612294565b6040516020818303038152906040529c50505050505050505050505050919050565b600554604051632ffef98760e21b81526001600160a01b03838116600483015260609260009283928392169063bffbe61c90602401602060405180830381865afa15801561085b573d6000803e3d6000fd5b505050506040513d601f19601f8201168201806040525081019061087f91906122d9565b60065460405163691f343160e01b8152600481018390529192506000916001600160a01b039091169063691f343190602401600060405180830381865afa1580156108ce573d6000803e3d6000fd5b505050506040513d6000823e601f3d908101601f191682016040526108f69190810190612084565b9050600061090382611017565b60045493999098506001600160a01b03909316965091945050505050565b6060816000036109485750506040805180820190915260018152600360fc1b602082015290565b8160005b8115610972578061095c81612308565b915061096b9050600a83612337565b915061094c565b60008167ffffffffffffffff81111561098d5761098d611ea5565b6040519080825280601f01601f1916602001820160405280156109b7576020820181803683370190505b5090505b8415610a22576109cc60018361234b565b91506109d9600a86612362565b6109e4906030612376565b60f81b8183815181106109f9576109f9612004565b60200101906001600160f81b031916908160001a905350610a1b600a86612337565b94506109bb565b949350505050565b60606000610a3983600261238e565b610a44906002612376565b67ffffffffffffffff811115610a5c57610a5c611ea5565b6040519080825280601f01601f191660200182016040528015610a86576020820181803683370190505b509050600360fc1b81600081518110610aa157610aa1612004565b60200101906001600160f81b031916908160001a905350600f60fb1b81600181518110610ad057610ad0612004565b60200101906001600160f81b031916908160001a9053506000610af484600261238e565b610aff906001612376565b90505b6001811115610b77576f181899199a1a9b1b9c1cb0b131b232b360811b85600f1660108110610b3357610b33612004565b1a60f81b828281518110610b4957610b49612004565b60200101906001600160f81b031916908160001a90535060049490941c93610b70816123ad565b9050610b02565b508315610bc65760405162461bcd60e51b815260206004820181905260248201527f537472696e67733a20686578206c656e67746820696e73756666696369656e74604482015260640161016e565b9392505050565b60608351600003610c1057610bea610be5848461120c565b610eb2565b604051602001610bfa91906123c4565b6040516020818303038152906040529050610bc6565b509192915050565b6060806000855167ffffffffffffffff811115610c3757610c37611ea5565b604051908082528060200260200182016040528015610c6a57816020015b6060815260200190600190039081610c555790505b5090506000865167ffffffffffffffff811115610c8957610c89611ea5565b604051908082528060200260200182016040528015610cbc57816020015b6060815260200190600190039081610ca75790505b50905060005b8751811015610dbe57878181518110610cdd57610cdd612004565b6020026020010151838281518110610cf757610cf7612004565b6020026020010181905250856001600160a01b03166359d1d43c888a8481518110610d2457610d24612004565b60200260200101516040518363ffffffff1660e01b8152600401610d49929190612409565b600060405180830381865afa158015610d66573d6000803e3d6000fd5b505050506040513d6000823e601f3d908101601f19168201604052610d8e9190810190612084565b828281518110610da057610da0612004565b60200260200101819052508080610db690612308565b915050610cc2565b5090969095509350505050565b60408051602081019091526000808252606091905b8451811015610e7e576000848281518110610dfd57610dfd612004565b6020026020010151511115610e6c5781610e49868381518110610e2257610e22612004565b6020026020010151868481518110610e3c57610e3c612004565b6020026020010151610e86565b604051602001610e5a929190612422565b60405160208183030381529060405291505b80610e7681612308565b915050610de0565b509392505050565b60608282604051602001610e9b92919061245d565b604051602081830303815290604052905092915050565b60608151600003610ed157505060408051602081019091526000815290565b60006040518060600160405280604081526020016127c16040913990506000600384516002610f009190612376565b610f0a9190612337565b610f1590600461238e565b90506000610f24826020612376565b67ffffffffffffffff811115610f3c57610f3c611ea5565b6040519080825280601f01601f191660200182016040528015610f66576020820181803683370190505b509050818152600183018586518101602084015b81831015610fd2576003830192508251603f8160121c168501518253600182019150603f81600c1c168501518253600182019150603f8160061c168501518253600182019150603f8116850151825350600101610f7a565b600389510660018114610fec5760028114610ffd57611009565b613d3d60f01b600119830152611009565b603d60f81b6000198301525b509398975050505050505050565b80516060906000908190849061102e816002612376565b67ffffffffffffffff81111561104657611046611ea5565b6040519080825280601f01601f191660200182016040528015611070576020820181803683370190505b509450600093508084036110b557600060f81b8560008151811061109657611096612004565b60200101906001600160f81b031916908160001a905350505050915091565b60001981015b8281815181106110cd576110cd612004565b01602001516001600160f81b031916601760f91b0361115b578360f81b8682600101815181106110ff576110ff612004565b60200101906001600160f81b031916908160001a90535084611128846001840160ff88166117b4565b604080516020810193909352820152606001604051602081830303815290604052805190602001209450600093506111ab565b60018401935082818151811061117357611173612004565b602001015160f81c60f81b86826001018151811061119357611193612004565b60200101906001600160f81b031916908160001a9053505b80156111ba57600019016110bb565b50836111cb83600060ff87166117b4565b6040805160208101939093528201526060016040516020818303038152906040528051906020012093508260f81b8560008151811061109657611096612004565b606060006112396040518060400160405280600881526020016718da185c98dbd85b60c21b8152506117d8565b9050611243611801565b61124b6118cb565b6113a561127460405180604001604052806004815260200163199a5b1b60e21b81525085611ba7565b6112b0604051806040016040528060018152602001600f60fb1b815250604051806040016040528060018152602001600360fc1b815250611ba7565b6112ec604051806040016040528060018152602001607960f81b815250604051806040016040528060018152602001600360fc1b815250611ba7565b61132f604051806040016040528060058152602001640eed2c8e8d60db1b815250604051806040016040528060048152602001633130302560e01b815250611ba7565b611373604051806040016040528060068152602001651a195a59da1d60d21b815250604051806040016040528060048152602001633130302560e01b815250611ba7565b6040516020016113879594939291906124e0565b60408051601f19818403018152602083019091526000825290611bbc565b61159b6113e6604051806040016040528060018152602001600f60fb1b8152506040518060400160405280600381526020016235302560e81b815250611ba7565b611424604051806040016040528060018152602001607960f81b8152506040518060400160405280600381526020016235302560e81b815250611ba7565b61147560405180604001604052806011815260200170646f6d696e616e742d626173656c696e6560781b815250604051806040016040528060068152602001656d6964646c6560d01b815250611ba7565b6114c06040518060400160405280600b81526020016a3a32bc3a16b0b731b437b960a91b815250604051806040016040528060068152602001656d6964646c6560d01b815250611ba7565b61150760405180604001604052806009815260200168666f6e742d73697a6560b81b8152506040518060400160405280600481526020016306870e0f60e31b815250611ba7565b61154a60405180604001604052806004815260200163199a5b1b60e21b81525060405180604001604052806005815260200164776869746560d81b815250611ba7565b60405160200161155f9695949392919061254b565b60405160208183030381529060405261157789610921565b60405160200161158791906125ca565b604051602081830303815290604052611be5565b61176a6115dc604051806040016040528060018152602001600f60fb1b8152506040518060400160405280600381526020016235302560e81b815250611ba7565b61161a604051806040016040528060018152602001607960f81b8152506040518060400160405280600381526020016236302560e81b815250611ba7565b61166b60405180604001604052806011815260200170646f6d696e616e742d626173656c696e6560781b815250604051806040016040528060068152602001656d6964646c6560d01b815250611ba7565b6116b66040518060400160405280600b81526020016a3a32bc3a16b0b731b437b960a91b815250604051806040016040528060068152602001656d6964646c6560d01b815250611ba7565b6116fd60405180604001604052806009815260200168666f6e742d73697a6560b81b8152506040518060400160405280600481526020016306464e0f60e31b815250611ba7565b61174060405180604001604052806004815260200163199a5b1b60e21b81525060405180604001604052806005815260200164776869746560d81b815250611ba7565b6040516020016117559695949392919061254b565b60405160208183030381529060405288611be5565b6040805180820190915260068152651e17b9bb339f60d11b602082015260405160200161179c9695949392919061254b565b60405160208183030381529060405291505092915050565b82516000906117c38385612376565b11156117ce57600080fd5b5091016020012090565b6060816040516020016117eb91906125f7565b6040516020818303038152906040529050919050565b60606040516020016118b7907f3c7376672077696474683d2234303022206865696768743d223430302220737481527f796c653d226261636b67726f756e643a2335343135363322200000000000000060208201527503b34b2bba137bc1e91181018101a1818101a181811160551b60398201527f786d6c6e733d22687474703a2f2f7777772e77332e6f72672f323030302f7376604f8201526203391160ed1b606f820152601f60f91b607282015260730190565b604051602081830303815290604052905090565b6060611ba2611b7e611917604051806040016040528060028152602001611a5960f21b8152506040518060400160405280600881526020016718da185c98dbd85b60c21b815250611ba7565b61196d604051806040016040528060118152602001706772616469656e745472616e73666f726d60781b8152506040518060400160405280600b81526020016a726f74617465283134302960a81b815250611ba7565b60405160200161197e92919061262f565b604051602081830303815290604052611aaa6119d2604051806040016040528060068152602001651bd9999cd95d60d21b81525060405180604001604052806002815260200161302560f01b815250611ba7565b604080518082018252600a81526939ba37b816b1b7b637b960b11b60208201526002549151630cde589160e41b8152611a85926001600160a01b03169063cde5891090611a3b906004016020808252600590820152644461726b3160d81b604082015260600190565b600060405180830381865afa158015611a58573d6000803e3d6000fd5b505050506040513d6000823e601f3d908101601f19168201604052611a809190810190612084565b611ba7565b604051602001611a9692919061262f565b604051602081830303815290604052611c0e565b611b59611af0604051806040016040528060068152602001651bd9999cd95d60d21b8152506040518060400160405280600381526020016237302560e81b815250611ba7565b604080518082018252600a81526939ba37b816b1b7b637b960b11b60208201526002549151630cde589160e41b8152611a85926001600160a01b03169063cde5891090611a3b906004016020808252600590820152642230b9359960d91b604082015260600190565b604051602001611b6a92919061262f565b604051602081830303815290604052611c36565b604051602001611b8e919061265e565b604051602081830303815290604052611c69565b905090565b60608282604051602001610e9b92919061267a565b6060610bc6604051806040016040528060048152602001631c9958dd60e21b8152508484611c9d565b6060610bc6604051806040016040528060048152602001631d195e1d60e21b8152508484611c9d565b606061024660405180604001604052806004815260200163073746f760e41b81525083611cce565b6060610bc66040518060400160405280600e81526020016d1b1a5b99585c91dc98591a595b9d60921b8152508484611c9d565b6060610246604051806040016040528060048152602001636465667360e01b81525060405180602001604052806000815250845b606083838386604051602001611cb694939291906126cf565b60405160208183030381529060405290509392505050565b60608282604051602001610e9b929190612768565b6001600160a01b038116811461034057600080fd5b600060208284031215611d0a57600080fd5b8135610bc681611ce3565b60008083601f840112611d2757600080fd5b50813567ffffffffffffffff811115611d3f57600080fd5b602083019150836020828501011115611d5757600080fd5b9250929050565b60008060208385031215611d7157600080fd5b823567ffffffffffffffff811115611d8857600080fd5b611d9485828601611d15565b90969095509350505050565b600060208284031215611db257600080fd5b5035919050565b60005b83811015611dd4578181015183820152602001611dbc565b838111156102a25750506000910152565b60008151808452611dfd816020860160208601611db9565b601f01601f19169290920160200192915050565b602081526000610bc66020830184611de5565b600080600060408486031215611e3957600080fd5b83359250602084013567ffffffffffffffff811115611e5757600080fd5b611e6386828701611d15565b9497909650939450505050565b6020808252818101527f4f776e61626c653a2063616c6c6572206973206e6f7420746865206f776e6572604082015260600190565b634e487b7160e01b600052604160045260246000fd5b600181811c90821680611ecf57607f821691505b602082108103611eef57634e487b7160e01b600052602260045260246000fd5b50919050565b601f82111561020057600081815260208120601f850160051c81016020861015611f1c5750805b601f850160051c820191505b81811015611f3b57828155600101611f28565b505050505050565b67ffffffffffffffff831115611f5b57611f5b611ea5565b611f6f83611f698354611ebb565b83611ef5565b6000601f841160018114611fa35760008515611f8b5750838201355b600019600387901b1c1916600186901b178355611ffd565b600083815260209020601f19861690835b82811015611fd45786850135825560209485019460019092019101611fb4565b5086821015611ff15760001960f88860031b161c19848701351681555b505060018560011b0183555b5050505050565b634e487b7160e01b600052603260045260246000fd5b60006020828403121561202c57600080fd5b8151610bc681611ce3565b60008151612049818560208601611db9565b9290920192915050565b68436974697a656e202360b81b815260008251612077816009850160208701611db9565b9190910160090192915050565b60006020828403121561209657600080fd5b815167ffffffffffffffff808211156120ae57600080fd5b818401915084601f8301126120c257600080fd5b8151818111156120d4576120d4611ea5565b604051601f8201601f19908116603f011681019083821181831017156120fc576120fc611ea5565b8160405282815287602084870101111561211557600080fd5b612126836020830160208801611db9565b979650505050505050565b60006020828403121561214357600080fd5b81518015158114610bc657600080fd5b60008451612165818460208901611db9565b845190830190612179818360208901611db9565b600b60fa1b91019081528351612196816001840160208801611db9565b0160010195945050505050565b673d913730b6b2911d60c11b8152601160f91b600882015284516000906121d1816009850160208a01611db9565b61088b60f21b6009918401918201526d113232b9b1b934b83a34b7b7111d60911b600b82015261220760198201601160f91b9052565b612214601a820187612037565b61088b60f21b81529050671134b6b0b3b2911d60c11b6002820152601160f91b600a820152612246600b820186612037565b61088b60f21b815290506e2261747472696275746573223a205b60881b60028201526122756011820185612037565b605d60f81b8152607d60f81b6001820152600201979650505050505050565b7f646174613a6170706c69636174696f6e2f6a736f6e3b6261736536342c0000008152600082516122cc81601d850160208701611db9565b91909101601d0192915050565b6000602082840312156122eb57600080fd5b5051919050565b634e487b7160e01b600052601160045260246000fd5b60006001820161231a5761231a6122f2565b5060010190565b634e487b7160e01b600052601260045260246000fd5b60008261234657612346612321565b500490565b60008282101561235d5761235d6122f2565b500390565b60008261237157612371612321565b500690565b60008219821115612389576123896122f2565b500190565b60008160001904831182151516156123a8576123a86122f2565b500290565b6000816123bc576123bc6122f2565b506000190190565b7f646174613a696d6167652f7376672b786d6c3b6261736536342c0000000000008152600082516123fc81601a850160208701611db9565b91909101601a0192915050565b828152604060208201526000610a226040830184611de5565b60008351612434818460208801611db9565b835190830190612448818360208801611db9565b600b60fa1b9101908152600101949350505050565b6e3d913a3930b4ba2fba3cb832911d1160891b8152825160009061248881600f850160208801611db9565b61088b60f21b600f9184019182015267113b30b63ab2911d60c11b6011820152601160f91b601982015283516124c581601a840160208801611db9565b61227d60f01b601a9290910191820152601c01949350505050565b600086516124f2818460208b01611db9565b865190830190612506818360208b01611db9565b8651910190612519818360208a01611db9565b855191019061252c818360208901611db9565b845191019061253f818360208801611db9565b01979650505050505050565b60008751602061255e8285838d01611db9565b8851918401916125718184848d01611db9565b88519201916125838184848c01611db9565b87519201916125958184848b01611db9565b86519201916125a78184848a01611db9565b85519201916125b98184848901611db9565b919091019998505050505050505050565b64434956202360d81b8152600082516125ea816005850160208701611db9565b9190910160050192915050565b6475726c282360d81b815260008251612617816005850160208701611db9565b602960f81b6005939091019283015250600601919050565b60008351612641818460208801611db9565b835190830190612655818360208801611db9565b01949350505050565b60008251612670818460208701611db9565b9190910192915050565b6000835161268c818460208801611db9565b603d60f81b908301908152601160f91b600182015283516126b4816002840160208801611db9565b61011160f51b60029290910191820152600401949350505050565b600f60fa1b8152600085516126eb816001850160208a01611db9565b600160fd1b600191840191820152855161270c816002840160208a01611db9565b808201915050601f60f91b8060028301528551612730816003850160208a01611db9565b613c2f60f01b600393909101928301528451612753816005850160208901611db9565b60059201918201526006019695505050505050565b600f60fa1b815260008351612784816001850160208801611db9565b600160fd1b60019184019182015283516127a5816002840160208801611db9565b61179f60f11b6002929091019182015260040194935050505056fe4142434445464748494a4b4c4d4e4f505152535455565758595a6162636465666768696a6b6c6d6e6f707172737475767778797a303132333435363738392b2fa2646970667358221220fd669dd3e50b5246c189d84e0067f25e71b23c33d115978b3a386a0abed8792f64736f6c634300080f0033a66cc928b5edb82af9bd49922954155ab7b0942694bea4ce44661d9a8736c688",
  "devdoc": {
    "kind": "dev",
    "methods": {
      "owner()": {
        "details": "Returns the address of the current owner."
      },
      "renounceOwnership()": {
        "details": "Leaves the contract without owner. It will not be possible to call `onlyOwner` functions anymore. Can only be called by the current owner. NOTE: Renouncing ownership will leave the contract without an owner, thereby removing any functionality that is only available to the owner."
      },
      "transferOwnership(address)": {
        "details": "Transfers ownership of the contract to a new account (`newOwner`). Can only be called by the current owner."
      }
    },
    "version": 1
  },
  "userdoc": {
    "kind": "user",
    "methods": {},
    "version": 1
  },
  "storageLayout": {
    "storage": [
      {
        "astId": 400,
        "contract": "contracts/CitizenAlphaMetadata.sol:CitizenAlphaMetadata",
        "label": "_owner",
        "offset": 0,
        "slot": "0",
        "type": "t_address"
      },
      {
        "astId": 3364,
        "contract": "contracts/CitizenAlphaMetadata.sol:CitizenAlphaMetadata",
        "label": "token",
        "offset": 0,
        "slot": "1",
        "type": "t_contract(CitizenAlpha)3319"
      },
      {
        "astId": 3367,
        "contract": "contracts/CitizenAlphaMetadata.sol:CitizenAlphaMetadata",
        "label": "svgColor",
        "offset": 0,
        "slot": "2",
        "type": "t_contract(SVGColor)5876"
      },
      {
        "astId": 3370,
        "contract": "contracts/CitizenAlphaMetadata.sol:CitizenAlphaMetadata",
        "label": "ens",
        "offset": 0,
        "slot": "3",
        "type": "t_address"
      },
      {
        "astId": 3373,
        "contract": "contracts/CitizenAlphaMetadata.sol:CitizenAlphaMetadata",
        "label": "resolver",
        "offset": 0,
        "slot": "4",
        "type": "t_address"
      },
      {
        "astId": 3376,
        "contract": "contracts/CitizenAlphaMetadata.sol:CitizenAlphaMetadata",
        "label": "reverseRegistrar",
        "offset": 0,
        "slot": "5",
        "type": "t_address"
      },
      {
        "astId": 3379,
        "contract": "contracts/CitizenAlphaMetadata.sol:CitizenAlphaMetadata",
        "label": "defaultReverseResolver",
        "offset": 0,
        "slot": "6",
        "type": "t_address"
      },
      {
        "astId": 3382,
        "contract": "contracts/CitizenAlphaMetadata.sol:CitizenAlphaMetadata",
        "label": "traitKeys",
        "offset": 0,
        "slot": "7",
        "type": "t_array(t_string_storage)dyn_storage"
      }
    ],
    "types": {
      "t_address": {
        "encoding": "inplace",
        "label": "address",
        "numberOfBytes": "20"
      },
      "t_array(t_string_storage)dyn_storage": {
        "base": "t_string_storage",
        "encoding": "dynamic_array",
        "label": "string[]",
        "numberOfBytes": "32"
      },
      "t_contract(CitizenAlpha)3319": {
        "encoding": "inplace",
        "label": "contract CitizenAlpha",
        "numberOfBytes": "20"
      },
      "t_contract(SVGColor)5876": {
        "encoding": "inplace",
        "label": "contract SVGColor",
        "numberOfBytes": "20"
      },
      "t_string_storage": {
        "encoding": "bytes",
        "label": "string",
        "numberOfBytes": "32"
      }
    }
  }
}