{
  "address": "0x892EDa1C52C102793499BA800795f85958AfF362",
  "abi": [
    {
      "inputs": [
        {
          "internalType": "contract CitizenAlpha",
          "name": "citizenAlpha_",
          "type": "address"
        },
        {
          "internalType": "string",
          "name": "name",
          "type": "string"
        },
        {
          "internalType": "string",
          "name": "symbol",
          "type": "string"
        }
      ],
      "stateMutability": "nonpayable",
      "type": "constructor"
    },
    {
      "anonymous": false,
      "inputs": [
        {
          "indexed": true,
          "internalType": "address",
          "name": "owner",
          "type": "address"
        },
        {
          "indexed": true,
          "internalType": "address",
          "name": "spender",
          "type": "address"
        },
        {
          "indexed": false,
          "internalType": "uint256",
          "name": "value",
          "type": "uint256"
        }
      ],
      "name": "Approval",
      "type": "event"
    },
    {
      "anonymous": false,
      "inputs": [
        {
          "indexed": true,
          "internalType": "address",
          "name": "from",
          "type": "address"
        },
        {
          "indexed": true,
          "internalType": "address",
          "name": "to",
          "type": "address"
        },
        {
          "indexed": false,
          "internalType": "uint256",
          "name": "value",
          "type": "uint256"
        }
      ],
      "name": "Transfer",
      "type": "event"
    },
    {
      "inputs": [
        {
          "internalType": "address",
          "name": "owner",
          "type": "address"
        },
        {
          "internalType": "address",
          "name": "spender",
          "type": "address"
        }
      ],
      "name": "allowance",
      "outputs": [
        {
          "internalType": "uint256",
          "name": "",
          "type": "uint256"
        }
      ],
      "stateMutability": "view",
      "type": "function"
    },
    {
      "inputs": [
        {
          "internalType": "address",
          "name": "spender",
          "type": "address"
        },
        {
          "internalType": "uint256",
          "name": "amount",
          "type": "uint256"
        }
      ],
      "name": "approve",
      "outputs": [
        {
          "internalType": "bool",
          "name": "",
          "type": "bool"
        }
      ],
      "stateMutability": "nonpayable",
      "type": "function"
    },
    {
      "inputs": [
        {
          "internalType": "address",
          "name": "account",
          "type": "address"
        }
      ],
      "name": "balanceOf",
      "outputs": [
        {
          "internalType": "uint256",
          "name": "",
          "type": "uint256"
        }
      ],
      "stateMutability": "view",
      "type": "function"
    },
    {
      "inputs": [],
      "name": "claim",
      "outputs": [],
      "stateMutability": "nonpayable",
      "type": "function"
    },
    {
      "inputs": [],
      "name": "decimals",
      "outputs": [
        {
          "internalType": "uint8",
          "name": "",
          "type": "uint8"
        }
      ],
      "stateMutability": "view",
      "type": "function"
    },
    {
      "inputs": [
        {
          "internalType": "address",
          "name": "spender",
          "type": "address"
        },
        {
          "internalType": "uint256",
          "name": "subtractedValue",
          "type": "uint256"
        }
      ],
      "name": "decreaseAllowance",
      "outputs": [
        {
          "internalType": "bool",
          "name": "",
          "type": "bool"
        }
      ],
      "stateMutability": "nonpayable",
      "type": "function"
    },
    {
      "inputs": [
        {
          "internalType": "address",
          "name": "spender",
          "type": "address"
        },
        {
          "internalType": "uint256",
          "name": "addedValue",
          "type": "uint256"
        }
      ],
      "name": "increaseAllowance",
      "outputs": [
        {
          "internalType": "bool",
          "name": "",
          "type": "bool"
        }
      ],
      "stateMutability": "nonpayable",
      "type": "function"
    },
    {
      "inputs": [],
      "name": "name",
      "outputs": [
        {
          "internalType": "string",
          "name": "",
          "type": "string"
        }
      ],
      "stateMutability": "view",
      "type": "function"
    },
    {
      "inputs": [],
      "name": "symbol",
      "outputs": [
        {
          "internalType": "string",
          "name": "",
          "type": "string"
        }
      ],
      "stateMutability": "view",
      "type": "function"
    },
    {
      "inputs": [],
      "name": "totalSupply",
      "outputs": [
        {
          "internalType": "uint256",
          "name": "",
          "type": "uint256"
        }
      ],
      "stateMutability": "view",
      "type": "function"
    },
    {
      "inputs": [
        {
          "internalType": "address",
          "name": "to",
          "type": "address"
        },
        {
          "internalType": "uint256",
          "name": "amount",
          "type": "uint256"
        }
      ],
      "name": "transfer",
      "outputs": [
        {
          "internalType": "bool",
          "name": "",
          "type": "bool"
        }
      ],
      "stateMutability": "nonpayable",
      "type": "function"
    },
    {
      "inputs": [
        {
          "internalType": "address",
          "name": "from",
          "type": "address"
        },
        {
          "internalType": "address",
          "name": "to",
          "type": "address"
        },
        {
          "internalType": "uint256",
          "name": "amount",
          "type": "uint256"
        }
      ],
      "name": "transferFrom",
      "outputs": [
        {
          "internalType": "bool",
          "name": "",
          "type": "bool"
        }
      ],
      "stateMutability": "nonpayable",
      "type": "function"
    }
  ],
  "transactionHash": "0xb02aa9a0d5db7a5351083dfefd9603ed060fd07fa7bede64cb13089152d02157",
  "args": [
    "0xD0B2Ee0DF1288574dadAD600ac5C03ff7322F728",
    "Public Goods Protocol",
    "PGP.alpha"
  ],
  "numDeployments": 1,
  "solcInputHash": "7c8b3e0ee24320628d959f3333563599",
  "bytecode": "0x6080604052683635c9adc5dea000006006553480156200001e57600080fd5b5060405162000e3038038062000e3083398101604081905262000041916200015a565b8181600362000051838262000273565b50600462000060828262000273565b5050600580546001600160a01b0319166001600160a01b039590951694909417909355506200033f915050565b634e487b7160e01b600052604160045260246000fd5b600082601f830112620000b557600080fd5b81516001600160401b0380821115620000d257620000d26200008d565b604051601f8301601f19908116603f01168101908282118183101715620000fd57620000fd6200008d565b816040528381526020925086838588010111156200011a57600080fd5b600091505b838210156200013e57858201830151818301840152908201906200011f565b83821115620001505760008385830101525b9695505050505050565b6000806000606084860312156200017057600080fd5b83516001600160a01b03811681146200018857600080fd5b60208501519093506001600160401b0380821115620001a657600080fd5b620001b487838801620000a3565b93506040860151915080821115620001cb57600080fd5b50620001da86828701620000a3565b9150509250925092565b600181811c90821680620001f957607f821691505b6020821081036200021a57634e487b7160e01b600052602260045260246000fd5b50919050565b601f8211156200026e57600081815260208120601f850160051c81016020861015620002495750805b601f850160051c820191505b818110156200026a5782815560010162000255565b5050505b505050565b81516001600160401b038111156200028f576200028f6200008d565b620002a781620002a08454620001e4565b8462000220565b602080601f831160018114620002df5760008415620002c65750858301515b600019600386901b1c1916600185901b1785556200026a565b600085815260208120601f198616915b828110156200031057888601518255948401946001909101908401620002ef565b50858210156200032f5787850151600019600388901b60f8161c191681555b5050505050600190811b01905550565b610ae1806200034f6000396000f3fe608060405234801561001057600080fd5b50600436106100b45760003560e01c80634e71d92d116100715780634e71d92d1461014157806370a082311461014b57806395d89b4114610174578063a457c2d71461017c578063a9059cbb1461018f578063dd62ed3e146101a257600080fd5b806306fdde03146100b9578063095ea7b3146100d757806318160ddd146100fa57806323b872dd1461010c578063313ce5671461011f578063395093511461012e575b600080fd5b6100c16101b5565b6040516100ce91906108fd565b60405180910390f35b6100ea6100e536600461096e565b610247565b60405190151581526020016100ce565b6002545b6040519081526020016100ce565b6100ea61011a366004610998565b61025f565b604051601281526020016100ce565b6100ea61013c36600461096e565b610283565b6101496102a5565b005b6100fe6101593660046109d4565b6001600160a01b031660009081526020819052604090205490565b6100c16103ef565b6100ea61018a36600461096e565b6103fe565b6100ea61019d36600461096e565b610479565b6100fe6101b03660046109f6565b610487565b6060600380546101c490610a29565b80601f01602080910402602001604051908101604052809291908181526020018280546101f090610a29565b801561023d5780601f106102125761010080835404028352916020019161023d565b820191906000526020600020905b81548152906001019060200180831161022057829003601f168201915b5050505050905090565b6000336102558185856104b2565b5060019392505050565b60003361026d8582856105d6565b610278858585610650565b506001949350505050565b6000336102558185856102968383610487565b6102a09190610a63565b6104b2565b60055460405163f3caad0360e01b81523360048201526001600160a01b039091169063f3caad0390602401602060405180830381865afa1580156102ed573d6000803e3d6000fd5b505050506040513d601f19601f820116820180604052508101906103119190610a89565b61035b5760405162461bcd60e51b8152602060048201526016602482015275151c9d5cdd151bdad95b8e9b9bdd0b5d1c9d5cdd195960521b60448201526064015b60405180910390fd5b3360009081526007602052604090205460ff16156103c65760405162461bcd60e51b815260206004820152602260248201527f5472757374546f6b656e3a74727573742d70726576696f75736c792d69737375604482015261195960f21b6064820152608401610352565b336000818152600760205260409020805460ff191660011790556006546103ed919061081e565b565b6060600480546101c490610a29565b6000338161040c8286610487565b90508381101561046c5760405162461bcd60e51b815260206004820152602560248201527f45524332303a2064656372656173656420616c6c6f77616e63652062656c6f77604482015264207a65726f60d81b6064820152608401610352565b61027882868684036104b2565b600033610255818585610650565b6001600160a01b03918216600090815260016020908152604080832093909416825291909152205490565b6001600160a01b0383166105145760405162461bcd60e51b8152602060048201526024808201527f45524332303a20617070726f76652066726f6d20746865207a65726f206164646044820152637265737360e01b6064820152608401610352565b6001600160a01b0382166105755760405162461bcd60e51b815260206004820152602260248201527f45524332303a20617070726f766520746f20746865207a65726f206164647265604482015261737360f01b6064820152608401610352565b6001600160a01b0383811660008181526001602090815260408083209487168084529482529182902085905590518481527f8c5be1e5ebec7d5bd14f71427d1e84f3dd0314c0f7b2291e5b200ac8c7c3b925910160405180910390a3505050565b60006105e28484610487565b9050600019811461064a578181101561063d5760405162461bcd60e51b815260206004820152601d60248201527f45524332303a20696e73756666696369656e7420616c6c6f77616e63650000006044820152606401610352565b61064a84848484036104b2565b50505050565b6001600160a01b0383166106b45760405162461bcd60e51b815260206004820152602560248201527f45524332303a207472616e736665722066726f6d20746865207a65726f206164604482015264647265737360d81b6064820152608401610352565b6001600160a01b0382166107165760405162461bcd60e51b815260206004820152602360248201527f45524332303a207472616e7366657220746f20746865207a65726f206164647260448201526265737360e81b6064820152608401610352565b6001600160a01b0383166000908152602081905260409020548181101561078e5760405162461bcd60e51b815260206004820152602660248201527f45524332303a207472616e7366657220616d6f756e7420657863656564732062604482015265616c616e636560d01b6064820152608401610352565b6001600160a01b038085166000908152602081905260408082208585039055918516815290812080548492906107c5908490610a63565b92505081905550826001600160a01b0316846001600160a01b03167fddf252ad1be2c89b69c2b068fc378daa952ba7f163c4a11628f55a4df523b3ef8460405161081191815260200190565b60405180910390a361064a565b6001600160a01b0382166108745760405162461bcd60e51b815260206004820152601f60248201527f45524332303a206d696e7420746f20746865207a65726f2061646472657373006044820152606401610352565b80600260008282546108869190610a63565b90915550506001600160a01b038216600090815260208190526040812080548392906108b3908490610a63565b90915550506040518181526001600160a01b038316906000907fddf252ad1be2c89b69c2b068fc378daa952ba7f163c4a11628f55a4df523b3ef9060200160405180910390a35050565b600060208083528351808285015260005b8181101561092a5785810183015185820160400152820161090e565b8181111561093c576000604083870101525b50601f01601f1916929092016040019392505050565b80356001600160a01b038116811461096957600080fd5b919050565b6000806040838503121561098157600080fd5b61098a83610952565b946020939093013593505050565b6000806000606084860312156109ad57600080fd5b6109b684610952565b92506109c460208501610952565b9150604084013590509250925092565b6000602082840312156109e657600080fd5b6109ef82610952565b9392505050565b60008060408385031215610a0957600080fd5b610a1283610952565b9150610a2060208401610952565b90509250929050565b600181811c90821680610a3d57607f821691505b602082108103610a5d57634e487b7160e01b600052602260045260246000fd5b50919050565b60008219821115610a8457634e487b7160e01b600052601160045260246000fd5b500190565b600060208284031215610a9b57600080fd5b815180151581146109ef57600080fdfea2646970667358221220418cf7b849b2fc6268a0cc5ed70a061541ad192897fea2c19edc11323825abfe64736f6c634300080f0033",
  "devdoc": {
    "kind": "dev",
    "methods": {
      "allowance(address,address)": {
        "details": "See {IERC20-allowance}."
      },
      "approve(address,uint256)": {
        "details": "See {IERC20-approve}. NOTE: If `amount` is the maximum `uint256`, the allowance is not updated on `transferFrom`. This is semantically equivalent to an infinite approval. Requirements: - `spender` cannot be the zero address."
      },
      "balanceOf(address)": {
        "details": "See {IERC20-balanceOf}."
      },
      "decimals()": {
        "details": "Returns the number of decimals used to get its user representation. For example, if `decimals` equals `2`, a balance of `505` tokens should be displayed to a user as `5.05` (`505 / 10 ** 2`). Tokens usually opt for a value of 18, imitating the relationship between Ether and Wei. This is the value {ERC20} uses, unless this function is overridden; NOTE: This information is only used for _display_ purposes: it in no way affects any of the arithmetic of the contract, including {IERC20-balanceOf} and {IERC20-transfer}."
      },
      "decreaseAllowance(address,uint256)": {
        "details": "Atomically decreases the allowance granted to `spender` by the caller. This is an alternative to {approve} that can be used as a mitigation for problems described in {IERC20-approve}. Emits an {Approval} event indicating the updated allowance. Requirements: - `spender` cannot be the zero address. - `spender` must have allowance for the caller of at least `subtractedValue`."
      },
      "increaseAllowance(address,uint256)": {
        "details": "Atomically increases the allowance granted to `spender` by the caller. This is an alternative to {approve} that can be used as a mitigation for problems described in {IERC20-approve}. Emits an {Approval} event indicating the updated allowance. Requirements: - `spender` cannot be the zero address."
      },
      "name()": {
        "details": "Returns the name of the token."
      },
      "symbol()": {
        "details": "Returns the symbol of the token, usually a shorter version of the name."
      },
      "totalSupply()": {
        "details": "See {IERC20-totalSupply}."
      },
      "transfer(address,uint256)": {
        "details": "See {IERC20-transfer}. Requirements: - `to` cannot be the zero address. - the caller must have a balance of at least `amount`."
      },
      "transferFrom(address,address,uint256)": {
        "details": "See {IERC20-transferFrom}. Emits an {Approval} event indicating the updated allowance. This is not required by the EIP. See the note at the beginning of {ERC20}. NOTE: Does not update the allowance if the current allowance is the maximum `uint256`. Requirements: - `from` and `to` cannot be the zero address. - `from` must have a balance of at least `amount`. - the caller must have allowance for ``from``'s tokens of at least `amount`."
      }
    },
    "version": 1
  },
  "userdoc": {
    "kind": "user",
    "methods": {},
    "version": 1
  },
  "storageLayout": {
    "storage": [
      {
        "astId": 513,
        "contract": "contracts/TrustToken.sol:TrustToken",
        "label": "_balances",
        "offset": 0,
        "slot": "0",
        "type": "t_mapping(t_address,t_uint256)"
      },
      {
        "astId": 519,
        "contract": "contracts/TrustToken.sol:TrustToken",
        "label": "_allowances",
        "offset": 0,
        "slot": "1",
        "type": "t_mapping(t_address,t_mapping(t_address,t_uint256))"
      },
      {
        "astId": 521,
        "contract": "contracts/TrustToken.sol:TrustToken",
        "label": "_totalSupply",
        "offset": 0,
        "slot": "2",
        "type": "t_uint256"
      },
      {
        "astId": 523,
        "contract": "contracts/TrustToken.sol:TrustToken",
        "label": "_name",
        "offset": 0,
        "slot": "3",
        "type": "t_string_storage"
      },
      {
        "astId": 525,
        "contract": "contracts/TrustToken.sol:TrustToken",
        "label": "_symbol",
        "offset": 0,
        "slot": "4",
        "type": "t_string_storage"
      },
      {
        "astId": 4172,
        "contract": "contracts/TrustToken.sol:TrustToken",
        "label": "citizenAlpha",
        "offset": 0,
        "slot": "5",
        "type": "t_contract(CitizenAlpha)3319"
      },
      {
        "astId": 4175,
        "contract": "contracts/TrustToken.sol:TrustToken",
        "label": "distribution",
        "offset": 0,
        "slot": "6",
        "type": "t_uint256"
      },
      {
        "astId": 4179,
        "contract": "contracts/TrustToken.sol:TrustToken",
        "label": "_claimed",
        "offset": 0,
        "slot": "7",
        "type": "t_mapping(t_address,t_bool)"
      }
    ],
    "types": {
      "t_address": {
        "encoding": "inplace",
        "label": "address",
        "numberOfBytes": "20"
      },
      "t_bool": {
        "encoding": "inplace",
        "label": "bool",
        "numberOfBytes": "1"
      },
      "t_contract(CitizenAlpha)3319": {
        "encoding": "inplace",
        "label": "contract CitizenAlpha",
        "numberOfBytes": "20"
      },
      "t_mapping(t_address,t_bool)": {
        "encoding": "mapping",
        "key": "t_address",
        "label": "mapping(address => bool)",
        "numberOfBytes": "32",
        "value": "t_bool"
      },
      "t_mapping(t_address,t_mapping(t_address,t_uint256))": {
        "encoding": "mapping",
        "key": "t_address",
        "label": "mapping(address => mapping(address => uint256))",
        "numberOfBytes": "32",
        "value": "t_mapping(t_address,t_uint256)"
      },
      "t_mapping(t_address,t_uint256)": {
        "encoding": "mapping",
        "key": "t_address",
        "label": "mapping(address => uint256)",
        "numberOfBytes": "32",
        "value": "t_uint256"
      },
      "t_string_storage": {
        "encoding": "bytes",
        "label": "string",
        "numberOfBytes": "32"
      },
      "t_uint256": {
        "encoding": "inplace",
        "label": "uint256",
        "numberOfBytes": "32"
      }
    }
  }
}