{
  "_format": "hh-sol-artifact-1",
  "contractName": "ObservationLib",
  "sourceName": "contracts/libraries/twab/ObservationLib.sol",
  "abi": [
    {
      "inputs": [],
      "name": "MAX_CARDINALITY",
      "outputs": [
        {
          "internalType": "uint24",
          "name": "",
          "type": "uint24"
        }
      ],
      "stateMutability": "view",
      "type": "function"
    }
  ],
  "bytecode": "0x608f610038600b82828239805160001a607314602b57634e487b7160e01b600052600060045260246000fd5b30600052607381538281f3fe730000000000000000000000000000000000000000301460806040526004361060335760003560e01c80638200d873146038575b600080fd5b604162ffffff81565b60405162ffffff909116815260200160405180910390f3fea2646970667358221220573e148175035e736bbb68db5640078df1ce14328e90ceac1c15b55ec346f61a64736f6c634300080f0033",
  "linkReferences": {},
  "deployedLinkReferences": {}
}