{
  "_format": "hh-sol-artifact-1",
  "contractName": "SVGRender",
  "sourceName": "contracts/SVGRender.sol",
  "abi": [
    {
      "inputs": [
        {
          "internalType": "address",
          "name": "_svgColor",
          "type": "address"
        }
      ],
      "stateMutability": "nonpayable",
      "type": "constructor"
    },
    {
      "anonymous": false,
      "inputs": [
        {
          "indexed": true,
          "internalType": "address",
          "name": "previousOwner",
          "type": "address"
        },
        {
          "indexed": true,
          "internalType": "address",
          "name": "newOwner",
          "type": "address"
        }
      ],
      "name": "OwnershipTransferred",
      "type": "event"
    },
    {
      "inputs": [
        {
          "internalType": "uint256",
          "name": "_tokenId",
          "type": "uint256"
        },
        {
          "internalType": "string",
          "name": "_alias",
          "type": "string"
        }
      ],
      "name": "generate",
      "outputs": [
        {
          "internalType": "string",
          "name": "",
          "type": "string"
        }
      ],
      "stateMutability": "view",
      "type": "function"
    },
    {
      "inputs": [],
      "name": "owner",
      "outputs": [
        {
          "internalType": "address",
          "name": "",
          "type": "address"
        }
      ],
      "stateMutability": "view",
      "type": "function"
    },
    {
      "inputs": [],
      "name": "renounceOwnership",
      "outputs": [],
      "stateMutability": "nonpayable",
      "type": "function"
    },
    {
      "inputs": [],
      "name": "svgColor",
      "outputs": [
        {
          "internalType": "address",
          "name": "",
          "type": "address"
        }
      ],
      "stateMutability": "view",
      "type": "function"
    },
    {
      "inputs": [
        {
          "internalType": "address",
          "name": "newOwner",
          "type": "address"
        }
      ],
      "name": "transferOwnership",
      "outputs": [],
      "stateMutability": "nonpayable",
      "type": "function"
    }
  ],
  "bytecode": "0x608060405234801561001057600080fd5b506040516114aa3803806114aa83398101604081905261002f916100ad565b6100383361005d565b600180546001600160a01b0319166001600160a01b03929092169190911790556100dd565b600080546001600160a01b038381166001600160a01b0319831681178455604051919092169283917f8be0079c531659141344cd1fd0a4f28419497f9722a3daafe3b4186f6b6457e09190a35050565b6000602082840312156100bf57600080fd5b81516001600160a01b03811681146100d657600080fd5b9392505050565b6113be806100ec6000396000f3fe608060405234801561001057600080fd5b50600436106100575760003560e01c8063231c1d431461005c5780635942fda914610085578063715018a6146100b05780638da5cb5b146100ba578063f2fde38b146100cb575b600080fd5b61006f61006a366004610e69565b6100de565b60405161007c9190610f23565b60405180910390f35b600154610098906001600160a01b031681565b6040516001600160a01b03909116815260200161007c565b6100b8610686565b005b6000546001600160a01b0316610098565b6100b86100d9366004610f56565b61069a565b6060600061010b6040518060400160405280600881526020016718da185c98dbd85b60c21b815250610718565b9050610115610741565b61011d61080b565b61027761014660405180604001604052806004815260200163199a5b1b60e21b81525085610ae7565b610182604051806040016040528060018152602001600f60fb1b815250604051806040016040528060018152602001600360fc1b815250610ae7565b6101be604051806040016040528060018152602001607960f81b815250604051806040016040528060018152602001600360fc1b815250610ae7565b610201604051806040016040528060058152602001640eed2c8e8d60db1b815250604051806040016040528060048152602001633130302560e01b815250610ae7565b610245604051806040016040528060068152602001651a195a59da1d60d21b815250604051806040016040528060048152602001633130302560e01b815250610ae7565b604051602001610259959493929190610f7f565b60408051601f19818403018152602083019091526000825290610b13565b61046d6102b8604051806040016040528060018152602001600f60fb1b8152506040518060400160405280600381526020016235302560e81b815250610ae7565b6102f6604051806040016040528060018152602001607960f81b8152506040518060400160405280600381526020016235302560e81b815250610ae7565b61034760405180604001604052806011815260200170646f6d696e616e742d626173656c696e6560781b815250604051806040016040528060068152602001656d6964646c6560d01b815250610ae7565b6103926040518060400160405280600b81526020016a3a32bc3a16b0b731b437b960a91b815250604051806040016040528060068152602001656d6964646c6560d01b815250610ae7565b6103d960405180604001604052806009815260200168666f6e742d73697a6560b81b8152506040518060400160405280600481526020016306870e0f60e31b815250610ae7565b61041c60405180604001604052806004815260200163199a5b1b60e21b81525060405180604001604052806005815260200164776869746560d81b815250610ae7565b60405160200161043196959493929190610fea565b60405160208183030381529060405261044989610b43565b6040516020016104599190611069565b604051602081830303815290604052610c4c565b61063c6104ae604051806040016040528060018152602001600f60fb1b8152506040518060400160405280600381526020016235302560e81b815250610ae7565b6104ec604051806040016040528060018152602001607960f81b8152506040518060400160405280600381526020016236302560e81b815250610ae7565b61053d60405180604001604052806011815260200170646f6d696e616e742d626173656c696e6560781b815250604051806040016040528060068152602001656d6964646c6560d01b815250610ae7565b6105886040518060400160405280600b81526020016a3a32bc3a16b0b731b437b960a91b815250604051806040016040528060068152602001656d6964646c6560d01b815250610ae7565b6105cf60405180604001604052806009815260200168666f6e742d73697a6560b81b8152506040518060400160405280600481526020016306464e0f60e31b815250610ae7565b61061260405180604001604052806004815260200163199a5b1b60e21b81525060405180604001604052806005815260200164776869746560d81b815250610ae7565b60405160200161062796959493929190610fea565b60405160208183030381529060405288610c4c565b6040805180820190915260068152651e17b9bb339f60d11b602082015260405160200161066e96959493929190610fea565b60405160208183030381529060405291505092915050565b61068e610c75565b6106986000610ccf565b565b6106a2610c75565b6001600160a01b03811661070c5760405162461bcd60e51b815260206004820152602660248201527f4f776e61626c653a206e6577206f776e657220697320746865207a65726f206160448201526564647265737360d01b60648201526084015b60405180910390fd5b61071581610ccf565b50565b60608160405160200161072b9190611096565b6040516020818303038152906040529050919050565b60606040516020016107f7907f3c7376672077696474683d2234303022206865696768743d223430302220737481527f796c653d226261636b67726f756e643a2335343135363322200000000000000060208201527503b34b2bba137bc1e91181018101a1818101a181811160551b60398201527f786d6c6e733d22687474703a2f2f7777772e77332e6f72672f323030302f7376604f8201526203391160ed1b606f820152601f60f91b607282015260730190565b604051602081830303815290604052905090565b6060610ae2610abe610857604051806040016040528060028152602001611a5960f21b8152506040518060400160405280600881526020016718da185c98dbd85b60c21b815250610ae7565b6108ad604051806040016040528060118152602001706772616469656e745472616e73666f726d60781b8152506040518060400160405280600b81526020016a726f74617465283134302960a81b815250610ae7565b6040516020016108be9291906110ce565b6040516020818303038152906040526109ea610912604051806040016040528060068152602001651bd9999cd95d60d21b81525060405180604001604052806002815260200161302560f01b815250610ae7565b604080518082018252600a81526939ba37b816b1b7b637b960b11b60208201526001549151630cde589160e41b81526109c5926001600160a01b03169063cde589109061097b906004016020808252600590820152644461726b3160d81b604082015260600190565b600060405180830381865afa158015610998573d6000803e3d6000fd5b505050506040513d6000823e601f3d908101601f191682016040526109c091908101906110fd565b610ae7565b6040516020016109d69291906110ce565b604051602081830303815290604052610d1f565b610a99610a30604051806040016040528060068152602001651bd9999cd95d60d21b8152506040518060400160405280600381526020016237302560e81b815250610ae7565b604080518082018252600a81526939ba37b816b1b7b637b960b11b60208201526001549151630cde589160e41b81526109c5926001600160a01b03169063cde589109061097b906004016020808252600590820152642230b9359960d91b604082015260600190565b604051602001610aaa9291906110ce565b604051602081830303815290604052610d4d565b604051602001610ace9190611174565b604051602081830303815290604052610d80565b905090565b60608282604051602001610afc929190611190565b604051602081830303815290604052905092915050565b6060610b3c604051806040016040528060048152602001631c9958dd60e21b8152508484610db4565b9392505050565b606081600003610b6a5750506040805180820190915260018152600360fc1b602082015290565b8160005b8115610b945780610b7e816111fb565b9150610b8d9050600a8361122a565b9150610b6e565b60008167ffffffffffffffff811115610baf57610baf610dfa565b6040519080825280601f01601f191660200182016040528015610bd9576020820181803683370190505b5090505b8415610c4457610bee60018361123e565b9150610bfb600a86611255565b610c06906030611269565b60f81b818381518110610c1b57610c1b611281565b60200101906001600160f81b031916908160001a905350610c3d600a8661122a565b9450610bdd565b949350505050565b6060610b3c604051806040016040528060048152602001631d195e1d60e21b8152508484610db4565b6000546001600160a01b031633146106985760405162461bcd60e51b815260206004820181905260248201527f4f776e61626c653a2063616c6c6572206973206e6f7420746865206f776e65726044820152606401610703565b600080546001600160a01b038381166001600160a01b0319831681178455604051919092169283917f8be0079c531659141344cd1fd0a4f28419497f9722a3daafe3b4186f6b6457e09190a35050565b6060610d4760405180604001604052806004815260200163073746f760e41b81525083610de5565b92915050565b6060610b3c6040518060400160405280600e81526020016d1b1a5b99585c91dc98591a595b9d60921b8152508484610db4565b6060610d47604051806040016040528060048152602001636465667360e01b81525060405180602001604052806000815250845b606083838386604051602001610dcd9493929190611297565b60405160208183030381529060405290509392505050565b60608282604051602001610afc929190611330565b634e487b7160e01b600052604160045260246000fd5b604051601f8201601f1916810167ffffffffffffffff81118282101715610e3957610e39610dfa565b604052919050565b600067ffffffffffffffff821115610e5b57610e5b610dfa565b50601f01601f191660200190565b60008060408385031215610e7c57600080fd5b82359150602083013567ffffffffffffffff811115610e9a57600080fd5b8301601f81018513610eab57600080fd5b8035610ebe610eb982610e41565b610e10565b818152866020838501011115610ed357600080fd5b816020840160208301376000602083830101528093505050509250929050565b60005b83811015610f0e578181015183820152602001610ef6565b83811115610f1d576000848401525b50505050565b6020815260008251806020840152610f42816040850160208701610ef3565b601f01601f19169190910160400192915050565b600060208284031215610f6857600080fd5b81356001600160a01b0381168114610b3c57600080fd5b60008651610f91818460208b01610ef3565b865190830190610fa5818360208b01610ef3565b8651910190610fb8818360208a01610ef3565b8551910190610fcb818360208901610ef3565b8451910190610fde818360208801610ef3565b01979650505050505050565b600087516020610ffd8285838d01610ef3565b8851918401916110108184848d01610ef3565b88519201916110228184848c01610ef3565b87519201916110348184848b01610ef3565b86519201916110468184848a01610ef3565b85519201916110588184848901610ef3565b919091019998505050505050505050565b64434956202360d81b815260008251611089816005850160208701610ef3565b9190910160050192915050565b6475726c282360d81b8152600082516110b6816005850160208701610ef3565b602960f81b6005939091019283015250600601919050565b600083516110e0818460208801610ef3565b8351908301906110f4818360208801610ef3565b01949350505050565b60006020828403121561110f57600080fd5b815167ffffffffffffffff81111561112657600080fd5b8201601f8101841361113757600080fd5b8051611145610eb982610e41565b81815285602083850101111561115a57600080fd5b61116b826020830160208601610ef3565b95945050505050565b60008251611186818460208701610ef3565b9190910192915050565b600083516111a2818460208801610ef3565b603d60f81b908301908152601160f91b600182015283516111ca816002840160208801610ef3565b61011160f51b60029290910191820152600401949350505050565b634e487b7160e01b600052601160045260246000fd5b60006001820161120d5761120d6111e5565b5060010190565b634e487b7160e01b600052601260045260246000fd5b60008261123957611239611214565b500490565b600082821015611250576112506111e5565b500390565b60008261126457611264611214565b500690565b6000821982111561127c5761127c6111e5565b500190565b634e487b7160e01b600052603260045260246000fd5b600f60fa1b8152600085516112b3816001850160208a01610ef3565b600160fd1b60019184019182015285516112d4816002840160208a01610ef3565b808201915050601f60f91b80600283015285516112f8816003850160208a01610ef3565b613c2f60f01b60039390910192830152845161131b816005850160208901610ef3565b60059201918201526006019695505050505050565b600f60fa1b81526000835161134c816001850160208801610ef3565b600160fd1b600191840191820152835161136d816002840160208801610ef3565b61179f60f11b6002929091019182015260040194935050505056fea2646970667358221220a645e0e6201f82868c67af2964b7d175fb1d2281cfb30f7d85351f9ec47475d464736f6c634300080f0033",
  "linkReferences": {},
  "deployedLinkReferences": {}
}