{
  "address": "0x97F4b23c0ce547e2aafF1D5F523c30d82C0a2f9F",
  "abi": [
    {
      "inputs": [],
      "stateMutability": "nonpayable",
      "type": "constructor"
    },
    {
      "anonymous": false,
      "inputs": [
        {
          "indexed": true,
          "internalType": "address",
          "name": "previousOwner",
          "type": "address"
        },
        {
          "indexed": true,
          "internalType": "address",
          "name": "newOwner",
          "type": "address"
        }
      ],
      "name": "OwnershipTransferred",
      "type": "event"
    },
    {
      "inputs": [
        {
          "internalType": "string",
          "name": "key",
          "type": "string"
        }
      ],
      "name": "appendKey",
      "outputs": [],
      "stateMutability": "nonpayable",
      "type": "function"
    },
    {
      "inputs": [
        {
          "internalType": "address",
          "name": "user",
          "type": "address"
        }
      ],
      "name": "count",
      "outputs": [
        {
          "internalType": "uint256",
          "name": "count",
          "type": "uint256"
        }
      ],
      "stateMutability": "view",
      "type": "function"
    },
    {
      "inputs": [
        {
          "internalType": "address",
          "name": "user",
          "type": "address"
        }
      ],
      "name": "getData",
      "outputs": [
        {
          "internalType": "string[]",
          "name": "keys",
          "type": "string[]"
        },
        {
          "internalType": "string[]",
          "name": "values",
          "type": "string[]"
        }
      ],
      "stateMutability": "view",
      "type": "function"
    },
    {
      "inputs": [],
      "name": "getKeys",
      "outputs": [
        {
          "internalType": "string[]",
          "name": "keys",
          "type": "string[]"
        }
      ],
      "stateMutability": "view",
      "type": "function"
    },
    {
      "inputs": [
        {
          "internalType": "address",
          "name": "_address",
          "type": "address"
        }
      ],
      "name": "getMetadata",
      "outputs": [
        {
          "internalType": "bytes32",
          "name": "node",
          "type": "bytes32"
        },
        {
          "internalType": "string",
          "name": "name",
          "type": "string"
        },
        {
          "internalType": "address",
          "name": "resolver",
          "type": "address"
        }
      ],
      "stateMutability": "view",
      "type": "function"
    },
    {
      "inputs": [
        {
          "internalType": "address",
          "name": "user",
          "type": "address"
        },
        {
          "internalType": "string",
          "name": "key",
          "type": "string"
        }
      ],
      "name": "getValue",
      "outputs": [
        {
          "internalType": "string",
          "name": "",
          "type": "string"
        }
      ],
      "stateMutability": "view",
      "type": "function"
    },
    {
      "inputs": [],
      "name": "owner",
      "outputs": [
        {
          "internalType": "address",
          "name": "",
          "type": "address"
        }
      ],
      "stateMutability": "view",
      "type": "function"
    },
    {
      "inputs": [],
      "name": "renounceOwnership",
      "outputs": [],
      "stateMutability": "nonpayable",
      "type": "function"
    },
    {
      "inputs": [
        {
          "internalType": "address",
          "name": "newOwner",
          "type": "address"
        }
      ],
      "name": "transferOwnership",
      "outputs": [],
      "stateMutability": "nonpayable",
      "type": "function"
    },
    {
      "inputs": [
        {
          "internalType": "uint256",
          "name": "idx",
          "type": "uint256"
        },
        {
          "internalType": "string",
          "name": "key",
          "type": "string"
        }
      ],
      "name": "updateKey",
      "outputs": [],
      "stateMutability": "nonpayable",
      "type": "function"
    }
  ],
  "transactionHash": "0x1cc8601d1dba10dd35536d1c4e984b5a81b81976fc71ba7788107e4b0a47d510",
  "args": [],
  "numDeployments": 1,
  "solcInputHash": "dcdb068b33a37414041a673866438cbe",
  "bytecode": "0x60806040523480156200001157600080fd5b506200001d336200024c565b60018054808201825560009190915260408051808201909152600681526530bb30ba30b960d11b6020820152600080516020620015ca8339815191529091019062000069908262000341565b506001805480820182556000919091526040805180820190915260038152621d5c9b60ea1b6020820152600080516020620015ca83398151915290910190620000b3908262000341565b5060018054808201825560009190915260408051808201909152600b81526a3232b9b1b934b83a34b7b760a91b6020820152600080516020620015ca8339815191529091019062000105908262000341565b5060018054808201825560009190915260408051808201909152600a81526931b7b69733b4ba343ab160b11b6020820152600080516020620015ca8339815191529091019062000156908262000341565b5060018054808201825560009190915260408051808201909152600b81526a31b7b6973a3bb4ba3a32b960a91b6020820152600080516020620015ca83398151915290910190620001a8908262000341565b5060018054808201825560009190915260408051808201909152600c81526b6f72672e74656c656772616d60a01b6020820152600080516020620015ca83398151915290910190620001fb908262000341565b50600180548082018255600091909152604080518082019091526003815262191a5960ea1b6020820152600080516020620015ca8339815191529091019062000245908262000341565b506200040d565b600080546001600160a01b038381166001600160a01b0319831681178455604051919092169283917f8be0079c531659141344cd1fd0a4f28419497f9722a3daafe3b4186f6b6457e09190a35050565b634e487b7160e01b600052604160045260246000fd5b600181811c90821680620002c757607f821691505b602082108103620002e857634e487b7160e01b600052602260045260246000fd5b50919050565b601f8211156200033c57600081815260208120601f850160051c81016020861015620003175750805b601f850160051c820191505b81811015620003385782815560010162000323565b5050505b505050565b81516001600160401b038111156200035d576200035d6200029c565b62000375816200036e8454620002b2565b84620002ee565b602080601f831160018114620003ad5760008415620003945750858301515b600019600386901b1c1916600185901b17855562000338565b600085815260208120601f198616915b82811015620003de57888601518255948401946001909101908401620003bd565b5085821015620003fd5787850151600019600388901b60f8161c191681555b5050505050600190811b01905550565b6111ad806200041d6000396000f3fe608060405234801561001057600080fd5b506004361061009e5760003560e01c806338266b221161006657806338266b2214610128578063715018a6146101495780638da5cb5b14610151578063de0cb0ad1461016c578063f2fde38b1461018c57600080fd5b806305d85eda146100a357806312ecad2d146100c95780632150c518146100de5780632a50c146146100f357806330d1ab4e14610115575b600080fd5b6100b66100b1366004610c04565b61019f565b6040519081526020015b60405180910390f35b6100dc6100d7366004610c6f565b61029b565b005b6100e66102e4565b6040516100c09190610d61565b610106610101366004610c04565b6103bd565b6040516100c093929190610d74565b6100dc610123366004610da5565b6103df565b61013b610136366004610c04565b610419565b6040516100c0929190610df1565b6100dc61051a565b6000546040516001600160a01b0390911681526020016100c0565b61017f61017a366004610e85565b61052e565b6040516100c09190610f16565b6100dc61019a366004610c04565b6105be565b60008060006101ad8461063c565b925092505060006102906001805480602002602001604051908101604052809291908181526020016000905b828210156102855783829060005260206000200180546101f890610f29565b80601f016020809104026020016040519081016040528092919081815260200182805461022490610f29565b80156102715780601f1061024657610100808354040283529160200191610271565b820191906000526020600020905b81548152906001019060200180831161025457829003601f168201915b5050505050815260200190600101906101d9565b505050508484610772565b505195945050505050565b6102a3610925565b6001805480820182556000919091527fb10e2d527612073b26eecdfd717e6a320cf44b4afac2b0732d9fcbe2b7fa0cf6016102df828483610fb1565b505050565b60606001805480602002602001604051908101604052809291908181526020016000905b828210156103b457838290600052602060002001805461032790610f29565b80601f016020809104026020016040519081016040528092919081815260200182805461035390610f29565b80156103a05780601f10610375576101008083540402835291602001916103a0565b820191906000526020600020905b81548152906001019060200180831161038357829003601f168201915b505050505081526020019060010190610308565b50505050905090565b600060606000806000806103d08761063c565b90999198509650945050505050565b6103e7610925565b8181600185815481106103fc576103fc611072565b906000526020600020019182610413929190610fb1565b50505050565b6060806000806104288561063c565b925092505060008061050c6001805480602002602001604051908101604052809291908181526020016000905b8282101561050157838290600052602060002001805461047490610f29565b80601f01602080910402602001604051908101604052809291908181526020018280546104a090610f29565b80156104ed5780601f106104c2576101008083540402835291602001916104ed565b820191906000526020600020905b8154815290600101906020018083116104d057829003601f168201915b505050505081526020019060010190610455565b505050508585610772565b909890975095505050505050565b610522610925565b61052c600061097f565b565b606060008061053c8561063c565b604051631674750f60e21b815291945092506001600160a01b03831691506359d1d43c906105709085908890600401611088565b600060405180830381865afa15801561058d573d6000803e3d6000fd5b505050506040513d6000823e601f3d908101601f191682016040526105b591908101906110a9565b95945050505050565b6105c6610925565b6001600160a01b0381166106305760405162461bcd60e51b815260206004820152602660248201527f4f776e61626c653a206e6577206f776e657220697320746865207a65726f206160448201526564647265737360d01b60648201526084015b60405180910390fd5b6106398161097f565b50565b604051632ffef98760e21b81526001600160a01b03821660048201526060906000908190819073084b1c3c81545d370f3634392de611caabff81489063bffbe61c90602401602060405180830381865afa15801561069e573d6000803e3d6000fd5b505050506040513d601f19601f820116820180604052508101906106c29190611117565b60405163691f343160e01b81526004810182905290915060009073a2c122be93b0074270ebee7f6b7292c7deb450479063691f343190602401600060405180830381865afa158015610718573d6000803e3d6000fd5b505050506040513d6000823e601f3d908101601f1916820160405261074091908101906110a9565b9050600061074d826109cf565b9298929750734976fb03c32e5b8cfe2b6ccb31c09ba78ebaba41965091945050505050565b6060806000855167ffffffffffffffff81111561079157610791610e16565b6040519080825280602002602001820160405280156107c457816020015b60608152602001906001900390816107af5790505b5090506000865167ffffffffffffffff8111156107e3576107e3610e16565b60405190808252806020026020018201604052801561081657816020015b60608152602001906001900390816108015790505b50905060005b87518110156109185787818151811061083757610837611072565b602002602001015183828151811061085157610851611072565b6020026020010181905250856001600160a01b03166359d1d43c888a848151811061087e5761087e611072565b60200260200101516040518363ffffffff1660e01b81526004016108a3929190611088565b600060405180830381865afa1580156108c0573d6000803e3d6000fd5b505050506040513d6000823e601f3d908101601f191682016040526108e891908101906110a9565b8282815181106108fa576108fa611072565b6020026020010181905250808061091090611146565b91505061081c565b5090969095509350505050565b6000546001600160a01b0316331461052c5760405162461bcd60e51b815260206004820181905260248201527f4f776e61626c653a2063616c6c6572206973206e6f7420746865206f776e65726044820152606401610627565b600080546001600160a01b038381166001600160a01b0319831681178455604051919092169283917f8be0079c531659141344cd1fd0a4f28419497f9722a3daafe3b4186f6b6457e09190a35050565b8051606090600090819084906109e681600261115f565b67ffffffffffffffff8111156109fe576109fe610e16565b6040519080825280601f01601f191660200182016040528015610a28576020820181803683370190505b50945060009350808403610a6d57600060f81b85600081518110610a4e57610a4e611072565b60200101906001600160f81b031916908160001a905350505050915091565b60001981015b828181518110610a8557610a85611072565b01602001516001600160f81b031916601760f91b03610b13578360f81b868260010181518110610ab757610ab7611072565b60200101906001600160f81b031916908160001a90535084610ae0846001840160ff8816610bc4565b60408051602081019390935282015260600160405160208183030381529060405280519060200120945060009350610b63565b600184019350828181518110610b2b57610b2b611072565b602001015160f81c60f81b868260010181518110610b4b57610b4b611072565b60200101906001600160f81b031916908160001a9053505b8015610b725760001901610a73565b5083610b8383600060ff8716610bc4565b6040805160208101939093528201526060016040516020818303038152906040528051906020012093508260f81b85600081518110610a4e57610a4e611072565b8251600090610bd3838561115f565b1115610bde57600080fd5b5091016020012090565b80356001600160a01b0381168114610bff57600080fd5b919050565b600060208284031215610c1657600080fd5b610c1f82610be8565b9392505050565b60008083601f840112610c3857600080fd5b50813567ffffffffffffffff811115610c5057600080fd5b602083019150836020828501011115610c6857600080fd5b9250929050565b60008060208385031215610c8257600080fd5b823567ffffffffffffffff811115610c9957600080fd5b610ca585828601610c26565b90969095509350505050565b60005b83811015610ccc578181015183820152602001610cb4565b838111156104135750506000910152565b60008151808452610cf5816020860160208601610cb1565b601f01601f19169290920160200192915050565b600082825180855260208086019550808260051b84010181860160005b84811015610d5457601f19868403018952610d42838351610cdd565b98840198925090830190600101610d26565b5090979650505050505050565b602081526000610c1f6020830184610d09565b838152606060208201526000610d8d6060830185610cdd565b905060018060a01b0383166040830152949350505050565b600080600060408486031215610dba57600080fd5b83359250602084013567ffffffffffffffff811115610dd857600080fd5b610de486828701610c26565b9497909650939450505050565b604081526000610e046040830185610d09565b82810360208401526105b58185610d09565b634e487b7160e01b600052604160045260246000fd5b604051601f8201601f1916810167ffffffffffffffff81118282101715610e5557610e55610e16565b604052919050565b600067ffffffffffffffff821115610e7757610e77610e16565b50601f01601f191660200190565b60008060408385031215610e9857600080fd5b610ea183610be8565b9150602083013567ffffffffffffffff811115610ebd57600080fd5b8301601f81018513610ece57600080fd5b8035610ee1610edc82610e5d565b610e2c565b818152866020838501011115610ef657600080fd5b816020840160208301376000602083830101528093505050509250929050565b602081526000610c1f6020830184610cdd565b600181811c90821680610f3d57607f821691505b602082108103610f5d57634e487b7160e01b600052602260045260246000fd5b50919050565b601f8211156102df57600081815260208120601f850160051c81016020861015610f8a5750805b601f850160051c820191505b81811015610fa957828155600101610f96565b505050505050565b67ffffffffffffffff831115610fc957610fc9610e16565b610fdd83610fd78354610f29565b83610f63565b6000601f8411600181146110115760008515610ff95750838201355b600019600387901b1c1916600186901b17835561106b565b600083815260209020601f19861690835b828110156110425786850135825560209485019460019092019101611022565b508682101561105f5760001960f88860031b161c19848701351681555b505060018560011b0183555b5050505050565b634e487b7160e01b600052603260045260246000fd5b8281526040602082015260006110a16040830184610cdd565b949350505050565b6000602082840312156110bb57600080fd5b815167ffffffffffffffff8111156110d257600080fd5b8201601f810184136110e357600080fd5b80516110f1610edc82610e5d565b81815285602083850101111561110657600080fd5b6105b5826020830160208601610cb1565b60006020828403121561112957600080fd5b5051919050565b634e487b7160e01b600052601160045260246000fd5b60006001820161115857611158611130565b5060010190565b6000821982111561117257611172611130565b50019056fea26469706673582212208e7bd5d4c3f2a21e557fe0c33b4f04e00da5c686869d37916495b6f22d8266d264736f6c634300080f0033b10e2d527612073b26eecdfd717e6a320cf44b4afac2b0732d9fcbe2b7fa0cf6",
  "devdoc": {
    "kind": "dev",
    "methods": {
      "appendKey(string)": {
        "params": {
          "key": "string"
        }
      },
      "count(address)": {
        "returns": {
          "count": "uint256"
        }
      },
      "getData(address)": {
        "params": {
          "user": "address"
        },
        "returns": {
          "keys": "string[]",
          "values": "string[]"
        }
      },
      "getKeys()": {
        "returns": {
          "keys": "string[]"
        }
      },
      "getValue(address,string)": {
        "params": {
          "key": "string",
          "user": "address"
        },
        "returns": {
          "_0": "value string"
        }
      },
      "owner()": {
        "details": "Returns the address of the current owner."
      },
      "renounceOwnership()": {
        "details": "Leaves the contract without owner. It will not be possible to call `onlyOwner` functions anymore. Can only be called by the current owner. NOTE: Renouncing ownership will leave the contract without an owner, thereby removing any functionality that is only available to the owner."
      },
      "transferOwnership(address)": {
        "details": "Transfers ownership of the contract to a new account (`newOwner`). Can only be called by the current owner."
      },
      "updateKey(uint256,string)": {
        "params": {
          "idx": "uint256",
          "key": "string"
        }
      }
    },
    "version": 1
  },
  "userdoc": {
    "kind": "user",
    "methods": {
      "appendKey(string)": {
        "notice": "Append Key"
      },
      "count(address)": {
        "notice": "Get data fields count for user"
      },
      "getData(address)": {
        "notice": "Get all available data for user"
      },
      "getKeys()": {
        "notice": "Get Keys"
      },
      "getValue(address,string)": {
        "notice": "Get data value for user"
      },
      "updateKey(uint256,string)": {
        "notice": "Set Key"
      }
    },
    "version": 1
  },
  "storageLayout": {
    "storage": [
      {
        "astId": 550,
        "contract": "contracts/Sources/SourceENS.sol:SourceENS",
        "label": "_owner",
        "offset": 0,
        "slot": "0",
        "type": "t_address"
      },
      {
        "astId": 11909,
        "contract": "contracts/Sources/SourceENS.sol:SourceENS",
        "label": "_keys",
        "offset": 0,
        "slot": "1",
        "type": "t_array(t_string_storage)dyn_storage"
      }
    ],
    "types": {
      "t_address": {
        "encoding": "inplace",
        "label": "address",
        "numberOfBytes": "20"
      },
      "t_array(t_string_storage)dyn_storage": {
        "base": "t_string_storage",
        "encoding": "dynamic_array",
        "label": "string[]",
        "numberOfBytes": "32"
      },
      "t_string_storage": {
        "encoding": "bytes",
        "label": "string",
        "numberOfBytes": "32"
      }
    }
  }
}